{"abi":[{"type":"constructor","inputs":[{"name":"_olas","type":"address","internalType":"address"},{"name":"_collector","type":"address","internalType":"address"},{"name":"_multiSend","type":"address","internalType":"address"}],"stateMutability":"nonpayable"},{"type":"function","name":"DEFAULT_ACTIVITY","inputs":[],"outputs":[{"name":"","type":"uint256","internalType":"uint256"}],"stateMutability":"view"},{"type":"function","name":"REWARD","inputs":[],"outputs":[{"name":"","type":"bytes32","internalType":"bytes32"}],"stateMutability":"view"},{"type":"function","name":"VERSION","inputs":[],"outputs":[{"name":"","type":"string","internalType":"string"}],"stateMutability":"view"},{"type":"function","name":"activityNonce","inputs":[],"outputs":[{"name":"","type":"uint256","internalType":"uint256"}],"stateMutability":"view"},{"type":"function","name":"claim","inputs":[],"outputs":[{"name":"claimed","type":"uint256","internalType":"uint256"}],"stateMutability":"nonpayable"},{"type":"function","name":"collector","inputs":[],"outputs":[{"name":"","type":"address","internalType":"address"}],"stateMutability":"view"},{"type":"function","name":"drain","inputs":[],"outputs":[{"name":"balance","type":"uint256","internalType":"uint256"}],"stateMutability":"nonpayable"},{"type":"function","name":"increaseInitialActivity","inputs":[],"outputs":[],"stateMutability":"nonpayable"},{"type":"function","name":"initialize","inputs":[{"name":"_multisig","type":"address","internalType":"address"},{"name":"_stakingProxy","type":"address","internalType":"address"},{"name":"_serviceId","type":"uint256","internalType":"uint256"}],"outputs":[],"stateMutability":"nonpayable"},{"type":"function","name":"multiSend","inputs":[],"outputs":[{"name":"","type":"address","internalType":"address"}],"stateMutability":"view"},{"type":"function","name":"multisig","inputs":[],"outputs":[{"name":"","type":"address","internalType":"address"}],"stateMutability":"view"},{"type":"function","name":"olas","inputs":[],"outputs":[{"name":"","type":"address","internalType":"address"}],"stateMutability":"view"},{"type":"function","name":"serviceId","inputs":[],"outputs":[{"name":"","type":"uint256","internalType":"uint256"}],"stateMutability":"view"},{"type":"function","name":"stakingManager","inputs":[],"outputs":[{"name":"","type":"address","internalType":"address"}],"stateMutability":"view"},{"type":"function","name":"stakingProxy","inputs":[],"outputs":[{"name":"","type":"address","internalType":"address"}],"stateMutability":"view"},{"type":"event","name":"ActivityIncreased","inputs":[{"name":"activityChange","type":"uint256","indexed":false,"internalType":"uint256"}],"anonymous":false},{"type":"event","name":"Drained","inputs":[{"name":"balance","type":"uint256","indexed":false,"internalType":"uint256"}],"anonymous":false},{"type":"error","name":"AlreadyInitialized","inputs":[]},{"type":"error","name":"ExecutionFailed","inputs":[{"name":"target","type":"address","internalType":"address"},{"name":"payload","type":"bytes","internalType":"bytes"}]},{"type":"error","name":"ManagerOnly","inputs":[{"name":"sender","type":"address","internalType":"address"},{"name":"manager","type":"address","internalType":"address"}]},{"type":"error","name":"ReentrancyGuard","inputs":[]},{"type":"error","name":"ZeroAddress","inputs":[]},{"type":"error","name":"ZeroValue","inputs":[]}],"bytecode":{"object":"0x60e0346100a957601f61134238819003918201601f19168301916001600160401b038311848410176100ad578084926060946040528339810103126100a957610047816100c1565b906100606040610059602084016100c1565b92016100c1565b9160805260a05260c05260405161126c90816100d68239608051818181610c540152610d95015260a05181818161042a0152610e42015260c0518181816101cf01526110a20152f35b5f80fd5b634e487b7160e01b5f52604160045260245ffd5b51906001600160a01b03821682036100a95756fe6080806040526004361015610012575f80fd5b5f905f3560e01c90816231d11514610c0c575080631794bb3c146106d357806322828cc21461068157806322f80d111461062f57806324d5fba0146105f45780634783c35b146105a25780634e71d92d1461048857806371024fd41461044e578063913e77ad146103df5780639890220b14610312578063a72c1e7e14610288578063cab34c081461022f578063da20ec6a146101f3578063e49cda08146101845763ffa1ad74146100c2575f80fd5b3461018157807ffffffffffffffffffffffffffffffffffffffffffffffffffffffffffffffffc360112610181576040516040810181811067ffffffffffffffff821117610154576101509250604052600581527f302e312e300000000000000000000000000000000000000000000000000000006020820152604051918291602083526020830190610ce6565b0390f35b6024837f4e487b710000000000000000000000000000000000000000000000000000000081526041600452fd5b80fd5b503461018157807ffffffffffffffffffffffffffffffffffffffffffffffffffffffffffffffffc36011261018157602060405173ffffffffffffffffffffffffffffffffffffffff7f0000000000000000000000000000000000000000000000000000000000000000168152f35b503461018157807ffffffffffffffffffffffffffffffffffffffffffffffffffffffffffffffffc360112610181576020600154604051908152f35b503461018157807ffffffffffffffffffffffffffffffffffffffffffffffffffffffffffffffffc3601126101815760206040517f0b9821ae606ebc7c79bf3390bdd3dc93e1b4a7cda27aad60646e7b88ff55b0018152f35b503461018157807ffffffffffffffffffffffffffffffffffffffffffffffffffffffffffffffffc3601126101815773ffffffffffffffffffffffffffffffffffffffff600454168033036102e357506102e06111cd565b80f35b7f625a43fe00000000000000000000000000000000000000000000000000000000825233600452602452604490fd5b503461018157807ffffffffffffffffffffffffffffffffffffffffffffffffffffffffffffffffc360112610181576001600554116103b757600260055573ffffffffffffffffffffffffffffffffffffffff600454169081330361038857602061037b610d93565b6001600555604051908152f35b6044917f625a43fe00000000000000000000000000000000000000000000000000000000825233600452602452fd5b807f8beb9d160000000000000000000000000000000000000000000000000000000060049252fd5b503461018157807ffffffffffffffffffffffffffffffffffffffffffffffffffffffffffffffffc36011261018157602060405173ffffffffffffffffffffffffffffffffffffffff7f0000000000000000000000000000000000000000000000000000000000000000168152f35b503461018157807ffffffffffffffffffffffffffffffffffffffffffffffffffffffffffffffffc36011261018157602060405160018152f35b503461018157807ffffffffffffffffffffffffffffffffffffffffffffffffffffffffffffffffc360112610181576001600554116103b7576002600555600480546003546001546040517faad3ec9600000000000000000000000000000000000000000000000000000000815273ffffffffffffffffffffffffffffffffffffffff928316948101949094526024840152919291602091849160449183918691165af19081156105965750610563575b506020610544610d93565b80610556576001600555604051908152f35b61055e6111cd565b61037b565b6020813d60201161058e575b8161057c60209383610c78565b8101031261058a5751610539565b5f80fd5b3d915061056f565b604051903d90823e3d90fd5b503461018157807ffffffffffffffffffffffffffffffffffffffffffffffffffffffffffffffffc36011261018157602073ffffffffffffffffffffffffffffffffffffffff60025416604051908152f35b503461018157807ffffffffffffffffffffffffffffffffffffffffffffffffffffffffffffffffc3601126101815760209054604051908152f35b503461018157807ffffffffffffffffffffffffffffffffffffffffffffffffffffffffffffffffc36011261018157602073ffffffffffffffffffffffffffffffffffffffff60035416604051908152f35b503461018157807ffffffffffffffffffffffffffffffffffffffffffffffffffffffffffffffffc36011261018157602073ffffffffffffffffffffffffffffffffffffffff60045416604051908152f35b503461058a5760607ffffffffffffffffffffffffffffffffffffffffffffffffffffffffffffffffc36011261058a5760043573ffffffffffffffffffffffffffffffffffffffff811680910361058a5760243573ffffffffffffffffffffffffffffffffffffffff811680910361058a5760443590600160055411610be457600260055560025473ffffffffffffffffffffffffffffffffffffffff8116610b325783158015610bdc575b610bb4578215610b8c577fffffffffffffffffffffffff0000000000000000000000000000000000000000849116176002557fffffffffffffffffffffffff00000000000000000000000000000000000000006003541617600355337fffffffffffffffffffffffff00000000000000000000000000000000000000006004541617600455600155604051903060208301525f60408301527f010000000000000000000000000000000000000000000000000000000000000060608301526041825261084c606183610c78565b5f6020604051927f610b592500000000000000000000000000000000000000000000000000000000828501523060248501526024845261088d604485610c78565b6004604051809481937faffed0e00000000000000000000000000000000000000000000000000000000083525af1908115610af5575f91610b5a575b5080610b325773ffffffffffffffffffffffffffffffffffffffff600254169060206040518080937fd8d11f780000000000000000000000000000000000000000000000000000000082528560048301525f60248301526101406044830152610936610144830188610ce6565b905f60648401525f60848401525f60a48401525f60c48401525f60e48401525f6101048401526101248301520381855afa908115610af5575f91610b00575b50813b1561058a575f916024839260405194859384927fd4d9bdcd00000000000000000000000000000000000000000000000000000000845260048401525af18015610af557610ad8575b50610a8891602091610a328573ffffffffffffffffffffffffffffffffffffffff6002541692604051968795869485937f6a7612020000000000000000000000000000000000000000000000000000000085528760048601528560248601526101406044860152610144850190610ce6565b908460648501528460848501528460a48501528460c48501528460e4850152846101048501527ffffffffffffffffffffffffffffffffffffffffffffffffffffffffffffffffc84830301610124850152610ce6565b03925af18015610acd57610aa0575b50600160055580f35b610ac19060203d602011610ac6575b610ab98183610c78565b810190610d29565b610a97565b503d610aaf565b6040513d84823e3d90fd5b602091935091610aeb5f610a8894610c78565b5f939150916109c0565b6040513d5f823e3d90fd5b90506020813d602011610b2a575b81610b1b60209383610c78565b8101031261058a57515f610975565b3d9150610b0e565b7f0dc149f0000000000000000000000000000000000000000000000000000000005f5260045ffd5b90506020813d602011610b84575b81610b7560209383610c78565b8101031261058a57515f6108c9565b3d9150610b68565b7f7c946ed7000000000000000000000000000000000000000000000000000000005f5260045ffd5b7fd92e233d000000000000000000000000000000000000000000000000000000005f5260045ffd5b50811561077f565b7f8beb9d16000000000000000000000000000000000000000000000000000000005f5260045ffd5b3461058a575f7ffffffffffffffffffffffffffffffffffffffffffffffffffffffffffffffffc36011261058a5760209073ffffffffffffffffffffffffffffffffffffffff7f0000000000000000000000000000000000000000000000000000000000000000168152f35b90601f7fffffffffffffffffffffffffffffffffffffffffffffffffffffffffffffffe0910116810190811067ffffffffffffffff821117610cb957604052565b7f4e487b71000000000000000000000000000000000000000000000000000000005f52604160045260245ffd5b907fffffffffffffffffffffffffffffffffffffffffffffffffffffffffffffffe0601f602080948051918291828752018686015e5f8582860101520116010190565b9081602091031261058a5751801515810361058a5790565b90926020927fffffffffffffffffffffffffffffffffffffffff0000000000000000000000006055955f855260601b1660018401525f601584015260358301528051928391018483015e01015f815290565b7f00000000000000000000000000000000000000000000000000000000000000009073ffffffffffffffffffffffffffffffffffffffff6002541691604051907f70a0823100000000000000000000000000000000000000000000000000000000825283600483015260208260248173ffffffffffffffffffffffffffffffffffffffff85165afa918215610af5575f92611199575b50819382610e3657505050565b61106261103692610ff97f00000000000000000000000000000000000000000000000000000000000000006020604051917f095ea7b30000000000000000000000000000000000000000000000000000000082840152610eed83610ec18b84602484016020909392919373ffffffffffffffffffffffffffffffffffffffff60408201951681520152565b037fffffffffffffffffffffffffffffffffffffffffffffffffffffffffffffffe08101855284610c78565b610f058351610ec1604051958692868401998a610d41565b6040517f0d23194500000000000000000000000000000000000000000000000000000000838201528960248201527f0b9821ae606ebc7c79bf3390bdd3dc93e1b4a7cda27aad60646e7b88ff55b001604482015260448152610f68606482610c78565b610fac8151610f806040519384928784019687610d41565b037fffffffffffffffffffffffffffffffffffffffffffffffffffffffffffffffe08101835282610c78565b6040519586945180918587015e840190838201905f8252519283915e01015f8152037fffffffffffffffffffffffffffffffffffffffffffffffffffffffffffffffe08101835282610c78565b6040519384917f8d80ff0a000000000000000000000000000000000000000000000000000000006020840152602060248401526044830190610ce6565b037fffffffffffffffffffffffffffffffffffffffffffffffffffffffffffffffe08101845283610c78565b6040517f468721a700000000000000000000000000000000000000000000000000000000815260208173ffffffffffffffffffffffffffffffffffffffff7f000000000000000000000000000000000000000000000000000000000000000016938460048301525f602483015260806044830152815f816110e6608482018a610ce6565b6001606483015203925af1908115610af5575f9161117a575b501561113457505060207fdef931299fe61d176f949118058530c1f3f539dcb6950b4e372c9b835c33ca0791604051908152a1565b6111766040519283927ffeca99cb0000000000000000000000000000000000000000000000000000000084526004840152604060248401526044830190610ce6565b0390fd5b611193915060203d602011610ac657610ab98183610c78565b5f6110ff565b9091506020813d6020116111c5575b816111b560209383610c78565b8101031261058a5751905f610e29565b3d91506111a8565b5f5460018101809111611209575f557f8cc375c702c60a37fc4221ca4f15393311f916267ab2db84abfe3e4e8a317052602060405160018152a1565b7f4e487b71000000000000000000000000000000000000000000000000000000005f52601160045260245ffdfea26469706673582212201d52265d378fda3d7e7d0fd0f53c3a90887fb5b8b7b8b2ec310a0ce8b86e088864736f6c634300081e0033","linkReferences":{}},"methodIdentifiers":{"DEFAULT_ACTIVITY()":"71024fd4","REWARD()":"cab34c08","VERSION()":"ffa1ad74","activityNonce()":"24d5fba0","claim()":"4e71d92d","collector()":"913e77ad","drain()":"9890220b","increaseInitialActivity()":"a72c1e7e","initialize(address,address,uint256)":"1794bb3c","multiSend()":"e49cda08","multisig()":"4783c35b","olas()":"0031d115","serviceId()":"da20ec6a","stakingManager()":"22828cc2","stakingProxy()":"22f80d11"},"id":19}