{"abi":[{"type":"constructor","inputs":[{"name":"_olas","type":"address","internalType":"address"},{"name":"_l1Dispenser","type":"address","internalType":"address"},{"name":"_l1TokenRelayer","type":"address","internalType":"address"},{"name":"_l1MessageRelayer","type":"address","internalType":"address"},{"name":"_olasL2","type":"address","internalType":"address"}],"stateMutability":"nonpayable"},{"type":"function","name":"BRIDGE_PAYLOAD_LENGTH","inputs":[],"outputs":[{"name":"","type":"uint256","internalType":"uint256"}],"stateMutability":"view"},{"type":"function","name":"MAX_CHAIN_ID","inputs":[],"outputs":[{"name":"","type":"uint256","internalType":"uint256"}],"stateMutability":"view"},{"type":"function","name":"MESSAGE_GAS_LIMIT","inputs":[],"outputs":[{"name":"","type":"uint256","internalType":"uint256"}],"stateMutability":"view"},{"type":"function","name":"RECEIVE_MESSAGE","inputs":[],"outputs":[{"name":"","type":"bytes4","internalType":"bytes4"}],"stateMutability":"view"},{"type":"function","name":"STAKE","inputs":[],"outputs":[{"name":"","type":"bytes32","internalType":"bytes32"}],"stateMutability":"view"},{"type":"function","name":"TOKEN_GAS_LIMIT","inputs":[],"outputs":[{"name":"","type":"uint256","internalType":"uint256"}],"stateMutability":"view"},{"type":"function","name":"getBridgingDecimals","inputs":[],"outputs":[{"name":"","type":"uint256","internalType":"uint256"}],"stateMutability":"pure"},{"type":"function","name":"l1Depository","inputs":[],"outputs":[{"name":"","type":"address","internalType":"address"}],"stateMutability":"view"},{"type":"function","name":"l1MessageRelayer","inputs":[],"outputs":[{"name":"","type":"address","internalType":"address"}],"stateMutability":"view"},{"type":"function","name":"l1TokenRelayer","inputs":[],"outputs":[{"name":"","type":"address","internalType":"address"}],"stateMutability":"view"},{"type":"function","name":"l2StakingProcessor","inputs":[],"outputs":[{"name":"","type":"address","internalType":"address"}],"stateMutability":"view"},{"type":"function","name":"messageBatchNonce","inputs":[],"outputs":[{"name":"","type":"uint256","internalType":"uint256"}],"stateMutability":"view"},{"type":"function","name":"olas","inputs":[],"outputs":[{"name":"","type":"address","internalType":"address"}],"stateMutability":"view"},{"type":"function","name":"olasL2","inputs":[],"outputs":[{"name":"","type":"address","internalType":"address"}],"stateMutability":"view"},{"type":"function","name":"owner","inputs":[],"outputs":[{"name":"","type":"address","internalType":"address"}],"stateMutability":"view"},{"type":"function","name":"processedHashes","inputs":[{"name":"","type":"bytes32","internalType":"bytes32"}],"outputs":[{"name":"","type":"bool","internalType":"bool"}],"stateMutability":"view"},{"type":"function","name":"sendMessage","inputs":[{"name":"target","type":"address","internalType":"address"},{"name":"amount","type":"uint256","internalType":"uint256"},{"name":"bridgePayload","type":"bytes","internalType":"bytes"},{"name":"operation","type":"bytes32","internalType":"bytes32"},{"name":"sender","type":"address","internalType":"address"}],"outputs":[],"stateMutability":"payable"},{"type":"function","name":"setL2StakingProcessor","inputs":[{"name":"l2Processor","type":"address","internalType":"address"}],"outputs":[],"stateMutability":"nonpayable"},{"type":"function","name":"updateHashMaintenance","inputs":[{"name":"batchHash","type":"bytes32","internalType":"bytes32"}],"outputs":[],"stateMutability":"nonpayable"},{"type":"event","name":"L2StakerUpdated","inputs":[{"name":"l2StakingProcessor","type":"address","indexed":true,"internalType":"address"}],"anonymous":false},{"type":"event","name":"LeftoversRefunded","inputs":[{"name":"sender","type":"address","indexed":true,"internalType":"address"},{"name":"leftovers","type":"uint256","indexed":false,"internalType":"uint256"},{"name":"success","type":"bool","indexed":false,"internalType":"bool"}],"anonymous":false},{"type":"event","name":"MessagePosted","inputs":[{"name":"sequence","type":"uint256","indexed":true,"internalType":"uint256"},{"name":"target","type":"address","indexed":true,"internalType":"address"},{"name":"amount","type":"uint256","indexed":false,"internalType":"uint256"},{"name":"batchHash","type":"bytes32","indexed":true,"internalType":"bytes32"}],"anonymous":false},{"type":"error","name":"AlreadyDelivered","inputs":[{"name":"deliveryHash","type":"bytes32","internalType":"bytes32"}]},{"type":"error","name":"IncorrectDataLength","inputs":[{"name":"expected","type":"uint256","internalType":"uint256"},{"name":"provided","type":"uint256","internalType":"uint256"}]},{"type":"error","name":"InsufficientBalance","inputs":[{"name":"provided","type":"uint256","internalType":"uint256"},{"name":"expected","type":"uint256","internalType":"uint256"}]},{"type":"error","name":"LowerThan","inputs":[{"name":"provided","type":"uint256","internalType":"uint256"},{"name":"expected","type":"uint256","internalType":"uint256"}]},{"type":"error","name":"ManagerOnly","inputs":[{"name":"sender","type":"address","internalType":"address"},{"name":"manager","type":"address","internalType":"address"}]},{"type":"error","name":"OperationNotFound","inputs":[{"name":"batchHash","type":"bytes32","internalType":"bytes32"},{"name":"operation","type":"bytes32","internalType":"bytes32"}]},{"type":"error","name":"Overflow","inputs":[{"name":"provided","type":"uint256","internalType":"uint256"},{"name":"max","type":"uint256","internalType":"uint256"}]},{"type":"error","name":"OwnerOnly","inputs":[{"name":"sender","type":"address","internalType":"address"},{"name":"owner","type":"address","internalType":"address"}]},{"type":"error","name":"Paused","inputs":[]},{"type":"error","name":"ReentrancyGuard","inputs":[]},{"type":"error","name":"RequestFailed","inputs":[{"name":"batchHash","type":"bytes32","internalType":"bytes32"},{"name":"target","type":"address","internalType":"address"},{"name":"amount","type":"uint256","internalType":"uint256"},{"name":"operation","type":"bytes32","internalType":"bytes32"},{"name":"status","type":"uint256","internalType":"uint256"}]},{"type":"error","name":"RequestNotQueued","inputs":[{"name":"target","type":"address","internalType":"address"},{"name":"amount","type":"uint256","internalType":"uint256"},{"name":"batchHash","type":"bytes32","internalType":"bytes32"},{"name":"operation","type":"bytes32","internalType":"bytes32"}]},{"type":"error","name":"TargetRelayerOnly","inputs":[{"name":"provided","type":"address","internalType":"address"},{"name":"expected","type":"address","internalType":"address"}]},{"type":"error","name":"TransferFailed","inputs":[{"name":"token","type":"address","internalType":"address"},{"name":"from","type":"address","internalType":"address"},{"name":"to","type":"address","internalType":"address"},{"name":"amount","type":"uint256","internalType":"uint256"}]},{"type":"error","name":"Unpaused","inputs":[]},{"type":"error","name":"WrongAccount","inputs":[{"name":"account","type":"address","internalType":"address"}]},{"type":"error","name":"WrongAmount","inputs":[{"name":"provided","type":"uint256","internalType":"uint256"},{"name":"expected","type":"uint256","internalType":"uint256"}]},{"type":"error","name":"WrongChainId","inputs":[{"name":"provided","type":"uint256","internalType":"uint256"},{"name":"expected","type":"uint256","internalType":"uint256"}]},{"type":"error","name":"WrongMessageSender","inputs":[{"name":"provided","type":"address","internalType":"address"},{"name":"expected","type":"address","internalType":"address"}]},{"type":"error","name":"WrongTokenAddress","inputs":[{"name":"provided","type":"address","internalType":"address"},{"name":"expected","type":"address","internalType":"address"}]},{"type":"error","name":"ZeroAddress","inputs":[]},{"type":"error","name":"ZeroValue","inputs":[]}],"bytecode":{"object":"0x6101203461016157601f6111e338819003918201601f19168301916001600160401b038311848410176101655780849260a0946040528339810103126101615761004881610179565b9061005560208201610179565b61006160408301610179565b9061007a608061007360608601610179565b9401610179565b936001600160a01b038216158015610150575b801561013f575b6101305760805260a05260c05260e052600180546001600160a01b031916331790556001600160a01b038116156101305761010052604051611055908161018e8239608051818181610bcf0152610e8e015260a05181818161017601528181610337015261087f015260c05181818161056d0152610c2d015260e05181818161073101526109da0152610100518181816102c80152610cdb0152f35b63d92e233d60e01b5f5260045ffd5b506001600160a01b03841615610094565b506001600160a01b0383161561008d565b5f80fd5b634e487b7160e01b5f52604160045260245ffd5b51906001600160a01b03821682036101615756fe6080806040526004361015610012575f80fd5b5f905f3560e01c90816231d11514610e465750806307d9c53414610df95780630f7b1244146107ae578063125fdbbc146107555780633d1f8679146106e65780634b81b4ea146106aa5780634c1c6cbf1461066e5780634ece6b171461063557806354d20cc2146105d25780635bc105c0146105915780636143fe931461052257806375357651146103fe578063757530bc146103ad5780638da5cb5b1461035b578063973a8959146102ec578063a0726ffa1461027d578063a8b2ae0214610243578063ac65ded21461012c5763f9fc3c21146100ee575f80fd5b3461012957807ffffffffffffffffffffffffffffffffffffffffffffffffffffffffffffffffc360112610129576020604051621e84808152f35b80fd5b50346101295760207ffffffffffffffffffffffffffffffffffffffffffffffffffffffffffffffffc3601126101295760043573ffffffffffffffffffffffffffffffffffffffff7f0000000000000000000000000000000000000000000000000000000000000000168033036102145750808252600360205260ff6040832054166101e957815260036020526040812060017fffffffffffffffffffffffffffffffffffffffffffffffffffffffffffffff0082541617905580f35b7f56bc34a1000000000000000000000000000000000000000000000000000000008252600452602490fd5b7f625a43fe00000000000000000000000000000000000000000000000000000000835260045233602452604482fd5b503461012957807ffffffffffffffffffffffffffffffffffffffffffffffffffffffffffffffffc36011261012957602060405160128152f35b503461012957807ffffffffffffffffffffffffffffffffffffffffffffffffffffffffffffffffc36011261012957602060405173ffffffffffffffffffffffffffffffffffffffff7f0000000000000000000000000000000000000000000000000000000000000000168152f35b503461012957807ffffffffffffffffffffffffffffffffffffffffffffffffffffffffffffffffc36011261012957602060405173ffffffffffffffffffffffffffffffffffffffff7f0000000000000000000000000000000000000000000000000000000000000000168152f35b503461012957807ffffffffffffffffffffffffffffffffffffffffffffffffffffffffffffffffc36011261012957602073ffffffffffffffffffffffffffffffffffffffff60015416604051908152f35b503461012957807ffffffffffffffffffffffffffffffffffffffffffffffffffffffffffffffffc3601126101295773ffffffffffffffffffffffffffffffffffffffff6020915416604051908152f35b50346101295760207ffffffffffffffffffffffffffffffffffffffffffffffffffffffffffffffffc36011261012957610436610eb2565b6001549073ffffffffffffffffffffffffffffffffffffffff82168033036104f3575073ffffffffffffffffffffffffffffffffffffffff169081156104cb577fffffffffffffffffffffffff0000000000000000000000000000000000000000908282855416178455166001557f10410fc55005e0d78e3c1fec4f7fbb5a98c494d2f0e570bc4b893233ec88642c8280a280f35b6004837fd92e233d000000000000000000000000000000000000000000000000000000008152fd5b7fa43d6ada00000000000000000000000000000000000000000000000000000000845260045233602452604483fd5b503461012957807ffffffffffffffffffffffffffffffffffffffffffffffffffffffffffffffffc36011261012957602060405173ffffffffffffffffffffffffffffffffffffffff7f0000000000000000000000000000000000000000000000000000000000000000168152f35b503461012957807ffffffffffffffffffffffffffffffffffffffffffffffffffffffffffffffffc360112610129576020604051677fffffffffffffdb8152f35b503461012957807ffffffffffffffffffffffffffffffffffffffffffffffffffffffffffffffffc36011261012957602061060b610f7d565b7fffffffff0000000000000000000000000000000000000000000000000000000060405191168152f35b503461012957807ffffffffffffffffffffffffffffffffffffffffffffffffffffffffffffffffc360112610129576020604051818152f35b503461012957807ffffffffffffffffffffffffffffffffffffffffffffffffffffffffffffffffc360112610129576020604051620493e08152f35b503461012957807ffffffffffffffffffffffffffffffffffffffffffffffffffffffffffffffffc360112610129576020600254604051908152f35b503461012957807ffffffffffffffffffffffffffffffffffffffffffffffffffffffffffffffffc36011261012957602060405173ffffffffffffffffffffffffffffffffffffffff7f0000000000000000000000000000000000000000000000000000000000000000168152f35b503461012957807ffffffffffffffffffffffffffffffffffffffffffffffffffffffffffffffffc3601126101295760206040517f1bcc0f4c3fad314e585165815f94ecca9b96690a26d6417d7876448a9a867a698152f35b5060a07ffffffffffffffffffffffffffffffffffffffffffffffffffffffffffffffffc360112610d5f576107e1610eb2565b60443560243567ffffffffffffffff8211610d5f5736602383011215610d5f5781600401359161081083610f43565b9261081e6040519485610ed5565b80845260208401913660248383010111610d5f57815f92602460209301853785010152606435926084359073ffffffffffffffffffffffffffffffffffffffff821691828103610d5f5773ffffffffffffffffffffffffffffffffffffffff7f000000000000000000000000000000000000000000000000000000000000000016803303610dca57507f1bcc0f4c3fad314e585165815f94ecca9b96690a26d6417d7876448a9a867a698614968780610dc2575b610d9a5788926002549560405160208101908882523060408201524260608201524660808201526080815261090860a082610ed5565b51902099610bb3575b8491805160208114610b99575b505050621e84808110610b8f575b6109c3610937610f7d565b73ffffffffffffffffffffffffffffffffffffffff6040519416998a60208601528960408601528b606086015260808501526080845261097860a085610ed5565b6109976040519485926020840152602060248401526044830190610fdc565b037fffffffffffffffffffffffffffffffffffffffffffffffffffffffffffffffe08101845283610ed5565b73ffffffffffffffffffffffffffffffffffffffff7f00000000000000000000000000000000000000000000000000000000000000001673ffffffffffffffffffffffffffffffffffffffff85541690803b15610b8b5763ffffffff9386610a6a938195604051978896879586947f3dbb202b0000000000000000000000000000000000000000000000000000000086526004860152606060248601526064850190610fdc565b9116604483015203925af1908115610b80578391610b67575b505034610af9575b50505060018101809111610acc57602084927f1ff6d173c1ebeb42f666a09b94f554cf43eadf8054fda3247f56c343baab28f792600255604051908152a480f35b6024857f4e487b710000000000000000000000000000000000000000000000000000000081526011600452fd5b8180807f9a5f50c08e333c7f7f5d319ba80c660b5422e940c611e8f1e6b72a56d49db9d29460409434905af13d15610b62573d610b3581610f43565b90610b4284519283610ed5565b81528960203d92013e5b81519034825215156020820152a25f8581610a8b565b610b4c565b81610b7191610ed5565b610b7c57815f610a83565b5080fd5b6040513d85823e3d90fd5b8580fd5b50621e848061092c565b602092935081010312610baf57515f808061091e565b8380fd5b909192935073ffffffffffffffffffffffffffffffffffffffff7f000000000000000000000000000000000000000000000000000000000000000016604051907f095ea7b300000000000000000000000000000000000000000000000000000000825273ffffffffffffffffffffffffffffffffffffffff7f000000000000000000000000000000000000000000000000000000000000000016918260048201528960248201526020816044815f865af18015610d5457610d63575b5073ffffffffffffffffffffffffffffffffffffffff5f5416823b15610d5f5760e45f928360405195869485937f838b2520000000000000000000000000000000000000000000000000000000008552600485015273ffffffffffffffffffffffffffffffffffffffff7f000000000000000000000000000000000000000000000000000000000000000016602485015260448401528d6064840152620493e0608484015260c060a48401528160c48401525af18015610d5457610d39575b509089939291610911565b610d49919493929a505f90610ed5565b5f989091925f610d2e565b6040513d5f823e3d90fd5b5f80fd5b6020813d602011610d92575b81610d7c60209383610ed5565b81010312610d5f57518015158114610c6f575f80fd5b3d9150610d6f565b7f7c946ed7000000000000000000000000000000000000000000000000000000005f5260045ffd5b5085156108d2565b7f625a43fe000000000000000000000000000000000000000000000000000000005f526004523360245260445ffd5b34610d5f5760207ffffffffffffffffffffffffffffffffffffffffffffffffffffffffffffffffc360112610d5f576004355f526003602052602060ff60405f2054166040519015158152f35b34610d5f575f7ffffffffffffffffffffffffffffffffffffffffffffffffffffffffffffffffc360112610d5f5760209073ffffffffffffffffffffffffffffffffffffffff7f0000000000000000000000000000000000000000000000000000000000000000168152f35b6004359073ffffffffffffffffffffffffffffffffffffffff82168203610d5f57565b90601f7fffffffffffffffffffffffffffffffffffffffffffffffffffffffffffffffe0910116810190811067ffffffffffffffff821117610f1657604052565b7f4e487b71000000000000000000000000000000000000000000000000000000005f52604160045260245ffd5b67ffffffffffffffff8111610f1657601f017fffffffffffffffffffffffffffffffffffffffffffffffffffffffffffffffe01660200190565b7fffffffff0000000000000000000000000000000000000000000000000000000060156020604051610fb0604082610ed5565b828152017f726563656976654d6573736167652862797465732900000000000000000000008152201690565b907fffffffffffffffffffffffffffffffffffffffffffffffffffffffffffffffe0601f602080948051918291828752018686015e5f858286010152011601019056fea26469706673582212207df0dc14cc650ef164d1694130a58e842ffa4f805a653aed4e4cdde340b6509564736f6c634300081e0033","linkReferences":{}},"methodIdentifiers":{"BRIDGE_PAYLOAD_LENGTH()":"4ece6b17","MAX_CHAIN_ID()":"5bc105c0","MESSAGE_GAS_LIMIT()":"f9fc3c21","RECEIVE_MESSAGE()":"54d20cc2","STAKE()":"125fdbbc","TOKEN_GAS_LIMIT()":"4c1c6cbf","getBridgingDecimals()":"a8b2ae02","l1Depository()":"973a8959","l1MessageRelayer()":"3d1f8679","l1TokenRelayer()":"6143fe93","l2StakingProcessor()":"757530bc","messageBatchNonce()":"4b81b4ea","olas()":"0031d115","olasL2()":"a0726ffa","owner()":"8da5cb5b","processedHashes(bytes32)":"07d9c534","sendMessage(address,uint256,bytes,bytes32,address)":"0f7b1244","setL2StakingProcessor(address)":"75357651","updateHashMaintenance(bytes32)":"ac65ded2"},"id":14}