{"abi":[{"type":"constructor","inputs":[{"name":"_implementation","type":"address","internalType":"address"}],"stateMutability":"nonpayable"},{"type":"function","name":"changeImplementation","inputs":[{"name":"newImplementation","type":"address","internalType":"address"}],"outputs":[],"stateMutability":"nonpayable"},{"type":"function","name":"changeOwner","inputs":[{"name":"newOwner","type":"address","internalType":"address"}],"outputs":[],"stateMutability":"nonpayable"},{"type":"function","name":"implementation","inputs":[],"outputs":[{"name":"","type":"address","internalType":"address"}],"stateMutability":"view"},{"type":"function","name":"owner","inputs":[],"outputs":[{"name":"","type":"address","internalType":"address"}],"stateMutability":"view"},{"type":"event","name":"ImplementationUpdated","inputs":[{"name":"implementation","type":"address","indexed":true,"internalType":"address"}],"anonymous":false},{"type":"event","name":"OwnerUpdated","inputs":[{"name":"owner","type":"address","indexed":true,"internalType":"address"}],"anonymous":false},{"type":"error","name":"OwnerOnly","inputs":[{"name":"sender","type":"address","internalType":"address"},{"name":"owner","type":"address","internalType":"address"}]},{"type":"error","name":"ZeroAddress","inputs":[]}],"bytecode":{"object":"0x608034609057601f6103aa38819003918201601f19168301916001600160401b03831184841017609457808492602094604052833981010312609057516001600160a01b0381169081900360905780156081575f80546001600160a01b0319908116929092179055600180549091163317905560405161030190816100a98239f35b63d92e233d60e01b5f5260045ffd5b5f80fd5b634e487b7160e01b5f52604160045260245ffdfe60806040526004361015610011575f80fd5b5f3560e01c806317a68dd8146102065780635c60da1b146101b65780638da5cb5b146101655763a6f9dae114610045575f80fd5b346101615760207ffffffffffffffffffffffffffffffffffffffffffffffffffffffffffffffffc3601126101615760043573ffffffffffffffffffffffffffffffffffffffff81168091036101615760015473ffffffffffffffffffffffffffffffffffffffff81168033036101325750811561010a577fffffffffffffffffffffffff00000000000000000000000000000000000000001681176001557f4ffd725fc4a22075e9ec71c59edf9c38cdeb588a91b24fc5b61388c5be41282b5f80a2005b7fd92e233d000000000000000000000000000000000000000000000000000000005f5260045ffd5b7fa43d6ada000000000000000000000000000000000000000000000000000000005f523360045260245260445ffd5b5f80fd5b34610161575f7ffffffffffffffffffffffffffffffffffffffffffffffffffffffffffffffffc36011261016157602073ffffffffffffffffffffffffffffffffffffffff60015416604051908152f35b34610161575f7ffffffffffffffffffffffffffffffffffffffffffffffffffffffffffffffffc36011261016157602073ffffffffffffffffffffffffffffffffffffffff5f5416604051908152f35b346101615760207ffffffffffffffffffffffffffffffffffffffffffffffffffffffffffffffffc3601126101615760043573ffffffffffffffffffffffffffffffffffffffff81168091036101615773ffffffffffffffffffffffffffffffffffffffff600154168033036101325750801561010a57807fffffffffffffffffffffffff00000000000000000000000000000000000000005f5416175f557f310ba5f1d2ed074b51e2eccd052a47ae9ab7c6b800d1fca3db3999d6a592ca035f80a200fea26469706673582212205dbd3d960eeee3d0a7d06b61abc2d2d92d0485d2b39fab5bd1fb52bd3ab0c35264736f6c634300081e0033","linkReferences":{}},"methodIdentifiers":{"changeImplementation(address)":"17a68dd8","changeOwner(address)":"a6f9dae1","implementation()":"5c60da1b","owner()":"8da5cb5b"},"id":0}