{"abi":[{"type":"constructor","inputs":[{"name":"_olas","type":"address","internalType":"address"}],"stateMutability":"nonpayable"},{"type":"function","name":"MAX_PROTOCOL_FACTOR","inputs":[],"outputs":[{"name":"","type":"uint256","internalType":"uint256"}],"stateMutability":"view"},{"type":"function","name":"MIN_OLAS_BALANCE","inputs":[],"outputs":[{"name":"","type":"uint256","internalType":"uint256"}],"stateMutability":"view"},{"type":"function","name":"PROXY_SLOT","inputs":[],"outputs":[{"name":"","type":"bytes32","internalType":"bytes32"}],"stateMutability":"view"},{"type":"function","name":"REWARD","inputs":[],"outputs":[{"name":"","type":"bytes32","internalType":"bytes32"}],"stateMutability":"view"},{"type":"function","name":"changeImplementation","inputs":[{"name":"newImplementation","type":"address","internalType":"address"}],"outputs":[],"stateMutability":"nonpayable"},{"type":"function","name":"changeOwner","inputs":[{"name":"newOwner","type":"address","internalType":"address"}],"outputs":[],"stateMutability":"nonpayable"},{"type":"function","name":"changeProtocolFactor","inputs":[{"name":"newProtocolFactor","type":"uint256","internalType":"uint256"}],"outputs":[],"stateMutability":"nonpayable"},{"type":"function","name":"changeStakingManager","inputs":[{"name":"newStakingManager","type":"address","internalType":"address"}],"outputs":[],"stateMutability":"nonpayable"},{"type":"function","name":"changeStakingProcessorL2","inputs":[{"name":"newStakingProcessorL2","type":"address","internalType":"address"}],"outputs":[],"stateMutability":"nonpayable"},{"type":"function","name":"fundExternal","inputs":[{"name":"account","type":"address","internalType":"address"},{"name":"amount","type":"uint256","internalType":"uint256"}],"outputs":[],"stateMutability":"nonpayable"},{"type":"function","name":"initialize","inputs":[],"outputs":[],"stateMutability":"nonpayable"},{"type":"function","name":"l2StakingProcessor","inputs":[],"outputs":[{"name":"","type":"address","internalType":"address"}],"stateMutability":"view"},{"type":"function","name":"mapOperationReceiverBalances","inputs":[{"name":"","type":"bytes32","internalType":"bytes32"}],"outputs":[{"name":"balance","type":"uint256","internalType":"uint256"},{"name":"receiver","type":"address","internalType":"address"}],"stateMutability":"view"},{"type":"function","name":"mapStakingProxyUnstakeReserves","inputs":[{"name":"","type":"address","internalType":"address"}],"outputs":[{"name":"","type":"uint256","internalType":"uint256"}],"stateMutability":"view"},{"type":"function","name":"olas","inputs":[],"outputs":[{"name":"","type":"address","internalType":"address"}],"stateMutability":"view"},{"type":"function","name":"owner","inputs":[],"outputs":[{"name":"","type":"address","internalType":"address"}],"stateMutability":"view"},{"type":"function","name":"protocolBalance","inputs":[],"outputs":[{"name":"","type":"uint256","internalType":"uint256"}],"stateMutability":"view"},{"type":"function","name":"protocolFactor","inputs":[],"outputs":[{"name":"","type":"uint256","internalType":"uint256"}],"stateMutability":"view"},{"type":"function","name":"rebalanceFromUnstakeReserve","inputs":[{"name":"stakingProxy","type":"address","internalType":"address"},{"name":"amount","type":"uint256","internalType":"uint256"},{"name":"operation","type":"bytes32","internalType":"bytes32"}],"outputs":[],"stateMutability":"nonpayable"},{"type":"function","name":"relayTokens","inputs":[{"name":"operation","type":"bytes32","internalType":"bytes32"},{"name":"bridgePayload","type":"bytes","internalType":"bytes"}],"outputs":[],"stateMutability":"payable"},{"type":"function","name":"setOperationReceivers","inputs":[{"name":"operations","type":"bytes32[]","internalType":"bytes32[]"},{"name":"receivers","type":"address[]","internalType":"address[]"}],"outputs":[],"stateMutability":"nonpayable"},{"type":"function","name":"stakingManager","inputs":[],"outputs":[{"name":"","type":"address","internalType":"address"}],"stateMutability":"view"},{"type":"function","name":"topUpBalance","inputs":[{"name":"amount","type":"uint256","internalType":"uint256"},{"name":"operation","type":"bytes32","internalType":"bytes32"}],"outputs":[],"stateMutability":"nonpayable"},{"type":"function","name":"topUpUnstakeReserve","inputs":[{"name":"stakingProxy","type":"address","internalType":"address"},{"name":"amount","type":"uint256","internalType":"uint256"}],"outputs":[],"stateMutability":"nonpayable"},{"type":"event","name":"ImplementationUpdated","inputs":[{"name":"implementation","type":"address","indexed":true,"internalType":"address"}],"anonymous":false},{"type":"event","name":"OperationReceiverBalancesUpdated","inputs":[{"name":"operation","type":"bytes32","indexed":true,"internalType":"bytes32"},{"name":"receiver","type":"address","indexed":true,"internalType":"address"},{"name":"balance","type":"uint256","indexed":false,"internalType":"uint256"}],"anonymous":false},{"type":"event","name":"OperationReceiversSet","inputs":[{"name":"operations","type":"bytes32[]","indexed":false,"internalType":"bytes32[]"},{"name":"receivers","type":"address[]","indexed":false,"internalType":"address[]"}],"anonymous":false},{"type":"event","name":"OwnerUpdated","inputs":[{"name":"owner","type":"address","indexed":true,"internalType":"address"}],"anonymous":false},{"type":"event","name":"ProtocolBalanceUpdated","inputs":[{"name":"protocolBalance","type":"uint256","indexed":false,"internalType":"uint256"}],"anonymous":false},{"type":"event","name":"ProtocolFactorUpdated","inputs":[{"name":"protocolFactor","type":"uint256","indexed":false,"internalType":"uint256"}],"anonymous":false},{"type":"event","name":"StakingManagerUpdated","inputs":[{"name":"stakingManager","type":"address","indexed":true,"internalType":"address"}],"anonymous":false},{"type":"event","name":"StakingProcessorUpdated","inputs":[{"name":"stakingProcessorL2","type":"address","indexed":true,"internalType":"address"}],"anonymous":false},{"type":"event","name":"StakingProxyUnstakeReserveUpdated","inputs":[{"name":"sender","type":"address","indexed":true,"internalType":"address"},{"name":"stakingProxy","type":"address","indexed":true,"internalType":"address"},{"name":"amount","type":"uint256","indexed":false,"internalType":"uint256"}],"anonymous":false},{"type":"event","name":"TokensRelayed","inputs":[{"name":"l1Distributor","type":"address","indexed":true,"internalType":"address"},{"name":"amount","type":"uint256","indexed":false,"internalType":"uint256"}],"anonymous":false},{"type":"error","name":"AlreadyInitialized","inputs":[]},{"type":"error","name":"Overflow","inputs":[{"name":"provided","type":"uint256","internalType":"uint256"},{"name":"max","type":"uint256","internalType":"uint256"}]},{"type":"error","name":"OwnerOnly","inputs":[{"name":"sender","type":"address","internalType":"address"},{"name":"owner","type":"address","internalType":"address"}]},{"type":"error","name":"ReentrancyGuard","inputs":[]},{"type":"error","name":"WrongAccount","inputs":[{"name":"sender","type":"address","internalType":"address"}]},{"type":"error","name":"WrongArrayLength","inputs":[]},{"type":"error","name":"ZeroAddress","inputs":[]},{"type":"error","name":"ZeroValue","inputs":[]}],"bytecode":{"object":"0x60a03461008b57601f61190c38819003918201601f19168301916001600160401b0383118484101761008f5780849260209460405283398101031261008b57516001600160a01b038116810361008b57600160055560805260405161186890816100a482396080518181816104f001528181610b8601528181610f0a01528181611638015261171f0152f35b5f80fd5b634e487b7160e01b5f52604160045260245ffdfe6080806040526004361015610012575f80fd5b5f905f3560e01c90816231d115146116d7575080630d2319451461158257806317a68dd8146114c55780631ff621991461144357806322828cc2146113f25780633fae5b2c1461132f5780635ae5f4071461104357806361e98db814611008578063757530bc14610fb757806378667fb514610e0f5780638129fc1c14610d745780638672d37814610d395780638da5cb5b14610ce9578063970078cb14610c82578063a393aa3e14610ada578063a6f9dae1146109e8578063a9fc9d16146109ae578063aa3d10df14610956578063aeed157b14610916578063c09a5049146108b3578063cab34c081461085b578063e92c8a5b14610768578063efb3d544146103215763fc6f112514610125575f80fd5b3461031e5760607ffffffffffffffffffffffffffffffffffffffffffffffffffffffffffffffffc36011261031e5761015c611743565b60243590604435906002600554146102f657600260055573ffffffffffffffffffffffffffffffffffffffff6003541633036102ca5773ffffffffffffffffffffffffffffffffffffffff168084526007602052604084205480841161029a57836101c691611825565b9080855260076020528160408620558285526006602052604085209173ffffffffffffffffffffffffffffffffffffffff600184015416948515610272579183916102356020947fbf340b6d074bc556a8a0216be4d9df34ebe40920584b1bef2c6904e908076fde96546117d7565b8093556040519081527f274d7f966af6573008a70c506b6f03f0eb7dd98dae23b6c8490fc47c50ab16fa843392a3604051908152a3600160055580f35b6004877fd92e233d000000000000000000000000000000000000000000000000000000008152fd5b84604491857f7ae59685000000000000000000000000000000000000000000000000000000008352600452602452fd5b6024847f38e04bf200000000000000000000000000000000000000000000000000000000815233600452fd5b6004847f8beb9d16000000000000000000000000000000000000000000000000000000008152fd5b80fd5b5060407ffffffffffffffffffffffffffffffffffffffffffffffffffffffffffffffffc3601126105f55760243560043567ffffffffffffffff82116105f557366023830112156105f557816004013567ffffffffffffffff811161073b57604051906103b660207fffffffffffffffffffffffffffffffffffffffffffffffffffffffffffffffe0601f8401160183611766565b808252602082019336602483830101116105f557815f92602460209301873783010152600260055414610713576002600555815f52600660205260405f209173ffffffffffffffffffffffffffffffffffffffff6001840154169283156106eb57805491670de0b6b3a764000083106106c3577f0b9821ae606ebc7c79bf3390bdd3dc93e1b4a7cda27aad60646e7b88ff55b00114610626575b5f9055827f015df05b25cf9384e8233c8352ff7c78aac415522e8f1e746e23199cb1907bd26020604051848152a2600480546040517fa9059cbb00000000000000000000000000000000000000000000000000000000815273ffffffffffffffffffffffffffffffffffffffff9091169181019190915260248101829052602081806044810103815f73ffffffffffffffffffffffffffffffffffffffff7f0000000000000000000000000000000000000000000000000000000000000000165af180156105ea576105f9575b5073ffffffffffffffffffffffffffffffffffffffff6004541690813b156105f55760845f947fffffffffffffffffffffffffffffffffffffffffffffffffffffffffffffffe0601f604051988997889687957f9e949b5000000000000000000000000000000000000000000000000000000000875260048701526024860152606060448601525180918160648701528686015e888582860101520116810103019134905af180156105ea576105d7575b50600160055580f35b6105e391505f90611766565b5f5f6105ce565b6040513d5f823e3d90fd5b5f80fd5b61061a9060203d60201161061f575b6106128183611766565b8101906117bf565b61051d565b503d610608565b6002549081610637575b9050610450565b818302918383041483151715610696577f987faf4061c7b1651cbf1f20b2c53a2c3498576b0a221aaae13cb70f438d30de602061068661067d6127105f96048097611825565b956001546117d7565b80600155604051908152a1610630565b7f4e487b71000000000000000000000000000000000000000000000000000000005f52601160045260245ffd5b7f7c946ed7000000000000000000000000000000000000000000000000000000005f5260045ffd5b7fd92e233d000000000000000000000000000000000000000000000000000000005f5260045ffd5b7f8beb9d16000000000000000000000000000000000000000000000000000000005f5260045ffd5b7f4e487b71000000000000000000000000000000000000000000000000000000005f52604160045260245ffd5b346105f55760207ffffffffffffffffffffffffffffffffffffffffffffffffffffffffffffffffc3601126105f55761079f611743565b73ffffffffffffffffffffffffffffffffffffffff5f54169081330361082b5773ffffffffffffffffffffffffffffffffffffffff1680156106eb57807fffffffffffffffffffffffff000000000000000000000000000000000000000060045416176004557feed0a54ca371c497db4d9aa31fcf86d1bfb6658e88f03fbfd355c90d718eb5055f80a2005b507fa43d6ada000000000000000000000000000000000000000000000000000000005f523360045260245260445ffd5b346105f5575f7ffffffffffffffffffffffffffffffffffffffffffffffffffffffffffffffffc3601126105f55760206040517f0b9821ae606ebc7c79bf3390bdd3dc93e1b4a7cda27aad60646e7b88ff55b0018152f35b346105f55760207ffffffffffffffffffffffffffffffffffffffffffffffffffffffffffffffffc3601126105f55773ffffffffffffffffffffffffffffffffffffffff6108ff611743565b165f526007602052602060405f2054604051908152f35b346105f5575f7ffffffffffffffffffffffffffffffffffffffffffffffffffffffffffffffffc3601126105f5576020604051670de0b6b3a76400008152f35b346105f5575f7ffffffffffffffffffffffffffffffffffffffffffffffffffffffffffffffffc3601126105f55760206040517f360894a13ba1a3210667c828492db98dca3e2076cc3735a920a3ca505d382bbc8152f35b346105f5575f7ffffffffffffffffffffffffffffffffffffffffffffffffffffffffffffffffc3601126105f55760206040516127108152f35b346105f55760207ffffffffffffffffffffffffffffffffffffffffffffffffffffffffffffffffc3601126105f557610a1f611743565b5f549073ffffffffffffffffffffffffffffffffffffffff8216803303610aab575073ffffffffffffffffffffffffffffffffffffffff169081156106eb577fffffffffffffffffffffffff0000000000000000000000000000000000000000829116175f557f4ffd725fc4a22075e9ec71c59edf9c38cdeb588a91b24fc5b61388c5be41282b5f80a2005b7fa43d6ada000000000000000000000000000000000000000000000000000000005f523360045260245260445ffd5b346105f55760407ffffffffffffffffffffffffffffffffffffffffffffffffffffffffffffffffc3601126105f557610b11611743565b6024359060026005541461071357600260055573ffffffffffffffffffffffffffffffffffffffff600454163303610c56576040517f23b872dd00000000000000000000000000000000000000000000000000000000815233600482015230602482015260448101839052906020826064815f7f000000000000000000000000000000000000000000000000000000000000000073ffffffffffffffffffffffffffffffffffffffff165af19081156105ea57610bf89273ffffffffffffffffffffffffffffffffffffffff92610c39575b501691825f52600760205260405f20546117d7565b815f5260076020528060405f20556040519081527f274d7f966af6573008a70c506b6f03f0eb7dd98dae23b6c8490fc47c50ab16fa60203392a36001600555005b610c519060203d60201161061f576106128183611766565b610be3565b7f38e04bf2000000000000000000000000000000000000000000000000000000005f523360045260245ffd5b346105f55760207ffffffffffffffffffffffffffffffffffffffffffffffffffffffffffffffffc3601126105f5576004355f5260066020526040805f2073ffffffffffffffffffffffffffffffffffffffff600182549201541682519182526020820152f35b346105f5575f7ffffffffffffffffffffffffffffffffffffffffffffffffffffffffffffffffc3601126105f557602073ffffffffffffffffffffffffffffffffffffffff5f5416604051908152f35b346105f5575f7ffffffffffffffffffffffffffffffffffffffffffffffffffffffffffffffffc3601126105f5576020600254604051908152f35b346105f5575f7ffffffffffffffffffffffffffffffffffffffffffffffffffffffffffffffffc3601126105f5575f5473ffffffffffffffffffffffffffffffffffffffff8116610de7577fffffffffffffffffffffffff00000000000000000000000000000000000000001633175f55005b7f0dc149f0000000000000000000000000000000000000000000000000000000005f5260045ffd5b346105f55760407ffffffffffffffffffffffffffffffffffffffffffffffffffffffffffffffffc3601126105f557610e46611743565b6024359060026005541461071357600260055573ffffffffffffffffffffffffffffffffffffffff5f5416803303610aab575060015491828111610f875780610e94602092610ef095611825565b928360015560405194859283927fa9059cbb000000000000000000000000000000000000000000000000000000008452600484016020909392919373ffffffffffffffffffffffffffffffffffffffff60408201951681520152565b03815f73ffffffffffffffffffffffffffffffffffffffff7f0000000000000000000000000000000000000000000000000000000000000000165af19081156105ea577f987faf4061c7b1651cbf1f20b2c53a2c3498576b0a221aaae13cb70f438d30de92602092610f6c575b50604051908152a16001600555005b610f8290833d851161061f576106128183611766565b610f5d565b90507f7ae59685000000000000000000000000000000000000000000000000000000005f5260045260245260445ffd5b346105f5575f7ffffffffffffffffffffffffffffffffffffffffffffffffffffffffffffffffc3601126105f557602073ffffffffffffffffffffffffffffffffffffffff60045416604051908152f35b346105f5575f7ffffffffffffffffffffffffffffffffffffffffffffffffffffffffffffffffc3601126105f5576020600154604051908152f35b346105f55760407ffffffffffffffffffffffffffffffffffffffffffffffffffffffffffffffffc3601126105f55760043567ffffffffffffffff81116105f557366023820112156105f557806004013561109d816117a7565b916110ab6040519384611766565b818352602083016024819360051b830101913683116105f557602401905b82821061131f5750505060243567ffffffffffffffff81116105f557366023820112156105f55780600401356110fe816117a7565b9161110c6040519384611766565b81835260208301906024829360051b820101903682116105f557602401915b8183106112f25750505073ffffffffffffffffffffffffffffffffffffffff5f5416803303610aab5750835180159081156112e6575b506112be575f5b84518110156112125761117b81866117e4565b51156106c35773ffffffffffffffffffffffffffffffffffffffff6111a082856117e4565b5116156106eb57806111b4600192876117e4565b515f52600660205260405f208273ffffffffffffffffffffffffffffffffffffffff6111e084886117e4565b51169101907fffffffffffffffffffffffff000000000000000000000000000000000000000082541617905501611168565b5092919060405192604084019060408552518091526060840192905f5b8181106112a8575050506020908383038285015251918281520192905f5b81811061127c577f644726918bb8526d26cee23950ecccc571efd1b31b6fe3193d509447bdb58f5384860385a1005b825173ffffffffffffffffffffffffffffffffffffffff1685526020948501949092019160010161124d565b825185526020948501949092019160010161122f565b7f2a00e5c6000000000000000000000000000000000000000000000000000000005f5260045ffd5b90508251141585611161565b823573ffffffffffffffffffffffffffffffffffffffff811681036105f55781526020928301920161112b565b81358152602091820191016110c9565b346105f55760207ffffffffffffffffffffffffffffffffffffffffffffffffffffffffffffffffc3601126105f557611366611743565b73ffffffffffffffffffffffffffffffffffffffff5f54169081330361082b5773ffffffffffffffffffffffffffffffffffffffff1680156106eb57807fffffffffffffffffffffffff000000000000000000000000000000000000000060035416176003557f55acc64e4a72cc89f8652df08117adc5f4c96f616ea32414ce208b82e370a2db5f80a2005b346105f5575f7ffffffffffffffffffffffffffffffffffffffffffffffffffffffffffffffffc3601126105f557602073ffffffffffffffffffffffffffffffffffffffff60035416604051908152f35b346105f55760207ffffffffffffffffffffffffffffffffffffffffffffffffffffffffffffffffc3601126105f55760043573ffffffffffffffffffffffffffffffffffffffff5f5416803303610aab577f30567a7a9acc4d3354767a982f2668d9583a25d0f5e39c70b17e66c0d15e6f5860208380600255604051908152a1005b346105f55760207ffffffffffffffffffffffffffffffffffffffffffffffffffffffffffffffffc3601126105f5576114fc611743565b73ffffffffffffffffffffffffffffffffffffffff5f5416803303610aab575073ffffffffffffffffffffffffffffffffffffffff81169081156106eb577f360894a13ba1a3210667c828492db98dca3e2076cc3735a920a3ca505d382bbc557f310ba5f1d2ed074b51e2eccd052a47ae9ab7c6b800d1fca3db3999d6a592ca035f80a2005b346105f55760407ffffffffffffffffffffffffffffffffffffffffffffffffffffffffffffffffc3601126105f557600435602435600260055414610713576002600555805f52600660205260405f209173ffffffffffffffffffffffffffffffffffffffff6001840154169283156106eb576040517f23b872dd00000000000000000000000000000000000000000000000000000000815233600482015230602482015260448101839052906020826064815f7f000000000000000000000000000000000000000000000000000000000000000073ffffffffffffffffffffffffffffffffffffffff165af180156105ea577fbf340b6d074bc556a8a0216be4d9df34ebe40920584b1bef2c6904e908076fde936020936116ab926116bc575b5082546117d7565b809155604051908152a36001600555005b6116d290853d871161061f576106128183611766565b6116a3565b346105f5575f7ffffffffffffffffffffffffffffffffffffffffffffffffffffffffffffffffc3601126105f55760209073ffffffffffffffffffffffffffffffffffffffff7f0000000000000000000000000000000000000000000000000000000000000000168152f35b6004359073ffffffffffffffffffffffffffffffffffffffff821682036105f557565b90601f7fffffffffffffffffffffffffffffffffffffffffffffffffffffffffffffffe0910116810190811067ffffffffffffffff82111761073b57604052565b67ffffffffffffffff811161073b5760051b60200190565b908160209103126105f5575180151581036105f55790565b9190820180921161069657565b80518210156117f85760209160051b010190565b7f4e487b71000000000000000000000000000000000000000000000000000000005f52603260045260245ffd5b919082039182116106965756fea264697066735822122074e62b1181d824f29020d506c7ab2857f02d646795cc5aa794881f5e83972fe064736f6c634300081e0033","linkReferences":{}},"methodIdentifiers":{"MAX_PROTOCOL_FACTOR()":"a9fc9d16","MIN_OLAS_BALANCE()":"aeed157b","PROXY_SLOT()":"aa3d10df","REWARD()":"cab34c08","changeImplementation(address)":"17a68dd8","changeOwner(address)":"a6f9dae1","changeProtocolFactor(uint256)":"1ff62199","changeStakingManager(address)":"3fae5b2c","changeStakingProcessorL2(address)":"e92c8a5b","fundExternal(address,uint256)":"78667fb5","initialize()":"8129fc1c","l2StakingProcessor()":"757530bc","mapOperationReceiverBalances(bytes32)":"970078cb","mapStakingProxyUnstakeReserves(address)":"c09a5049","olas()":"0031d115","owner()":"8da5cb5b","protocolBalance()":"61e98db8","protocolFactor()":"8672d378","rebalanceFromUnstakeReserve(address,uint256,bytes32)":"fc6f1125","relayTokens(bytes32,bytes)":"efb3d544","setOperationReceivers(bytes32[],address[])":"5ae5f407","stakingManager()":"22828cc2","topUpBalance(uint256,bytes32)":"0d231945","topUpUnstakeReserve(address,uint256)":"a393aa3e"},"id":20}