{"abi":[{"type":"constructor","inputs":[{"name":"_olas","type":"address","internalType":"address"},{"name":"_st","type":"address","internalType":"address"}],"stateMutability":"nonpayable"},{"type":"function","name":"ALPHA_DEPOSIT_LIMIT","inputs":[],"outputs":[{"name":"","type":"uint256","internalType":"uint256"}],"stateMutability":"view"},{"type":"function","name":"BETA_DEPOSIT_LIMIT","inputs":[],"outputs":[{"name":"","type":"uint256","internalType":"uint256"}],"stateMutability":"view"},{"type":"function","name":"LzCloseStakingModel","inputs":[{"name":"chainId","type":"uint256","internalType":"uint256"},{"name":"stakingProxy","type":"address","internalType":"address"}],"outputs":[],"stateMutability":"nonpayable"},{"type":"function","name":"LzCreateAndActivateStakingModel","inputs":[{"name":"chainId","type":"uint256","internalType":"uint256"},{"name":"stakingProxy","type":"address","internalType":"address"},{"name":"stakeLimitPerSlot","type":"uint256","internalType":"uint256"},{"name":"numSlots","type":"uint256","internalType":"uint256"}],"outputs":[],"stateMutability":"nonpayable"},{"type":"function","name":"PROXY_SLOT","inputs":[],"outputs":[{"name":"","type":"bytes32","internalType":"bytes32"}],"stateMutability":"view"},{"type":"function","name":"STAKE","inputs":[],"outputs":[{"name":"","type":"bytes32","internalType":"bytes32"}],"stateMutability":"view"},{"type":"function","name":"UNSTAKE","inputs":[],"outputs":[{"name":"","type":"bytes32","internalType":"bytes32"}],"stateMutability":"view"},{"type":"function","name":"UNSTAKE_RETIRED","inputs":[],"outputs":[{"name":"","type":"bytes32","internalType":"bytes32"}],"stateMutability":"view"},{"type":"function","name":"VERSION","inputs":[],"outputs":[{"name":"","type":"string","internalType":"string"}],"stateMutability":"view"},{"type":"function","name":"changeImplementation","inputs":[{"name":"newImplementation","type":"address","internalType":"address"}],"outputs":[],"stateMutability":"nonpayable"},{"type":"function","name":"changeLzOracle","inputs":[{"name":"newLzOracle","type":"address","internalType":"address"}],"outputs":[],"stateMutability":"nonpayable"},{"type":"function","name":"changeOwner","inputs":[{"name":"newOwner","type":"address","internalType":"address"}],"outputs":[],"stateMutability":"nonpayable"},{"type":"function","name":"changeProductType","inputs":[{"name":"newProductType","type":"uint8","internalType":"enum ProductType"}],"outputs":[],"stateMutability":"nonpayable"},{"type":"function","name":"changeTreasury","inputs":[{"name":"newTreasury","type":"address","internalType":"address"}],"outputs":[],"stateMutability":"nonpayable"},{"type":"function","name":"closeRetiredStakingModels","inputs":[{"name":"chainIds","type":"uint256[]","internalType":"uint256[]"},{"name":"stakingProxies","type":"address[]","internalType":"address[]"}],"outputs":[],"stateMutability":"nonpayable"},{"type":"function","name":"createAndActivateStakingModels","inputs":[{"name":"chainIds","type":"uint256[]","internalType":"uint256[]"},{"name":"stakingProxies","type":"address[]","internalType":"address[]"},{"name":"stakeLimitPerSlots","type":"uint256[]","internalType":"uint256[]"},{"name":"numSlots","type":"uint256[]","internalType":"uint256[]"}],"outputs":[],"stateMutability":"nonpayable"},{"type":"function","name":"deposit","inputs":[{"name":"stakeAmount","type":"uint256","internalType":"uint256"},{"name":"chainIds","type":"uint256[]","internalType":"uint256[]"},{"name":"stakingProxies","type":"address[]","internalType":"address[]"},{"name":"bridgePayloads","type":"bytes[]","internalType":"bytes[]"},{"name":"values","type":"uint256[]","internalType":"uint256[]"}],"outputs":[{"name":"stAmount","type":"uint256","internalType":"uint256"},{"name":"amounts","type":"uint256[]","internalType":"uint256[]"}],"stateMutability":"payable"},{"type":"function","name":"getChainIdAndStakingProxy","inputs":[{"name":"stakingModelId","type":"uint256","internalType":"uint256"}],"outputs":[{"name":"","type":"uint256","internalType":"uint256"},{"name":"","type":"address","internalType":"address"}],"stateMutability":"pure"},{"type":"function","name":"getStakingModelId","inputs":[{"name":"chainId","type":"uint256","internalType":"uint256"},{"name":"stakingProxy","type":"address","internalType":"address"}],"outputs":[{"name":"","type":"uint256","internalType":"uint256"}],"stateMutability":"pure"},{"type":"function","name":"initialize","inputs":[],"outputs":[],"stateMutability":"nonpayable"},{"type":"function","name":"lzOracle","inputs":[],"outputs":[{"name":"","type":"address","internalType":"address"}],"stateMutability":"view"},{"type":"function","name":"mapAccountDeposits","inputs":[{"name":"","type":"address","internalType":"address"}],"outputs":[{"name":"","type":"uint256","internalType":"uint256"}],"stateMutability":"view"},{"type":"function","name":"mapAccountWithdraws","inputs":[{"name":"","type":"address","internalType":"address"}],"outputs":[{"name":"","type":"uint256","internalType":"uint256"}],"stateMutability":"view"},{"type":"function","name":"mapChainIdDepositProcessors","inputs":[{"name":"","type":"uint256","internalType":"uint256"}],"outputs":[{"name":"","type":"address","internalType":"address"}],"stateMutability":"view"},{"type":"function","name":"mapStakingModels","inputs":[{"name":"","type":"uint256","internalType":"uint256"}],"outputs":[{"name":"supply","type":"uint96","internalType":"uint96"},{"name":"remainder","type":"uint96","internalType":"uint96"},{"name":"stakeLimitPerSlot","type":"uint96","internalType":"uint96"},{"name":"status","type":"uint8","internalType":"enum StakingModelStatus"}],"stateMutability":"view"},{"type":"function","name":"olas","inputs":[],"outputs":[{"name":"","type":"address","internalType":"address"}],"stateMutability":"view"},{"type":"function","name":"owner","inputs":[],"outputs":[{"name":"","type":"address","internalType":"address"}],"stateMutability":"view"},{"type":"function","name":"pause","inputs":[],"outputs":[],"stateMutability":"nonpayable"},{"type":"function","name":"paused","inputs":[],"outputs":[{"name":"","type":"uint256","internalType":"uint256"}],"stateMutability":"view"},{"type":"function","name":"productType","inputs":[],"outputs":[{"name":"","type":"uint8","internalType":"enum ProductType"}],"stateMutability":"view"},{"type":"function","name":"setDepositProcessorChainIds","inputs":[{"name":"depositProcessors","type":"address[]","internalType":"address[]"},{"name":"chainIds","type":"uint256[]","internalType":"uint256[]"}],"outputs":[],"stateMutability":"nonpayable"},{"type":"function","name":"setStakingModelStatuses","inputs":[{"name":"chainIds","type":"uint256[]","internalType":"uint256[]"},{"name":"stakingProxies","type":"address[]","internalType":"address[]"},{"name":"statuses","type":"uint8[]","internalType":"enum StakingModelStatus[]"}],"outputs":[],"stateMutability":"nonpayable"},{"type":"function","name":"st","inputs":[],"outputs":[{"name":"","type":"address","internalType":"address"}],"stateMutability":"view"},{"type":"function","name":"treasury","inputs":[],"outputs":[{"name":"","type":"address","internalType":"address"}],"stateMutability":"view"},{"type":"function","name":"unpause","inputs":[],"outputs":[],"stateMutability":"nonpayable"},{"type":"function","name":"unstake","inputs":[{"name":"unstakeAmount","type":"uint256","internalType":"uint256"},{"name":"chainIds","type":"uint256[]","internalType":"uint256[]"},{"name":"stakingProxies","type":"address[]","internalType":"address[]"},{"name":"bridgePayloads","type":"bytes[]","internalType":"bytes[]"},{"name":"values","type":"uint256[]","internalType":"uint256[]"},{"name":"sender","type":"address","internalType":"address"}],"outputs":[{"name":"amounts","type":"uint256[]","internalType":"uint256[]"}],"stateMutability":"payable"},{"type":"function","name":"unstakeRetired","inputs":[{"name":"chainIds","type":"uint256[]","internalType":"uint256[]"},{"name":"stakingProxies","type":"address[]","internalType":"address[]"},{"name":"bridgePayloads","type":"bytes[]","internalType":"bytes[]"},{"name":"values","type":"uint256[]","internalType":"uint256[]"}],"outputs":[{"name":"amounts","type":"uint256[]","internalType":"uint256[]"}],"stateMutability":"payable"},{"type":"event","name":"Deposit","inputs":[{"name":"sender","type":"address","indexed":true,"internalType":"address"},{"name":"stakeAmount","type":"uint256","indexed":false,"internalType":"uint256"},{"name":"stAmount","type":"uint256","indexed":false,"internalType":"uint256"},{"name":"chainIds","type":"uint256[]","indexed":false,"internalType":"uint256[]"},{"name":"stakingProxies","type":"address[]","indexed":false,"internalType":"address[]"},{"name":"amounts","type":"uint256[]","indexed":false,"internalType":"uint256[]"}],"anonymous":false},{"type":"event","name":"DepositoryPaused","inputs":[],"anonymous":false},{"type":"event","name":"DepositoryUnpaused","inputs":[],"anonymous":false},{"type":"event","name":"ImplementationUpdated","inputs":[{"name":"implementation","type":"address","indexed":true,"internalType":"address"}],"anonymous":false},{"type":"event","name":"LzOracleUpdated","inputs":[{"name":"lzOracle","type":"address","indexed":true,"internalType":"address"}],"anonymous":false},{"type":"event","name":"OwnerUpdated","inputs":[{"name":"owner","type":"address","indexed":true,"internalType":"address"}],"anonymous":false},{"type":"event","name":"ProductTypeUpdated","inputs":[{"name":"productType","type":"uint8","indexed":false,"internalType":"enum ProductType"}],"anonymous":false},{"type":"event","name":"Retired","inputs":[{"name":"chainIds","type":"uint256[]","indexed":false,"internalType":"uint256[]"},{"name":"stakingProxies","type":"address[]","indexed":false,"internalType":"address[]"}],"anonymous":false},{"type":"event","name":"SetDepositProcessorChainIds","inputs":[{"name":"depositProcessors","type":"address[]","indexed":false,"internalType":"address[]"},{"name":"chainIds","type":"uint256[]","indexed":false,"internalType":"uint256[]"}],"anonymous":false},{"type":"event","name":"StakingModelActivated","inputs":[{"name":"chainId","type":"uint256","indexed":true,"internalType":"uint256"},{"name":"stakingProxy","type":"address","indexed":true,"internalType":"address"},{"name":"stakeLimitPerSlots","type":"uint256","indexed":false,"internalType":"uint256"},{"name":"numSlots","type":"uint256","indexed":false,"internalType":"uint256"}],"anonymous":false},{"type":"event","name":"StakingModelStatusSet","inputs":[{"name":"chainId","type":"uint256","indexed":true,"internalType":"uint256"},{"name":"stakingProxy","type":"address","indexed":true,"internalType":"address"},{"name":"status","type":"uint8","indexed":false,"internalType":"enum StakingModelStatus"}],"anonymous":false},{"type":"event","name":"TreasuryUpdated","inputs":[{"name":"treasury","type":"address","indexed":true,"internalType":"address"}],"anonymous":false},{"type":"event","name":"Unstake","inputs":[{"name":"sender","type":"address","indexed":true,"internalType":"address"},{"name":"chainIds","type":"uint256[]","indexed":false,"internalType":"uint256[]"},{"name":"stakingProxies","type":"address[]","indexed":false,"internalType":"address[]"},{"name":"amounts","type":"uint256[]","indexed":false,"internalType":"uint256[]"}],"anonymous":false},{"type":"error","name":"AlreadyInitialized","inputs":[]},{"type":"error","name":"Overflow","inputs":[{"name":"provided","type":"uint256","internalType":"uint256"},{"name":"max","type":"uint256","internalType":"uint256"}]},{"type":"error","name":"OwnerOnly","inputs":[{"name":"sender","type":"address","internalType":"address"},{"name":"owner","type":"address","internalType":"address"}]},{"type":"error","name":"Paused","inputs":[]},{"type":"error","name":"ProductTypeDepositOverflow","inputs":[{"name":"productType","type":"uint8","internalType":"uint8"},{"name":"depositAmount","type":"uint256","internalType":"uint256"}]},{"type":"error","name":"ReentrancyGuard","inputs":[]},{"type":"error","name":"StakingModelAlreadyExists","inputs":[{"name":"stakingModelId","type":"uint256","internalType":"uint256"}]},{"type":"error","name":"UnauthorizedAccount","inputs":[{"name":"account","type":"address","internalType":"address"}]},{"type":"error","name":"WrongArrayLength","inputs":[]},{"type":"error","name":"WrongStakingModel","inputs":[{"name":"stakingModelId","type":"uint256","internalType":"uint256"}]},{"type":"error","name":"ZeroAddress","inputs":[]},{"type":"error","name":"ZeroValue","inputs":[]}],"bytecode":{"object":"0x60c03461009657601f61359138819003918201601f19168301916001600160401b0383118484101761009a57808492604094855283398101031261009657610052602061004b836100ae565b92016100ae565b9060805260a0526040516134ce90816100c382396080518181816114e401528181611574015281816119a20152612dda015260a0518181816111ff015261208c0152f35b5f80fd5b634e487b7160e01b5f52604160045260245ffd5b51906001600160a01b03821682036100965756fe6080806040526004361015610012575f80fd5b5f3560e01c90816231d11514612d925750806308bedfd414612ba3578063091f323414612b1f578063125fdbbc14612ac757806317a68dd814612a0a5780631c80b1f4146129c95780632633e6de1461296b5780632c54e13f146129085780633f4ba83a146128905780634a694ae11461245f5780634e8802c3146123f55780635c975abb146123ba5780636121c61d1461237057806361d027b31461231f5780636bbc97ab146120b057806373f0cc2d146120425780638129fc1c14611f7a578063825846dd14611e045780638456cb5914611d8c5780638da5cb5b14611d3c5780638e8ce9fc14611beb57806391783b07146110bb5780639377d84e1461106157806393dedbc614610f835780639646d6ef14610ec0578063a6f9dae114610dfd578063a740c1bf14610da5578063a83f782914610754578063aa3d10df146106fc578063b14f2a39146105e1578063c08626191461059f578063c7a8186e1461053c578063d8bf69bf1461033e578063dc8df387146102e6578063dcb5ccc414610288578063f1e4a151146102375763ffa1ad74146101b2575f80fd5b34610233575f7ffffffffffffffffffffffffffffffffffffffffffffffffffffffffffffffffc3601126102335761022f6040516101f1604082612e47565b600581527f302e312e3000000000000000000000000000000000000000000000000000000060208201526040519182916020835260208301906130e2565b0390f35b5f80fd5b34610233575f7ffffffffffffffffffffffffffffffffffffffffffffffffffffffffffffffffc36011261023357602073ffffffffffffffffffffffffffffffffffffffff60025416604051908152f35b346102335760207ffffffffffffffffffffffffffffffffffffffffffffffffffffffffffffffffc360112610233576004355f526005602052602073ffffffffffffffffffffffffffffffffffffffff60405f205416604051908152f35b34610233575f7ffffffffffffffffffffffffffffffffffffffffffffffffffffffffffffffffc3601126102335760206040517f8ca9a95e41b5eece253c93f5b31eed1253aed6b145d8a6e14d913fdf8e7322938152f35b346102335760407ffffffffffffffffffffffffffffffffffffffffffffffffffffffffffffffffc3601126102335760043567ffffffffffffffff81116102335761038d903690600401612f43565b60243567ffffffffffffffff8111610233576103ad903690600401612ea0565b73ffffffffffffffffffffffffffffffffffffffff5f541680330361050d575081518015908115610501575b506104d9575f5b8151811015610489576103f38183613125565b5115610461578073ffffffffffffffffffffffffffffffffffffffff61041b60019386613125565b51166104278285613125565b515f52600560205260405f20907fffffffffffffffffffffffff0000000000000000000000000000000000000000825416179055016103e0565b7f7c946ed7000000000000000000000000000000000000000000000000000000005f5260045ffd5b7fe87460f6c400fa0166984512586d7bdf03a3230bbadf9651f27f08716dd77fa56104c6846104d485604051938493604085526040850190613166565b9083820360208501526130af565b0390a1005b7f2a00e5c6000000000000000000000000000000000000000000000000000000005f5260045ffd5b905081511415836103d9565b7fa43d6ada000000000000000000000000000000000000000000000000000000005f523360045260245260445ffd5b346102335760207ffffffffffffffffffffffffffffffffffffffffffffffffffffffffffffffffc3601126102335773ffffffffffffffffffffffffffffffffffffffff610588612efd565b165f526006602052602060405f2054604051908152f35b34610233575f7ffffffffffffffffffffffffffffffffffffffffffffffffffffffffffffffffc36011261023357602060405169021e19e0c9bab24000008152f35b346102335760207ffffffffffffffffffffffffffffffffffffffffffffffffffffffffffffffffc36011261023357610618612efd565b73ffffffffffffffffffffffffffffffffffffffff5f5416908133036106cc5773ffffffffffffffffffffffffffffffffffffffff1680156106a457807fffffffffffffffffffffffff000000000000000000000000000000000000000060015416176001557f7dae230f18360d76a040c81f050aa14eb9d6dc7901b20fc5d855e2a20fe814d15f80a2005b7fd92e233d000000000000000000000000000000000000000000000000000000005f5260045ffd5b507fa43d6ada000000000000000000000000000000000000000000000000000000005f523360045260245260445ffd5b34610233575f7ffffffffffffffffffffffffffffffffffffffffffffffffffffffffffffffffc3601126102335760206040517f360894a13ba1a3210667c828492db98dca3e2076cc3735a920a3ca505d382bbc8152f35b60c07ffffffffffffffffffffffffffffffffffffffffffffffffffffffffffffffffc3601126102335760243567ffffffffffffffff81116102335761079e903690600401612ea0565b60443567ffffffffffffffff8111610233576107be903690600401612f43565b60643567ffffffffffffffff8111610233576107de903690600401612fc8565b9160843567ffffffffffffffff8111610233576107ff903690600401612ea0565b9160a4359073ffffffffffffffffffffffffffffffffffffffff8216809203610233576004359360ff5f5c16610d7d5760017fffffffffffffffffffffffffffffffffffffffffffffffffffffffffffffff005f5c16175f5d73ffffffffffffffffffffffffffffffffffffffff600154163303610d515783518015908115610d45575b8115610d39575b8115610d2d575b506104d9576108a084516131af565b955f955b8551871015610d215773ffffffffffffffffffffffffffffffffffffffff6108cc8886613125565b51166108d88888613125565b5160a01b17805f52600460205260405f206040516108f581612dfe565b60018254926bffffffffffffffffffffffff841683526bffffffffffffffffffffffff602084019460601c16845201549060ff60408201926bffffffffffffffffffffffff8116845260601c1661094b81612fbe565b60608201526bffffffffffffffffffffffff81511615610cf5576109836bffffffffffffffffffffffff8092511682855116906131fe565b1661098e8b8d613125565b526bffffffffffffffffffffffff6109a68b8d613125565b51915116809111610ce4575b50888a6109bf8282613125565b51851115610c5c57610a5a92506109e8610a6b9594926bffffffffffffffffffffffff92613125565b5116905f526004602052610a1260405f20916bffffffffffffffffffffffff835460601c16613255565b7fffffffffffffffff000000000000000000000000ffffffffffffffffffffffff77ffffffffffffffffffffffff00000000000000000000000083549260601b169116179055565b610a64888a613125565b51906132c6565b955b8615610a7c57600101956108a4565b5090919293945b80610c2d57505f5b8551811015610bdd57610a9e8188613125565b5115610bd557610aae8187613125565b515f52600560205273ffffffffffffffffffffffffffffffffffffffff60405f2054169081156106a457610ae28185613125565b519173ffffffffffffffffffffffffffffffffffffffff610b038388613125565b511690610b10838b613125565b5190610b1c8487613125565b5191813b1561023357610b73955f94604051978895869485937f0f7b12440000000000000000000000000000000000000000000000000000000085526004850152602484015260a0604484015260a48301906130e2565b7f8ca9a95e41b5eece253c93f5b31eed1253aed6b145d8a6e14d913fdf8e73229360648301528c608483015203925af1918215610bca57600192610bba575b505b01610a8b565b5f610bc491612e47565b88610bb2565b6040513d5f823e3d90fd5b600190610bb4565b61022f87877f4ca7c91ad69c00305fea77e6f7652df0cf472f40deb1459cdcad7eba02ba23848288610c1660405192839233968461327f565b0390a26040519182916020835260208301906130af565b7f7ae59685000000000000000000000000000000000000000000000000000000005f526004525f60245260445ffd5b6bffffffffffffffffffffffff610c889386610c7d610cdd98958495613125565b525116911690613255565b905f52600460205260405f20907fffffffffffffffff000000000000000000000000ffffffffffffffffffffffff77ffffffffffffffffffffffff00000000000000000000000083549260601b169116179055565b5f95610a6d565b610cee8a8c613125565b528a6109b2565b837f87ae1d4a000000000000000000000000000000000000000000000000000000005f5260045260245ffd5b90919293949550610a83565b90508151141587610891565b8751811415915061088a565b83518114159150610883565b7f32b2baa3000000000000000000000000000000000000000000000000000000005f523360045260245ffd5b7f8beb9d16000000000000000000000000000000000000000000000000000000005f5260045ffd5b34610233575f7ffffffffffffffffffffffffffffffffffffffffffffffffffffffffffffffffc3601126102335760206040517f9065ad15d9673159e4597c86084aff8052550cec93c5a6e44b3f1dba4c8731b38152f35b346102335760207ffffffffffffffffffffffffffffffffffffffffffffffffffffffffffffffffc36011261023357610e34612efd565b5f549073ffffffffffffffffffffffffffffffffffffffff821680330361050d575073ffffffffffffffffffffffffffffffffffffffff169081156106a4577fffffffffffffffffffffffff0000000000000000000000000000000000000000829116175f557f4ffd725fc4a22075e9ec71c59edf9c38cdeb588a91b24fc5b61388c5be41282b5f80a2005b346102335760207ffffffffffffffffffffffffffffffffffffffffffffffffffffffffffffffffc36011261023357610ef7612efd565b73ffffffffffffffffffffffffffffffffffffffff5f5416908133036106cc5773ffffffffffffffffffffffffffffffffffffffff1680156106a457807fffffffffffffffffffffffff000000000000000000000000000000000000000060025416176002557f8d661cb03f609136f84fc0f0b9562a0640ccab27ffdcc51bea45475624cc25f45f80a2005b346102335760207ffffffffffffffffffffffffffffffffffffffffffffffffffffffffffffffffc3601126102335760043560038110156102335773ffffffffffffffffffffffffffffffffffffffff5f541680330361050d577fa958108f01063f86d713cf2730b9e2e178e372aff4813997b395fc25c6b769fb60208361100a81612fbe565b6002547fffffffffffffffffffffff00ffffffffffffffffffffffffffffffffffffffff74ff00000000000000000000000000000000000000008360a01b169116176002556040519061105c81612fbe565b8152a1005b346102335760207ffffffffffffffffffffffffffffffffffffffffffffffffffffffffffffffffc360112610233576040805160043560a081901c825273ffffffffffffffffffffffffffffffffffffffff166020820152f35b60a07ffffffffffffffffffffffffffffffffffffffffffffffffffffffffffffffffc3601126102335760043560243567ffffffffffffffff811161023357611108903690600401612ea0565b60443567ffffffffffffffff811161023357611128903690600401612f43565b9160643567ffffffffffffffff811161023357611149903690600401612fc8565b9160843567ffffffffffffffff81116102335761116a903690600401612ea0565b925f9260ff5f5c16610d7d5760017fffffffffffffffffffffffffffffffffffffffffffffffffffffffffffffff005f5c16175f5d600260035414611bc35760ff60025460a01c166111bb81612fbe565b801580611bb1575b8015611b8a575b611b5357506bffffffffffffffffffffffff8111611b185782518651811490811591611b0c575b8115611b00575b506104d9577f00000000000000000000000000000000000000000000000000000000000000009473ffffffffffffffffffffffffffffffffffffffff861693604051967fa10954fe000000000000000000000000000000000000000000000000000000008852602088600481895afa978815610bca575f98611acc575b5061128088856132b9565b97881561046157975f9861129484516131af565b975f925b8c8651851015611abb576112c18573ffffffffffffffffffffffffffffffffffffffff92613125565b51166112cd8588613125565b5160a01b17805f52600460205260405f206040516112ea81612dfe565b60018254926bffffffffffffffffffffffff841683526bffffffffffffffffffffffff602084019460601c1684520154906bffffffffffffffffffffffff60ff6040830193828116855260601c169161134283612fbe565b826060820152511615908115611a9d575b50611a71576bffffffffffffffffffffffff82511615611a6457918c87859361142595611437976113848486613125565b526bffffffffffffffffffffffff61139c8486613125565b51915116809111611a53575b506113b38284613125565b516bffffffffffffffffffffffff8251168091115f14611a265750906bffffffffffffffffffffffff6113e892511692613125565b525f52600460205260405f207fffffffffffffffff000000000000000000000000ffffffffffffffffffffffff81541690555b610a64868d613125565b9b611430858c613125565b51906132b9565b928b1561144a576001905b01929a611298565b50909992939495969798995b876118e4575b808411156118515760206114736114ca92866132c6565b6040517f095ea7b300000000000000000000000000000000000000000000000000000000815273ffffffffffffffffffffffffffffffffffffffff9097166004880152602487018190529591829081906044820190565b03815f73ffffffffffffffffffffffffffffffffffffffff7f0000000000000000000000000000000000000000000000000000000000000000165af18015610bca57611834575b50803b15610233575f928360849260405196879586947ff105ab6e000000000000000000000000000000000000000000000000000000008652600486015260248501526044840152600160648401525af18015610bca57611824575b509491945b7f000000000000000000000000000000000000000000000000000000000000000073ffffffffffffffffffffffffffffffffffffffff16925f5b8251811015611799576115bf8188613125565b5115611791576115cf8184613125565b515f52600560205273ffffffffffffffffffffffffffffffffffffffff60405f2054169081156106a45761165f6020611608838b613125565b516040517fa9059cbb00000000000000000000000000000000000000000000000000000000815273ffffffffffffffffffffffffffffffffffffffff86166004820152602481019190915291829081906044820190565b03815f8b5af18015610bca57611763575b5061167b8186613125565b519173ffffffffffffffffffffffffffffffffffffffff61169c838d613125565b5116906116a9838b613125565b51906116b5848b613125565b5191813b156102335761170c955f94604051978895869485937f0f7b12440000000000000000000000000000000000000000000000000000000085526004850152602484015260a0604484015260a48301906130e2565b7f1bcc0f4c3fad314e585165815f94ecca9b96690a26d6417d7876448a9a867a69606483015233608483015203925af1918215610bca57600192611753575b505b016115ac565b5f61175d91612e47565b8a61174b565b6117839060203d811161178a575b61177b8183612e47565b8101906132d3565b508a611670565b503d611771565b60019061174d565b50867fd513a52cab6d70d4a1c031eca61de004f141061eb45de62dfc7fc7030ed8d3696117f08a6117e28a9660405195865286602087015260a0604087015260a08601906130af565b908482036060860152613166565b918083036080820152806118053394876130af565b0390a261022f60405192839283526040602084015260408301906130af565b5f61182e91612e47565b8761156d565b61184c9060203d60201161178a5761177b8183612e47565b611511565b50925085811015611868575b505050949194611572565b61187286826132c6565b92803b15610233575f928360849260405196879586947ff105ab6e0000000000000000000000000000000000000000000000000000000086526004860152602485015260448401528160648401525af18015610bca576118d4575b808061185d565b5f6118de91612e47565b876118cd565b9950335f52600660205260405f206118fd8882546132b9565b90556040517f6e553f65000000000000000000000000000000000000000000000000000000008152600481018890523360248201526020816044815f865af1908115610bca575f916119f4575b50996040517f23b872dd0000000000000000000000000000000000000000000000000000000081523360048201523060248201528860448201526020816064815f73ffffffffffffffffffffffffffffffffffffffff7f0000000000000000000000000000000000000000000000000000000000000000165af18015610bca576119d5575b5061145c565b6119ed9060203d60201161178a5761177b8183612e47565b508c6119cf565b90506020813d602011611a1e575b81611a0f60209383612e47565b8101031261023357518c61194a565b3d9150611a02565b90506bffffffffffffffffffffffff611a46610c8893611a4e9695613125565b5116906131fe565b61141b565b611a5d8385613125565b525f6113a8565b5050509a92600190611442565b827f87ae1d4a000000000000000000000000000000000000000000000000000000005f5260045260245ffd5b60019150611aaa81612fbe565b611ab381612fbe565b14155f611353565b50939495969798999a925090611456565b9097506020813d602011611af8575b81611ae860209383612e47565b8101031261023357519689611275565b3d9150611adb565b905085511415876111f8565b835181141591506111f1565b7f7ae59685000000000000000000000000000000000000000000000000000000005f526004526bffffffffffffffffffffffff60245260445ffd5b611b5c81612fbe565b7f3521357f000000000000000000000000000000000000000000000000000000005f5260045260245260445ffd5b50611b9481612fbe565b6001811480156111ca575069021e19e0c9bab240000082116111ca565b50683635c9adc5dea0000082116111c3565b7f9e87fac8000000000000000000000000000000000000000000000000000000005f5260045ffd5b346102335760407ffffffffffffffffffffffffffffffffffffffffffffffffffffffffffffffffc36011261023357600435611c25612f20565b73ffffffffffffffffffffffffffffffffffffffff600254163303610d515773ffffffffffffffffffffffffffffffffffffffff16908060a01b8217805f5260046020526bffffffffffffffffffffffff60405f20541615611d11575f90815260046020526040902060010180547fffffffffffffffffffffffffffffffffffffff00ffffffffffffffffffffffff1690556040516020815f7f01d9316b418f311fcbfcd35253a9939cc3d0d19a4cff56ff48901e11b45baecc9352a3005b7f4e487b71000000000000000000000000000000000000000000000000000000005f52602160045260245ffd5b7f87ae1d4a000000000000000000000000000000000000000000000000000000005f5260045260245ffd5b34610233575f7ffffffffffffffffffffffffffffffffffffffffffffffffffffffffffffffffc36011261023357602073ffffffffffffffffffffffffffffffffffffffff5f5416604051908152f35b34610233575f7ffffffffffffffffffffffffffffffffffffffffffffffffffffffffffffffffc3601126102335773ffffffffffffffffffffffffffffffffffffffff5f541680330361050d5760026003557f4bce234dc0f8cad122f02f17e312ce6576b9e74d2427c407cd26054263b69fa65f80a1005b346102335760807ffffffffffffffffffffffffffffffffffffffffffffffffffffffffffffffffc3601126102335760043567ffffffffffffffff811161023357611e53903690600401612ea0565b60243567ffffffffffffffff811161023357611e73903690600401612f43565b60443567ffffffffffffffff811161023357611e93903690600401612ea0565b9160643567ffffffffffffffff811161023357611eb4903690600401612ea0565b9173ffffffffffffffffffffffffffffffffffffffff5f541680330361050d575081518015908115611f6e575b8115611f62575b8115611f56575b506104d9575f5b8251811015611f545780611f4e611f0f60019386613125565b5173ffffffffffffffffffffffffffffffffffffffff611f2f8487613125565b5116611f3b848a613125565b5190611f47858a613125565b51926132eb565b01611ef6565b005b90508451141585611eef565b84518114159150611ee8565b82518114159150611ee1565b34610233575f7ffffffffffffffffffffffffffffffffffffffffffffffffffffffffffffffffc360112610233575f5473ffffffffffffffffffffffffffffffffffffffff811661201a577fffffffffffffffffffffffff00000000000000000000000000000000000000001633175f55600280547fffffffffffffffffffffff00ffffffffffffffffffffffffffffffffffffffff1690556001600355005b7f0dc149f0000000000000000000000000000000000000000000000000000000005f5260045ffd5b34610233575f7ffffffffffffffffffffffffffffffffffffffffffffffffffffffffffffffffc36011261023357602060405173ffffffffffffffffffffffffffffffffffffffff7f0000000000000000000000000000000000000000000000000000000000000000168152f35b346102335760607ffffffffffffffffffffffffffffffffffffffffffffffffffffffffffffffffc3601126102335760043567ffffffffffffffff8111610233576120ff903690600401612ea0565b60243567ffffffffffffffff81116102335761211f903690600401612f43565b9060443567ffffffffffffffff8111610233573660238201121561023357806004013561214b81612e88565b916121596040519384612e47565b8183526024602084019260051b8201019036821161023357602401915b8183106123065750505073ffffffffffffffffffffffffffffffffffffffff5f541680330361050d5750815180159081156122fa575b81156122ee575b506104d95791905f925b8151841015611f54576121d08483613125565b519373ffffffffffffffffffffffffffffffffffffffff6121f18286613125565b51166121fd8284613125565b519561220887612fbe565b8060a01b821796875f5260046020526bffffffffffffffffffffffff60405f205416156122c25760207f01d9316b418f311fcbfcd35253a9939cc3d0d19a4cff56ff48901e11b45baecc916001969798995f52600482528660405f200161226e82612fbe565b80547fffffffffffffffffffffffffffffffffffffff00ffffffffffffffffffffffff6cff0000000000000000000000008460601b169116179055604051906122b681612fbe565b8152a3019291906121bd565b877f87ae1d4a000000000000000000000000000000000000000000000000000000005f5260045260245ffd5b905081511415846121b3565b845181141591506121ac565b8235600381101561023357815260209283019201612176565b34610233575f7ffffffffffffffffffffffffffffffffffffffffffffffffffffffffffffffffc36011261023357602073ffffffffffffffffffffffffffffffffffffffff60015416604051908152f35b34610233575f7ffffffffffffffffffffffffffffffffffffffffffffffffffffffffffffffffc36011261023357602060ff60025460a01c16604051906123b681612fbe565b8152f35b34610233575f7ffffffffffffffffffffffffffffffffffffffffffffffffffffffffffffffffc360112610233576020600354604051908152f35b346102335760807ffffffffffffffffffffffffffffffffffffffffffffffffffffffffffffffffc3601126102335761242c612f20565b73ffffffffffffffffffffffffffffffffffffffff600254163303610d5157611f549060643590604435906004356132eb565b60807ffffffffffffffffffffffffffffffffffffffffffffffffffffffffffffffffc3601126102335760043567ffffffffffffffff8111610233576124a9903690600401612ea0565b60243567ffffffffffffffff8111610233576124c9903690600401612f43565b60443567ffffffffffffffff8111610233576124e9903690600401612fc8565b9160643567ffffffffffffffff81116102335761250a903690600401612ea0565b9160ff5f5c16610d7d5760017fffffffffffffffffffffffffffffffffffffffffffffffffffffffffffffff005f5c16175f5d81518015908115612884575b8115612878575b811561286c575b506104d95761256682516131af565b935f5b83518110156126e65773ffffffffffffffffffffffffffffffffffffffff6125918285613125565b511661259d8286613125565b5160a01b17805f52600460205260405f2090604051916125bc83612dfe565b60018154916bffffffffffffffffffffffff831685526bffffffffffffffffffffffff602086019360601c16835201549060ff60408501926bffffffffffffffffffffffff8116845260601c1661261281612fbe565b80606086015261262181612fbe565b61262a81612fbe565b611a71576bffffffffffffffffffffffff84511615611a7157906bffffffffffffffffffffffff806001969594935116935116928381146126dd5761267f6bffffffffffffffffffffffff916126c6956131fe565b1661268a858c613125565b526bffffffffffffffffffffffff6126a2858c613125565b519151168091116126cc575b506bffffffffffffffffffffffff6109e8848b613125565b01612569565b6126d6848b613125565b52896126ae565b505050506126c6565b508491935f5b8451811015612833576126ff8185613125565b511561282b5761270f8186613125565b515f52600560205273ffffffffffffffffffffffffffffffffffffffff60405f2054169081156106a4576127438184613125565b519173ffffffffffffffffffffffffffffffffffffffff612764838a613125565b5116906127718388613125565b519061277d8488613125565b5191813b15610233576127d4955f94604051978895869485937f0f7b12440000000000000000000000000000000000000000000000000000000085526004850152602484015260a0604484015260a48301906130e2565b7f9065ad15d9673159e4597c86084aff8052550cec93c5a6e44b3f1dba4c8731b3606483015233608483015203925af1918215610bca5760019261281b575b505b016126ec565b5f61282591612e47565b87612813565b600190612815565b61022f84867f4ca7c91ad69c00305fea77e6f7652df0cf472f40deb1459cdcad7eba02ba2384828a610c1660405192839233968461327f565b90508351141585612557565b85518114159150612550565b82518114159150612549565b34610233575f7ffffffffffffffffffffffffffffffffffffffffffffffffffffffffffffffffc3601126102335773ffffffffffffffffffffffffffffffffffffffff5f541680330361050d5760016003557ffa5c7f93a4015dc50075bac2743bbbef48dec6926281c3573bb90fbeda4c71eb5f80a1005b346102335760207ffffffffffffffffffffffffffffffffffffffffffffffffffffffffffffffffc3601126102335773ffffffffffffffffffffffffffffffffffffffff612954612efd565b165f526007602052602060405f2054604051908152f35b346102335760407ffffffffffffffffffffffffffffffffffffffffffffffffffffffffffffffffc36011261023357602073ffffffffffffffffffffffffffffffffffffffff6129b9612f20565b166040519060043560a01b178152f35b34610233575f7ffffffffffffffffffffffffffffffffffffffffffffffffffffffffffffffffc360112610233576020604051683635c9adc5dea000008152f35b346102335760207ffffffffffffffffffffffffffffffffffffffffffffffffffffffffffffffffc36011261023357612a41612efd565b73ffffffffffffffffffffffffffffffffffffffff5f541680330361050d575073ffffffffffffffffffffffffffffffffffffffff81169081156106a4577f360894a13ba1a3210667c828492db98dca3e2076cc3735a920a3ca505d382bbc557f310ba5f1d2ed074b51e2eccd052a47ae9ab7c6b800d1fca3db3999d6a592ca035f80a2005b34610233575f7ffffffffffffffffffffffffffffffffffffffffffffffffffffffffffffffffc3601126102335760206040517f1bcc0f4c3fad314e585165815f94ecca9b96690a26d6417d7876448a9a867a698152f35b346102335760207ffffffffffffffffffffffffffffffffffffffffffffffffffffffffffffffffc360112610233576004355f526004602052608060405f20600181549101546bffffffffffffffffffffffff60ff8260601c16918160405194818116865260601c166020850152166040830152612b9c81612fbe565b6060820152f35b346102335760407ffffffffffffffffffffffffffffffffffffffffffffffffffffffffffffffffc3601126102335760043567ffffffffffffffff811161023357612bf2903690600401612ea0565b60243567ffffffffffffffff811161023357612c12903690600401612f43565b9080518015908115612d86575b506104d9575f5b8151811015612d3b5773ffffffffffffffffffffffffffffffffffffffff612c4e8285613125565b5116612c5a8284613125565b5160a01b17805f52600460205260405f20604051612c7781612dfe565b60ff60018354936bffffffffffffffffffffffff851684526bffffffffffffffffffffffff602085019560601c16855201546bffffffffffffffffffffffff8116604084015260601c16612cca81612fbe565b806060830152612cd981612fbe565b612ce281612fbe565b611a7157516bffffffffffffffffffffffff168015918215612d21575b5050611d1157906001915f5260046020525f8260408220828155015501612c26565b516bffffffffffffffffffffffff16141590508580612cff565b7f540578aa0b2db7422036c459c1be1149871a619a4db6e71d284f5b8850a702ef612d78836104d4866040519384936040855260408501906130af565b908382036020850152613166565b90508251141583612c1f565b34610233575f7ffffffffffffffffffffffffffffffffffffffffffffffffffffffffffffffffc3601126102335760209073ffffffffffffffffffffffffffffffffffffffff7f0000000000000000000000000000000000000000000000000000000000000000168152f35b6080810190811067ffffffffffffffff821117612e1a57604052565b7f4e487b71000000000000000000000000000000000000000000000000000000005f52604160045260245ffd5b90601f7fffffffffffffffffffffffffffffffffffffffffffffffffffffffffffffffe0910116810190811067ffffffffffffffff821117612e1a57604052565b67ffffffffffffffff8111612e1a5760051b60200190565b9080601f83011215610233578135612eb781612e88565b92612ec56040519485612e47565b81845260208085019260051b82010192831161023357602001905b828210612eed5750505090565b8135815260209182019101612ee0565b6004359073ffffffffffffffffffffffffffffffffffffffff8216820361023357565b6024359073ffffffffffffffffffffffffffffffffffffffff8216820361023357565b9080601f8301121561023357813590612f5b82612e88565b92612f696040519485612e47565b82845260208085019360051b82010191821161023357602001915b818310612f915750505090565b823573ffffffffffffffffffffffffffffffffffffffff8116810361023357815260209283019201612f84565b60031115611ce457565b9080601f8301121561023357813591612fe083612e88565b92612fee6040519485612e47565b80845260208085019160051b830101918383116102335760208101915b83831061301a57505050505090565b823567ffffffffffffffff811161023357820185603f820112156102335760208101359167ffffffffffffffff8311612e1a57604051613082601f85017fffffffffffffffffffffffffffffffffffffffffffffffffffffffffffffffe01660200182612e47565b8381526040838501018810610233575f60208581966040839701838601378301015281520192019161300b565b90602080835192838152019201905f5b8181106130cc5750505090565b82518452602093840193909201916001016130bf565b907fffffffffffffffffffffffffffffffffffffffffffffffffffffffffffffffe0601f602080948051918291828752018686015e5f8582860101520116010190565b80518210156131395760209160051b010190565b7f4e487b71000000000000000000000000000000000000000000000000000000005f52603260045260245ffd5b90602080835192838152019201905f5b8181106131835750505090565b825173ffffffffffffffffffffffffffffffffffffffff16845260209384019390920191600101613176565b906131b982612e88565b6131c66040519182612e47565b8281527fffffffffffffffffffffffffffffffffffffffffffffffffffffffffffffffe06131f48294612e88565b0190602036910137565b906bffffffffffffffffffffffff809116911603906bffffffffffffffffffffffff821161322857565b7f4e487b71000000000000000000000000000000000000000000000000000000005f52601160045260245ffd5b906bffffffffffffffffffffffff809116911601906bffffffffffffffffffffffff821161322857565b916132a89061329a6132b695936060865260608601906130af565b908482036020860152613166565b9160408184039101526130af565b90565b9190820180921161322857565b9190820391821161322857565b90816020910312610233575180151581036102335790565b91909280820293828504821483151715613228576bffffffffffffffffffffffff851161345c5784156104615773ffffffffffffffffffffffffffffffffffffffff169384156106a4578360a01b851790815f52600460205260405f20916bffffffffffffffffffffffff835416613431575081547fffffffffffffffff000000000000000000000000000000000000000000000000166bffffffffffffffffffffffff82161760609190911b77ffffffffffffffffffffffff000000000000000000000000161781557ffe44b01bcc51b2c771bdea0c31ccf51e8eff796f6c053e7b6f338fcb07cb293d92604092909160010180547fffffffffffffffffffffffffffffffffffffff00000000000000000000000000166bffffffffffffffffffffffff8416176c0100000000000000000000000017905582519182526020820152a3565b7fe43d2ca4000000000000000000000000000000000000000000000000000000005f5260045260245ffd5b847f7ae59685000000000000000000000000000000000000000000000000000000005f526004526bffffffffffffffffffffffff60245260445ffdfea26469706673582212200b9fc63711d2464938c83b4ffc45d722769426130908f484d5d0b36a3b568fe764736f6c634300081e0033","linkReferences":{}},"methodIdentifiers":{"ALPHA_DEPOSIT_LIMIT()":"1c80b1f4","BETA_DEPOSIT_LIMIT()":"c0862619","LzCloseStakingModel(uint256,address)":"8e8ce9fc","LzCreateAndActivateStakingModel(uint256,address,uint256,uint256)":"4e8802c3","PROXY_SLOT()":"aa3d10df","STAKE()":"125fdbbc","UNSTAKE()":"dc8df387","UNSTAKE_RETIRED()":"a740c1bf","VERSION()":"ffa1ad74","changeImplementation(address)":"17a68dd8","changeLzOracle(address)":"9646d6ef","changeOwner(address)":"a6f9dae1","changeProductType(uint8)":"93dedbc6","changeTreasury(address)":"b14f2a39","closeRetiredStakingModels(uint256[],address[])":"08bedfd4","createAndActivateStakingModels(uint256[],address[],uint256[],uint256[])":"825846dd","deposit(uint256,uint256[],address[],bytes[],uint256[])":"91783b07","getChainIdAndStakingProxy(uint256)":"9377d84e","getStakingModelId(uint256,address)":"2633e6de","initialize()":"8129fc1c","lzOracle()":"f1e4a151","mapAccountDeposits(address)":"c7a8186e","mapAccountWithdraws(address)":"2c54e13f","mapChainIdDepositProcessors(uint256)":"dcb5ccc4","mapStakingModels(uint256)":"091f3234","olas()":"0031d115","owner()":"8da5cb5b","pause()":"8456cb59","paused()":"5c975abb","productType()":"6121c61d","setDepositProcessorChainIds(address[],uint256[])":"d8bf69bf","setStakingModelStatuses(uint256[],address[],uint8[])":"6bbc97ab","st()":"73f0cc2d","treasury()":"61d027b3","unpause()":"3f4ba83a","unstake(uint256,uint256[],address[],bytes[],uint256[],address)":"a83f7829","unstakeRetired(uint256[],address[],bytes[],uint256[])":"4a694ae1"},"id":9}