{"abi":[{"type":"constructor","inputs":[{"name":"_olas","type":"address","internalType":"address"},{"name":"_st","type":"address","internalType":"address"},{"name":"_lock","type":"address","internalType":"address"}],"stateMutability":"nonpayable"},{"type":"function","name":"MAX_LOCK_FACTOR","inputs":[],"outputs":[{"name":"","type":"uint256","internalType":"uint256"}],"stateMutability":"view"},{"type":"function","name":"PROXY_SLOT","inputs":[],"outputs":[{"name":"","type":"bytes32","internalType":"bytes32"}],"stateMutability":"view"},{"type":"function","name":"VERSION","inputs":[],"outputs":[{"name":"","type":"string","internalType":"string"}],"stateMutability":"view"},{"type":"function","name":"changeImplementation","inputs":[{"name":"newImplementation","type":"address","internalType":"address"}],"outputs":[],"stateMutability":"nonpayable"},{"type":"function","name":"changeLockFactor","inputs":[{"name":"newLockFactor","type":"uint256","internalType":"uint256"}],"outputs":[],"stateMutability":"nonpayable"},{"type":"function","name":"changeOwner","inputs":[{"name":"newOwner","type":"address","internalType":"address"}],"outputs":[],"stateMutability":"nonpayable"},{"type":"function","name":"distribute","inputs":[],"outputs":[],"stateMutability":"nonpayable"},{"type":"function","name":"initialize","inputs":[{"name":"_lockFactor","type":"uint256","internalType":"uint256"}],"outputs":[],"stateMutability":"nonpayable"},{"type":"function","name":"lock","inputs":[],"outputs":[{"name":"","type":"address","internalType":"address"}],"stateMutability":"view"},{"type":"function","name":"lockFactor","inputs":[],"outputs":[{"name":"","type":"uint256","internalType":"uint256"}],"stateMutability":"view"},{"type":"function","name":"olas","inputs":[],"outputs":[{"name":"","type":"address","internalType":"address"}],"stateMutability":"view"},{"type":"function","name":"owner","inputs":[],"outputs":[{"name":"","type":"address","internalType":"address"}],"stateMutability":"view"},{"type":"function","name":"st","inputs":[],"outputs":[{"name":"","type":"address","internalType":"address"}],"stateMutability":"view"},{"type":"event","name":"Distributed","inputs":[{"name":"account","type":"address","indexed":true,"internalType":"address"},{"name":"st","type":"address","indexed":true,"internalType":"address"},{"name":"olasAmount","type":"uint256","indexed":false,"internalType":"uint256"}],"anonymous":false},{"type":"event","name":"ImplementationUpdated","inputs":[{"name":"implementation","type":"address","indexed":true,"internalType":"address"}],"anonymous":false},{"type":"event","name":"LockFactorUpdated","inputs":[{"name":"lockFactor","type":"uint256","indexed":false,"internalType":"uint256"}],"anonymous":false},{"type":"event","name":"Locked","inputs":[{"name":"account","type":"address","indexed":true,"internalType":"address"},{"name":"olasAmount","type":"uint256","indexed":false,"internalType":"uint256"},{"name":"lockAmount","type":"uint256","indexed":false,"internalType":"uint256"},{"name":"vaultBalance","type":"uint256","indexed":false,"internalType":"uint256"}],"anonymous":false},{"type":"event","name":"OwnerUpdated","inputs":[{"name":"owner","type":"address","indexed":true,"internalType":"address"}],"anonymous":false},{"type":"error","name":"AlreadyInitialized","inputs":[]},{"type":"error","name":"OwnerOnly","inputs":[{"name":"sender","type":"address","internalType":"address"},{"name":"owner","type":"address","internalType":"address"}]},{"type":"error","name":"ReentrancyGuard","inputs":[]},{"type":"error","name":"ZeroAddress","inputs":[]},{"type":"error","name":"ZeroValue","inputs":[]}],"bytecode":{"object":"0x60e0346100a957601f610d0c38819003918201601f19168301916001600160401b038311848410176100ad578084926060946040528339810103126100a957610047816100c1565b906100606040610059602084016100c1565b92016100c1565b9160805260a05260c052604051610c3690816100d682396080518181816103000152610b83015260a05181818161050301526109a7015260c05181818161024d01526103930152f35b5f80fd5b634e487b7160e01b5f52604160045260245ffd5b51906001600160a01b03821682036100a95756fe6080806040526004361015610012575f80fd5b5f905f3560e01c90816231d11514610b3b5750806317a68dd814610a7c5780633fc3b468146109cb57806373f0cc2d1461095d5780638da5cb5b1461090d578063a6f9dae1146107f2578063aa3d10df1461079a578063c6fe0d381461075f578063d0e1900014610725578063e4fc6b6d14610271578063f83d08ba14610202578063fe4b84df1461015e5763ffa1ad74146100ac575f80fd5b3461015b57807ffffffffffffffffffffffffffffffffffffffffffffffffffffffffffffffffc36011261015b57604080516100e88282610ba7565b600581527fffffffffffffffffffffffffffffffffffffffffffffffffffffffffffffffe0601f602083017f302e312e3000000000000000000000000000000000000000000000000000000081528451958694602086525180928160208801528787015e85828601015201168101030190f35b80fd5b503461015b5760207ffffffffffffffffffffffffffffffffffffffffffffffffffffffffffffffffc36011261015b57805473ffffffffffffffffffffffffffffffffffffffff81166101da576004356001557fffffffffffffffffffffffff0000000000000000000000000000000000000000163317815580f35b6004827f0dc149f0000000000000000000000000000000000000000000000000000000008152fd5b503461015b57807ffffffffffffffffffffffffffffffffffffffffffffffffffffffffffffffffc36011261015b57602060405173ffffffffffffffffffffffffffffffffffffffff7f0000000000000000000000000000000000000000000000000000000000000000168152f35b5034610615575f7ffffffffffffffffffffffffffffffffffffffffffffffffffffffffffffffffc3601126106155760ff5f5c166106fd5760017fffffffffffffffffffffffffffffffffffffffffffffffffffffffffffffff005f5c16175f5d6040517f70a082310000000000000000000000000000000000000000000000000000000081523060048201527f000000000000000000000000000000000000000000000000000000000000000073ffffffffffffffffffffffffffffffffffffffff16602082602481845afa91821561060a575f926106c9575b5081158015610359578380f35b6001549081840291848304141715610646576040517f095ea7b30000000000000000000000000000000000000000000000000000000081527f000000000000000000000000000000000000000000000000000000000000000073ffffffffffffffffffffffffffffffffffffffff811660048301526127109092046024820181905293916020826044815f885af190811561060a575f9283926106ac575b506040518260208201917f1c5a091400000000000000000000000000000000000000000000000000000000835288602482015260248152610439604482610ba7565b51925af13d156106a7573d67ffffffffffffffff811161067a5760405190610489601f82017fffffffffffffffffffffffffffffffffffffffffffffffffffffffffffffffe01660200183610ba7565b81525f60203d92013e5b1561067357828103818111610646578093604051928352602083015260408201527f44cebfefa4561bee5b61d675ccfd8dc9969fff9cc15e7a4eccccd62af94f9c1160603392a25b6040517f095ea7b30000000000000000000000000000000000000000000000000000000081527f000000000000000000000000000000000000000000000000000000000000000073ffffffffffffffffffffffffffffffffffffffff81166004830152602482018490529091602090839060449082905f905af191821561060a5773ffffffffffffffffffffffffffffffffffffffff92610619575b501690813b15610615576040517f2b5064cc0000000000000000000000000000000000000000000000000000000081528160048201525f8160248183875af1801561060a576105f5575b506040519081527fad4a9acf26d8bba7a8cf1a41160d59be042ee554578e256c98d2ab74cdd4354260203392a35f80808380f35b6106029193505f90610ba7565b5f915f6105c1565b6040513d5f823e3d90fd5b5f80fd5b61063a9060203d60201161063f575b6106328183610ba7565b810190610be8565b610577565b503d610628565b7f4e487b71000000000000000000000000000000000000000000000000000000005f52601160045260245ffd5b91506104db565b7f4e487b71000000000000000000000000000000000000000000000000000000005f52604160045260245ffd5b610493565b6106c49060203d60201161063f576106328183610ba7565b6103f7565b9091506020813d6020116106f5575b816106e560209383610ba7565b810103126106155751905f61034c565b3d91506106d8565b7f8beb9d16000000000000000000000000000000000000000000000000000000005f5260045ffd5b34610615575f7ffffffffffffffffffffffffffffffffffffffffffffffffffffffffffffffffc3601126106155760206040516127108152f35b34610615575f7ffffffffffffffffffffffffffffffffffffffffffffffffffffffffffffffffc360112610615576020600154604051908152f35b34610615575f7ffffffffffffffffffffffffffffffffffffffffffffffffffffffffffffffffc3601126106155760206040517f360894a13ba1a3210667c828492db98dca3e2076cc3735a920a3ca505d382bbc8152f35b346106155760207ffffffffffffffffffffffffffffffffffffffffffffffffffffffffffffffffc3601126106155760043573ffffffffffffffffffffffffffffffffffffffff8116809103610615575f5473ffffffffffffffffffffffffffffffffffffffff81168033036108de575081156108b6577fffffffffffffffffffffffff0000000000000000000000000000000000000000829116175f557f4ffd725fc4a22075e9ec71c59edf9c38cdeb588a91b24fc5b61388c5be41282b5f80a2005b7fd92e233d000000000000000000000000000000000000000000000000000000005f5260045ffd5b7fa43d6ada000000000000000000000000000000000000000000000000000000005f523360045260245260445ffd5b34610615575f7ffffffffffffffffffffffffffffffffffffffffffffffffffffffffffffffffc36011261061557602073ffffffffffffffffffffffffffffffffffffffff5f5416604051908152f35b34610615575f7ffffffffffffffffffffffffffffffffffffffffffffffffffffffffffffffffc36011261061557602060405173ffffffffffffffffffffffffffffffffffffffff7f0000000000000000000000000000000000000000000000000000000000000000168152f35b346106155760207ffffffffffffffffffffffffffffffffffffffffffffffffffffffffffffffffc3601126106155760043573ffffffffffffffffffffffffffffffffffffffff5f54168033036108de57508015610a54576020817f78f315ebda3907c5f869ab27187d4dc31ca81da74dff4359703453da2fdb918892600155604051908152a1005b7f7c946ed7000000000000000000000000000000000000000000000000000000005f5260045ffd5b346106155760207ffffffffffffffffffffffffffffffffffffffffffffffffffffffffffffffffc3601126106155760043573ffffffffffffffffffffffffffffffffffffffff8116908181036106155773ffffffffffffffffffffffffffffffffffffffff5f54168033036108de575081156108b6577f360894a13ba1a3210667c828492db98dca3e2076cc3735a920a3ca505d382bbc557f310ba5f1d2ed074b51e2eccd052a47ae9ab7c6b800d1fca3db3999d6a592ca035f80a2005b34610615575f7ffffffffffffffffffffffffffffffffffffffffffffffffffffffffffffffffc3601126106155760209073ffffffffffffffffffffffffffffffffffffffff7f0000000000000000000000000000000000000000000000000000000000000000168152f35b90601f7fffffffffffffffffffffffffffffffffffffffffffffffffffffffffffffffe0910116810190811067ffffffffffffffff82111761067a57604052565b9081602091031261061557518015158103610615579056fea2646970667358221220ad423e195b33509a7027655b89ea4fb94ea8117e7c31f50cbb6057ab8fd05d5764736f6c634300081e0033","linkReferences":{}},"methodIdentifiers":{"MAX_LOCK_FACTOR()":"d0e19000","PROXY_SLOT()":"aa3d10df","VERSION()":"ffa1ad74","changeImplementation(address)":"17a68dd8","changeLockFactor(uint256)":"3fc3b468","changeOwner(address)":"a6f9dae1","distribute()":"e4fc6b6d","initialize(uint256)":"fe4b84df","lock()":"f83d08ba","lockFactor()":"c6fe0d38","olas()":"0031d115","owner()":"8da5cb5b","st()":"73f0cc2d"},"id":10}