{"abi":[{"type":"constructor","inputs":[{"name":"_olas","type":"address","internalType":"address"},{"name":"_l1Dispenser","type":"address","internalType":"address"},{"name":"_l1TokenRelayer","type":"address","internalType":"address"},{"name":"_l1MessageRelayer","type":"address","internalType":"address"}],"stateMutability":"nonpayable"},{"type":"function","name":"MAX_CHAIN_ID","inputs":[],"outputs":[{"name":"","type":"uint256","internalType":"uint256"}],"stateMutability":"view"},{"type":"function","name":"MESSAGE_GAS_LIMIT","inputs":[],"outputs":[{"name":"","type":"uint256","internalType":"uint256"}],"stateMutability":"view"},{"type":"function","name":"RECEIVE_MESSAGE","inputs":[],"outputs":[{"name":"","type":"bytes4","internalType":"bytes4"}],"stateMutability":"view"},{"type":"function","name":"STAKE","inputs":[],"outputs":[{"name":"","type":"bytes32","internalType":"bytes32"}],"stateMutability":"view"},{"type":"function","name":"TOKEN_GAS_LIMIT","inputs":[],"outputs":[{"name":"","type":"uint256","internalType":"uint256"}],"stateMutability":"view"},{"type":"function","name":"getBridgingDecimals","inputs":[],"outputs":[{"name":"","type":"uint256","internalType":"uint256"}],"stateMutability":"pure"},{"type":"function","name":"l1Depository","inputs":[],"outputs":[{"name":"","type":"address","internalType":"address"}],"stateMutability":"view"},{"type":"function","name":"l1MessageRelayer","inputs":[],"outputs":[{"name":"","type":"address","internalType":"address"}],"stateMutability":"view"},{"type":"function","name":"l1TokenRelayer","inputs":[],"outputs":[{"name":"","type":"address","internalType":"address"}],"stateMutability":"view"},{"type":"function","name":"l2StakingProcessor","inputs":[],"outputs":[{"name":"","type":"address","internalType":"address"}],"stateMutability":"view"},{"type":"function","name":"messageBatchNonce","inputs":[],"outputs":[{"name":"","type":"uint256","internalType":"uint256"}],"stateMutability":"view"},{"type":"function","name":"olas","inputs":[],"outputs":[{"name":"","type":"address","internalType":"address"}],"stateMutability":"view"},{"type":"function","name":"owner","inputs":[],"outputs":[{"name":"","type":"address","internalType":"address"}],"stateMutability":"view"},{"type":"function","name":"processedHashes","inputs":[{"name":"","type":"bytes32","internalType":"bytes32"}],"outputs":[{"name":"","type":"bool","internalType":"bool"}],"stateMutability":"view"},{"type":"function","name":"sendMessage","inputs":[{"name":"target","type":"address","internalType":"address"},{"name":"amount","type":"uint256","internalType":"uint256"},{"name":"bridgePayload","type":"bytes","internalType":"bytes"},{"name":"operation","type":"bytes32","internalType":"bytes32"},{"name":"sender","type":"address","internalType":"address"}],"outputs":[],"stateMutability":"payable"},{"type":"function","name":"setL2StakingProcessor","inputs":[{"name":"l2Processor","type":"address","internalType":"address"}],"outputs":[],"stateMutability":"nonpayable"},{"type":"function","name":"updateHashMaintenance","inputs":[{"name":"batchHash","type":"bytes32","internalType":"bytes32"}],"outputs":[],"stateMutability":"nonpayable"},{"type":"event","name":"L2StakerUpdated","inputs":[{"name":"l2StakingProcessor","type":"address","indexed":true,"internalType":"address"}],"anonymous":false},{"type":"event","name":"LeftoversRefunded","inputs":[{"name":"sender","type":"address","indexed":true,"internalType":"address"},{"name":"leftovers","type":"uint256","indexed":false,"internalType":"uint256"},{"name":"success","type":"bool","indexed":false,"internalType":"bool"}],"anonymous":false},{"type":"event","name":"MessagePosted","inputs":[{"name":"sequence","type":"uint256","indexed":true,"internalType":"uint256"},{"name":"target","type":"address","indexed":true,"internalType":"address"},{"name":"amount","type":"uint256","indexed":false,"internalType":"uint256"},{"name":"batchHash","type":"bytes32","indexed":true,"internalType":"bytes32"}],"anonymous":false},{"type":"error","name":"AlreadyDelivered","inputs":[{"name":"deliveryHash","type":"bytes32","internalType":"bytes32"}]},{"type":"error","name":"IncorrectDataLength","inputs":[{"name":"expected","type":"uint256","internalType":"uint256"},{"name":"provided","type":"uint256","internalType":"uint256"}]},{"type":"error","name":"InsufficientBalance","inputs":[{"name":"provided","type":"uint256","internalType":"uint256"},{"name":"expected","type":"uint256","internalType":"uint256"}]},{"type":"error","name":"LowerThan","inputs":[{"name":"provided","type":"uint256","internalType":"uint256"},{"name":"expected","type":"uint256","internalType":"uint256"}]},{"type":"error","name":"ManagerOnly","inputs":[{"name":"sender","type":"address","internalType":"address"},{"name":"manager","type":"address","internalType":"address"}]},{"type":"error","name":"OperationNotFound","inputs":[{"name":"batchHash","type":"bytes32","internalType":"bytes32"},{"name":"operation","type":"bytes32","internalType":"bytes32"}]},{"type":"error","name":"Overflow","inputs":[{"name":"provided","type":"uint256","internalType":"uint256"},{"name":"max","type":"uint256","internalType":"uint256"}]},{"type":"error","name":"OwnerOnly","inputs":[{"name":"sender","type":"address","internalType":"address"},{"name":"owner","type":"address","internalType":"address"}]},{"type":"error","name":"Paused","inputs":[]},{"type":"error","name":"ReentrancyGuard","inputs":[]},{"type":"error","name":"RequestFailed","inputs":[{"name":"batchHash","type":"bytes32","internalType":"bytes32"},{"name":"target","type":"address","internalType":"address"},{"name":"amount","type":"uint256","internalType":"uint256"},{"name":"operation","type":"bytes32","internalType":"bytes32"},{"name":"status","type":"uint256","internalType":"uint256"}]},{"type":"error","name":"RequestNotQueued","inputs":[{"name":"target","type":"address","internalType":"address"},{"name":"amount","type":"uint256","internalType":"uint256"},{"name":"batchHash","type":"bytes32","internalType":"bytes32"},{"name":"operation","type":"bytes32","internalType":"bytes32"}]},{"type":"error","name":"TargetRelayerOnly","inputs":[{"name":"provided","type":"address","internalType":"address"},{"name":"expected","type":"address","internalType":"address"}]},{"type":"error","name":"TransferFailed","inputs":[{"name":"token","type":"address","internalType":"address"},{"name":"from","type":"address","internalType":"address"},{"name":"to","type":"address","internalType":"address"},{"name":"amount","type":"uint256","internalType":"uint256"}]},{"type":"error","name":"Unpaused","inputs":[]},{"type":"error","name":"WrongAccount","inputs":[{"name":"account","type":"address","internalType":"address"}]},{"type":"error","name":"WrongAmount","inputs":[{"name":"provided","type":"uint256","internalType":"uint256"},{"name":"expected","type":"uint256","internalType":"uint256"}]},{"type":"error","name":"WrongChainId","inputs":[{"name":"provided","type":"uint256","internalType":"uint256"},{"name":"expected","type":"uint256","internalType":"uint256"}]},{"type":"error","name":"WrongMessageSender","inputs":[{"name":"provided","type":"address","internalType":"address"},{"name":"expected","type":"address","internalType":"address"}]},{"type":"error","name":"WrongTokenAddress","inputs":[{"name":"provided","type":"address","internalType":"address"},{"name":"expected","type":"address","internalType":"address"}]},{"type":"error","name":"ZeroAddress","inputs":[]},{"type":"error","name":"ZeroValue","inputs":[]}],"bytecode":{"object":"0x6101003461013057601f61106538819003918201601f19168301916001600160401b03831184841017610134578084926080946040528339810103126101305761004881610148565b9061005560208201610148565b61006d606061006660408501610148565b9301610148565b926001600160a01b03821615801561011f575b801561010e575b6100ff5760805260a05260c05260e052600180546001600160a01b03191633179055604051610f08908161015d8239608051818181610ad50152610d41015260a051818181610160015281816102b201526107be015260c0518181816104e80152610b33015260e05181818161067301526109690152f35b63d92e233d60e01b5f5260045ffd5b506001600160a01b03841615610087565b506001600160a01b03831615610080565b5f80fd5b634e487b7160e01b5f52604160045260245ffd5b51906001600160a01b03821682036101305756fe6080806040526004361015610012575f80fd5b5f905f3560e01c90816231d11514610cf95750806307d9c53414610cac5780630f7b1244146106f0578063125fdbbc146106975780633d1f8679146106285780634b81b4ea146105ec5780634c1c6cbf146105b057806354d20cc21461054d5780635bc105c01461050c5780636143fe931461049d5780637535765114610379578063757530bc146103285780638da5cb5b146102d6578063973a895914610267578063a8b2ae021461022d578063ac65ded2146101165763f9fc3c21146100d8575f80fd5b3461011357807ffffffffffffffffffffffffffffffffffffffffffffffffffffffffffffffffc360112610113576020604051621e84808152f35b80fd5b50346101135760207ffffffffffffffffffffffffffffffffffffffffffffffffffffffffffffffffc3601126101135760043573ffffffffffffffffffffffffffffffffffffffff7f0000000000000000000000000000000000000000000000000000000000000000168033036101fe5750808252600360205260ff6040832054166101d357815260036020526040812060017fffffffffffffffffffffffffffffffffffffffffffffffffffffffffffffff0082541617905580f35b7f56bc34a1000000000000000000000000000000000000000000000000000000008252600452602490fd5b7f625a43fe00000000000000000000000000000000000000000000000000000000835260045233602452604482fd5b503461011357807ffffffffffffffffffffffffffffffffffffffffffffffffffffffffffffffffc36011261011357602060405160128152f35b503461011357807ffffffffffffffffffffffffffffffffffffffffffffffffffffffffffffffffc36011261011357602060405173ffffffffffffffffffffffffffffffffffffffff7f0000000000000000000000000000000000000000000000000000000000000000168152f35b503461011357807ffffffffffffffffffffffffffffffffffffffffffffffffffffffffffffffffc36011261011357602073ffffffffffffffffffffffffffffffffffffffff60015416604051908152f35b503461011357807ffffffffffffffffffffffffffffffffffffffffffffffffffffffffffffffffc3601126101135773ffffffffffffffffffffffffffffffffffffffff6020915416604051908152f35b50346101135760207ffffffffffffffffffffffffffffffffffffffffffffffffffffffffffffffffc360112610113576103b1610d65565b6001549073ffffffffffffffffffffffffffffffffffffffff821680330361046e575073ffffffffffffffffffffffffffffffffffffffff16908115610446577fffffffffffffffffffffffff0000000000000000000000000000000000000000908282855416178455166001557f10410fc55005e0d78e3c1fec4f7fbb5a98c494d2f0e570bc4b893233ec88642c8280a280f35b6004837fd92e233d000000000000000000000000000000000000000000000000000000008152fd5b7fa43d6ada00000000000000000000000000000000000000000000000000000000845260045233602452604483fd5b503461011357807ffffffffffffffffffffffffffffffffffffffffffffffffffffffffffffffffc36011261011357602060405173ffffffffffffffffffffffffffffffffffffffff7f0000000000000000000000000000000000000000000000000000000000000000168152f35b503461011357807ffffffffffffffffffffffffffffffffffffffffffffffffffffffffffffffffc360112610113576020604051677fffffffffffffdb8152f35b503461011357807ffffffffffffffffffffffffffffffffffffffffffffffffffffffffffffffffc360112610113576020610586610e30565b7fffffffff0000000000000000000000000000000000000000000000000000000060405191168152f35b503461011357807ffffffffffffffffffffffffffffffffffffffffffffffffffffffffffffffffc360112610113576020604051620493e08152f35b503461011357807ffffffffffffffffffffffffffffffffffffffffffffffffffffffffffffffffc360112610113576020600254604051908152f35b503461011357807ffffffffffffffffffffffffffffffffffffffffffffffffffffffffffffffffc36011261011357602060405173ffffffffffffffffffffffffffffffffffffffff7f0000000000000000000000000000000000000000000000000000000000000000168152f35b503461011357807ffffffffffffffffffffffffffffffffffffffffffffffffffffffffffffffffc3601126101135760206040517f1bcc0f4c3fad314e585165815f94ecca9b96690a26d6417d7876448a9a867a698152f35b5060a07ffffffffffffffffffffffffffffffffffffffffffffffffffffffffffffffffc360112610c1257610723610d65565b906024359160443567ffffffffffffffff8111610c125736602382011215610c125780600401359061075482610df6565b916107626040519384610d88565b8083523660248284010111610c12575f9281602460209401848301370101526064356084359373ffffffffffffffffffffffffffffffffffffffff851692838603610c125773ffffffffffffffffffffffffffffffffffffffff7f000000000000000000000000000000000000000000000000000000000000000016803303610c7d57507f1bcc0f4c3fad314e585165815f94ecca9b96690a26d6417d7876448a9a867a698314938480610c75575b610c4d576002549160405160208101908482523060408201524260608201524660808201526080815261084560a082610d88565b51902095610abe575b95809760206109469697986108ed610864610e30565b73ffffffffffffffffffffffffffffffffffffffff60405193169a8b858501528960408501528c60608501526080840152608083526108a460a084610d88565b6108c1604051938492868401528560248401526044830190610e8f565b037fffffffffffffffffffffffffffffffffffffffffffffffffffffffffffffffe08101835282610d88565b73ffffffffffffffffffffffffffffffffffffffff84541660405198899283927fdc8601b30000000000000000000000000000000000000000000000000000000084526004840152606060248401526064830190610e8f565b621e8480604483015203818573ffffffffffffffffffffffffffffffffffffffff7f0000000000000000000000000000000000000000000000000000000000000000165af1958615610ab3578296610a7b575b5034610a0d575b505050600181018091116109e0577f1ff6d173c1ebeb42f666a09b94f554cf43eadf8054fda3247f56c343baab28f791602091600255604051908152a480f35b6024867f4e487b710000000000000000000000000000000000000000000000000000000081526011600452fd5b8180807f9a5f50c08e333c7f7f5d319ba80c660b5422e940c611e8f1e6b72a56d49db9d29460409434905af13d15610a76573d610a4981610df6565b90610a5684519283610d88565b81528a60203d92013e5b81519034825215156020820152a25f86816109a0565b610a60565b9095506020813d602011610aab575b81610a9760209383610d88565b81010312610aa75751945f610999565b5080fd5b3d9150610a8a565b6040513d84823e3d90fd5b73ffffffffffffffffffffffffffffffffffffffff7f000000000000000000000000000000000000000000000000000000000000000016604051907f095ea7b300000000000000000000000000000000000000000000000000000000825273ffffffffffffffffffffffffffffffffffffffff7f000000000000000000000000000000000000000000000000000000000000000016918260048201528660248201526020816044815f865af18015610c0757610c16575b5073ffffffffffffffffffffffffffffffffffffffff5f5416823b15610c125760645f928360405195869485937fad58bdd1000000000000000000000000000000000000000000000000000000008552600485015260248401528a60448401525af18015610c0757610be8575b5061084e565b6109469596975097610bfc5f60209a610d88565b5f9796955097610be2565b6040513d5f823e3d90fd5b5f80fd5b6020813d602011610c45575b81610c2f60209383610d88565b81010312610c1257518015158114610b75575f80fd5b3d9150610c22565b7f7c946ed7000000000000000000000000000000000000000000000000000000005f5260045ffd5b508215610811565b7f625a43fe000000000000000000000000000000000000000000000000000000005f526004523360245260445ffd5b34610c125760207ffffffffffffffffffffffffffffffffffffffffffffffffffffffffffffffffc360112610c12576004355f526003602052602060ff60405f2054166040519015158152f35b34610c12575f7ffffffffffffffffffffffffffffffffffffffffffffffffffffffffffffffffc360112610c125760209073ffffffffffffffffffffffffffffffffffffffff7f0000000000000000000000000000000000000000000000000000000000000000168152f35b6004359073ffffffffffffffffffffffffffffffffffffffff82168203610c1257565b90601f7fffffffffffffffffffffffffffffffffffffffffffffffffffffffffffffffe0910116810190811067ffffffffffffffff821117610dc957604052565b7f4e487b71000000000000000000000000000000000000000000000000000000005f52604160045260245ffd5b67ffffffffffffffff8111610dc957601f017fffffffffffffffffffffffffffffffffffffffffffffffffffffffffffffffe01660200190565b7fffffffff0000000000000000000000000000000000000000000000000000000060156020604051610e63604082610d88565b828152017f726563656976654d6573736167652862797465732900000000000000000000008152201690565b907fffffffffffffffffffffffffffffffffffffffffffffffffffffffffffffffe0601f602080948051918291828752018686015e5f858286010152011601019056fea2646970667358221220f907cd641b6fff7c84131c6145bc258d6f8cf639eb7d7ec25813fe2e725e635864736f6c634300081e0033","linkReferences":{}},"methodIdentifiers":{"MAX_CHAIN_ID()":"5bc105c0","MESSAGE_GAS_LIMIT()":"f9fc3c21","RECEIVE_MESSAGE()":"54d20cc2","STAKE()":"125fdbbc","TOKEN_GAS_LIMIT()":"4c1c6cbf","getBridgingDecimals()":"a8b2ae02","l1Depository()":"973a8959","l1MessageRelayer()":"3d1f8679","l1TokenRelayer()":"6143fe93","l2StakingProcessor()":"757530bc","messageBatchNonce()":"4b81b4ea","olas()":"0031d115","owner()":"8da5cb5b","processedHashes(bytes32)":"07d9c534","sendMessage(address,uint256,bytes,bytes32,address)":"0f7b1244","setL2StakingProcessor(address)":"75357651","updateHashMaintenance(bytes32)":"ac65ded2"},"id":16}