{"abi":[{"type":"constructor","inputs":[{"name":"_olas","type":"address","internalType":"address"},{"name":"_stakingManager","type":"address","internalType":"address"},{"name":"_collector","type":"address","internalType":"address"},{"name":"_l2TokenRelayer","type":"address","internalType":"address"},{"name":"_l2MessageRelayer","type":"address","internalType":"address"},{"name":"_l1DepositProcessor","type":"address","internalType":"address"},{"name":"_l1SourceChainId","type":"uint256","internalType":"uint256"}],"stateMutability":"nonpayable"},{"type":"receive","stateMutability":"payable"},{"type":"function","name":"MAX_CHAIN_ID","inputs":[],"outputs":[{"name":"","type":"uint256","internalType":"uint256"}],"stateMutability":"view"},{"type":"function","name":"STAKE","inputs":[],"outputs":[{"name":"","type":"bytes32","internalType":"bytes32"}],"stateMutability":"view"},{"type":"function","name":"UNSTAKE","inputs":[],"outputs":[{"name":"","type":"bytes32","internalType":"bytes32"}],"stateMutability":"view"},{"type":"function","name":"UNSTAKE_RETIRED","inputs":[],"outputs":[{"name":"","type":"bytes32","internalType":"bytes32"}],"stateMutability":"view"},{"type":"function","name":"changeOwner","inputs":[{"name":"newOwner","type":"address","internalType":"address"}],"outputs":[],"stateMutability":"nonpayable"},{"type":"function","name":"collector","inputs":[],"outputs":[{"name":"","type":"address","internalType":"address"}],"stateMutability":"view"},{"type":"function","name":"drain","inputs":[],"outputs":[{"name":"nativeAmount","type":"uint256","internalType":"uint256"}],"stateMutability":"nonpayable"},{"type":"function","name":"getBridgingDecimals","inputs":[],"outputs":[{"name":"","type":"uint256","internalType":"uint256"}],"stateMutability":"pure"},{"type":"function","name":"getQueuedHash","inputs":[{"name":"batchHash","type":"bytes32","internalType":"bytes32"},{"name":"target","type":"address","internalType":"address"},{"name":"amount","type":"uint256","internalType":"uint256"},{"name":"operation","type":"bytes32","internalType":"bytes32"}],"outputs":[{"name":"","type":"bytes32","internalType":"bytes32"}],"stateMutability":"view"},{"type":"function","name":"l1DepositProcessor","inputs":[],"outputs":[{"name":"","type":"address","internalType":"address"}],"stateMutability":"view"},{"type":"function","name":"l1SourceChainId","inputs":[],"outputs":[{"name":"","type":"uint256","internalType":"uint256"}],"stateMutability":"view"},{"type":"function","name":"l2MessageRelayer","inputs":[],"outputs":[{"name":"","type":"address","internalType":"address"}],"stateMutability":"view"},{"type":"function","name":"l2TokenRelayer","inputs":[],"outputs":[{"name":"","type":"address","internalType":"address"}],"stateMutability":"view"},{"type":"function","name":"olas","inputs":[],"outputs":[{"name":"","type":"address","internalType":"address"}],"stateMutability":"view"},{"type":"function","name":"owner","inputs":[],"outputs":[{"name":"","type":"address","internalType":"address"}],"stateMutability":"view"},{"type":"function","name":"pause","inputs":[],"outputs":[],"stateMutability":"nonpayable"},{"type":"function","name":"paused","inputs":[],"outputs":[{"name":"","type":"uint256","internalType":"uint256"}],"stateMutability":"view"},{"type":"function","name":"processedHashes","inputs":[{"name":"","type":"bytes32","internalType":"bytes32"}],"outputs":[{"name":"","type":"bool","internalType":"bool"}],"stateMutability":"view"},{"type":"function","name":"queuedHashes","inputs":[{"name":"","type":"bytes32","internalType":"bytes32"}],"outputs":[{"name":"","type":"uint8","internalType":"enum DefaultStakingProcessorL2.RequestStatus"}],"stateMutability":"view"},{"type":"function","name":"receiveMessage","inputs":[{"name":"data","type":"bytes","internalType":"bytes"}],"outputs":[],"stateMutability":"nonpayable"},{"type":"function","name":"redeem","inputs":[{"name":"batchHash","type":"bytes32","internalType":"bytes32"},{"name":"target","type":"address","internalType":"address"},{"name":"amount","type":"uint256","internalType":"uint256"},{"name":"operation","type":"bytes32","internalType":"bytes32"}],"outputs":[],"stateMutability":"nonpayable"},{"type":"function","name":"relayToL1","inputs":[{"name":"to","type":"address","internalType":"address"},{"name":"olasAmount","type":"uint256","internalType":"uint256"},{"name":"","type":"bytes","internalType":"bytes"}],"outputs":[],"stateMutability":"payable"},{"type":"function","name":"stakingManager","inputs":[],"outputs":[{"name":"","type":"address","internalType":"address"}],"stateMutability":"view"},{"type":"function","name":"unpause","inputs":[],"outputs":[],"stateMutability":"nonpayable"},{"type":"event","name":"Drain","inputs":[{"name":"owner","type":"address","indexed":true,"internalType":"address"},{"name":"amount","type":"uint256","indexed":false,"internalType":"uint256"}],"anonymous":false},{"type":"event","name":"FundsReceived","inputs":[{"name":"sender","type":"address","indexed":true,"internalType":"address"},{"name":"value","type":"uint256","indexed":false,"internalType":"uint256"}],"anonymous":false},{"type":"event","name":"MessageReceived","inputs":[{"name":"sender","type":"address","indexed":true,"internalType":"address"},{"name":"chainId","type":"uint256","indexed":false,"internalType":"uint256"},{"name":"data","type":"bytes","indexed":false,"internalType":"bytes"}],"anonymous":false},{"type":"event","name":"OwnerUpdated","inputs":[{"name":"owner","type":"address","indexed":true,"internalType":"address"}],"anonymous":false},{"type":"event","name":"RequestExecuted","inputs":[{"name":"batchHash","type":"bytes32","indexed":true,"internalType":"bytes32"},{"name":"target","type":"address","indexed":false,"internalType":"address"},{"name":"amount","type":"uint256","indexed":false,"internalType":"uint256"},{"name":"operation","type":"bytes32","indexed":false,"internalType":"bytes32"}],"anonymous":false},{"type":"event","name":"RequestQueued","inputs":[{"name":"batchHash","type":"bytes32","indexed":true,"internalType":"bytes32"},{"name":"target","type":"address","indexed":true,"internalType":"address"},{"name":"amount","type":"uint256","indexed":false,"internalType":"uint256"},{"name":"operation","type":"bytes32","indexed":false,"internalType":"bytes32"},{"name":"status","type":"uint8","indexed":false,"internalType":"enum DefaultStakingProcessorL2.RequestStatus"}],"anonymous":false},{"type":"event","name":"StakingProcessorPaused","inputs":[],"anonymous":false},{"type":"event","name":"StakingProcessorUnpaused","inputs":[],"anonymous":false},{"type":"error","name":"AlreadyDelivered","inputs":[{"name":"deliveryHash","type":"bytes32","internalType":"bytes32"}]},{"type":"error","name":"IncorrectDataLength","inputs":[{"name":"expected","type":"uint256","internalType":"uint256"},{"name":"provided","type":"uint256","internalType":"uint256"}]},{"type":"error","name":"InsufficientBalance","inputs":[{"name":"provided","type":"uint256","internalType":"uint256"},{"name":"expected","type":"uint256","internalType":"uint256"}]},{"type":"error","name":"LowerThan","inputs":[{"name":"provided","type":"uint256","internalType":"uint256"},{"name":"expected","type":"uint256","internalType":"uint256"}]},{"type":"error","name":"ManagerOnly","inputs":[{"name":"sender","type":"address","internalType":"address"},{"name":"manager","type":"address","internalType":"address"}]},{"type":"error","name":"OperationNotFound","inputs":[{"name":"batchHash","type":"bytes32","internalType":"bytes32"},{"name":"operation","type":"bytes32","internalType":"bytes32"}]},{"type":"error","name":"Overflow","inputs":[{"name":"provided","type":"uint256","internalType":"uint256"},{"name":"max","type":"uint256","internalType":"uint256"}]},{"type":"error","name":"OwnerOnly","inputs":[{"name":"sender","type":"address","internalType":"address"},{"name":"owner","type":"address","internalType":"address"}]},{"type":"error","name":"Paused","inputs":[]},{"type":"error","name":"ReentrancyGuard","inputs":[]},{"type":"error","name":"RequestFailed","inputs":[{"name":"batchHash","type":"bytes32","internalType":"bytes32"},{"name":"target","type":"address","internalType":"address"},{"name":"amount","type":"uint256","internalType":"uint256"},{"name":"operation","type":"bytes32","internalType":"bytes32"},{"name":"status","type":"uint256","internalType":"uint256"}]},{"type":"error","name":"RequestNotQueued","inputs":[{"name":"target","type":"address","internalType":"address"},{"name":"amount","type":"uint256","internalType":"uint256"},{"name":"batchHash","type":"bytes32","internalType":"bytes32"},{"name":"operation","type":"bytes32","internalType":"bytes32"}]},{"type":"error","name":"TargetRelayerOnly","inputs":[{"name":"provided","type":"address","internalType":"address"},{"name":"expected","type":"address","internalType":"address"}]},{"type":"error","name":"TransferFailed","inputs":[{"name":"token","type":"address","internalType":"address"},{"name":"from","type":"address","internalType":"address"},{"name":"to","type":"address","internalType":"address"},{"name":"amount","type":"uint256","internalType":"uint256"}]},{"type":"error","name":"Unpaused","inputs":[]},{"type":"error","name":"WrongAccount","inputs":[{"name":"account","type":"address","internalType":"address"}]},{"type":"error","name":"WrongAmount","inputs":[{"name":"provided","type":"uint256","internalType":"uint256"},{"name":"expected","type":"uint256","internalType":"uint256"}]},{"type":"error","name":"WrongChainId","inputs":[{"name":"provided","type":"uint256","internalType":"uint256"},{"name":"expected","type":"uint256","internalType":"uint256"}]},{"type":"error","name":"WrongMessageSender","inputs":[{"name":"provided","type":"address","internalType":"address"},{"name":"expected","type":"address","internalType":"address"}]},{"type":"error","name":"WrongTokenAddress","inputs":[{"name":"provided","type":"address","internalType":"address"},{"name":"expected","type":"address","internalType":"address"}]},{"type":"error","name":"ZeroAddress","inputs":[]},{"type":"error","name":"ZeroValue","inputs":[]},{"type":"error","name":"ZeroValueOnly","inputs":[]}],"bytecode":{"object":"0x6101603461023b57601f61211d38819003918201601f19168301916001600160401b0383118484101761023f5780849260e09460405283398101031261023b5761004881610253565b9061005560208201610253565b61006160408301610253565b61006d60608401610253565b9061007a60808501610253565b9260c061008960a08701610253565b950151956001600160a01b03811615801561022a575b8015610219575b8015610208575b80156101f7575b80156101e6575b6101d75786156101c85760256001603f1b038088116101b2575060805260a05260c0526101005260e05261012052610140525f80546001600160a01b031916331790556001808055600255604051611eb5908161026882396080518181816103de01528181610c22015281816111650152611c49015260a051818181610472015281816107c4015281816111fa01528181611277015281816116190152611a54015260c051818181610fe201526113d5015260e0518181816101ce0152611ac2015261010051818181610a130152610c4501526101205181818161023b01526119e601526101405181818161026b0152610dfd0152f35b87637ae5968560e01b5f5260045260245260445ffd5b637c946ed760e01b5f5260045ffd5b63d92e233d60e01b5f5260045ffd5b506001600160a01b038616156100bb565b506001600160a01b038516156100b4565b506001600160a01b038416156100ad565b506001600160a01b038316156100a6565b506001600160a01b0382161561009f565b5f80fd5b634e487b7160e01b5f52604160045260245ffd5b51906001600160a01b038216820361023b5756fe6080806040526004361015610048575b50361561001a575f80fd5b6040513481527f8e47b87b0ef542cdfa1659c551d88bad38aa7f452d2bbb349ab7530dfec8be8f60203392a2005b5f905f3560e01c90816231d11514611c015750806307d9c53414611bb4578063125fdbbc14611b5c578063163388b214611b385780631b2e7f0a14611ae65780631bad595714611a7857806322828cc214611a0a578063256359a81461199c5780633f4ba83a146118f65780635bc105c0146118b65780635c975abb1461187b57806367ef6cb9146110d25780638456cb59146110575780638da5cb5b14611006578063913e77ad14610f975780639890220b14610e205780639b7bb84714610dc75780639e949b5014610bab578063a6f9dae114610a90578063a740c1bf14610a37578063a7be1b50146109c8578063a8b2ae021461098e578063dc8df387146109355763f953cec70361000f57346109325760207ffffffffffffffffffffffffffffffffffffffffffffffffffffffffffffffffc3601126109325760043567ffffffffffffffff8111610930576101a6903690600401611d9e565b6040517fd67bdd250000000000000000000000000000000000000000000000000000000081527f000000000000000000000000000000000000000000000000000000000000000073ffffffffffffffffffffffffffffffffffffffff16602082600481845afa9182156107105784926108db575b508033036108ac575073ffffffffffffffffffffffffffffffffffffffff807f000000000000000000000000000000000000000000000000000000000000000016911681810361087d5750604051907f00000000000000000000000000000000000000000000000000000000000000008252604060208301527f98bbde530ec85b002f6fb0864beccaaf3ac3d2a4ac35cb3b03cf7c61ee415e338351928360408201526060817fffffffffffffffffffffffffffffffffffffffffffffffffffffffffffffffe0601f602089019780898686015e8a85828601015201168101030190a2600160025411610855576002805560808280518101031261085157519073ffffffffffffffffffffffffffffffffffffffff821680920361085157604081015160806060830151920151828552600360205260ff6040862054166108255782855260036020526040852060017fffffffffffffffffffffffffffffffffffffffffffffffffffffffffffffff0082541617905584856001917f1bcc0f4c3fad314e585165815f94ecca9b96690a26d6417d7876448a9a867a6984145f1461072657600180540361071b5773ffffffffffffffffffffffffffffffffffffffff7f000000000000000000000000000000000000000000000000000000000000000016906040517f70a08231000000000000000000000000000000000000000000000000000000008152306004820152602081602481865afa801561071057879185916106d5575b50106106c957506040517f095ea7b30000000000000000000000000000000000000000000000000000000081527f000000000000000000000000000000000000000000000000000000000000000073ffffffffffffffffffffffffffffffffffffffff811660048301526024820187905290916020908390604490829087905af19182156106be578392610691575b506040517f5dce0493000000000000000000000000000000000000000000000000000000006020820190815273ffffffffffffffffffffffffffffffffffffffff8a166024830152604482018890526064820187905290839061056081608481015b037fffffffffffffffffffffffffffffffffffffffffffffffffffffffffffffffe08101835282611cf6565b51925af161056c611e50565b505b156105d357506040805173ffffffffffffffffffffffffffffffffffffffff9095168552602085019290925290830152907f4d3c486e056cfb79101ca2f7e2e656f03944aae15d67bc0c48d8904b502df6d39080606081015b0390a25b600160025580f35b906105e081848787611de4565b86526004602052604086206005831015610664576060927f17d4b33b2850ef72edec27a1895126333bf00595dab92ae0a0bd90192a350b7b9492827fffffffffffffffffffffffffffffffffffffffffffffffffffffffffffffff0061065e94541660ff841617905560405193845260208401526040830190611ce9565ba36105cb565b6024877f4e487b710000000000000000000000000000000000000000000000000000000081526021600452fd5b6106b29060203d6020116106b7575b6106aa8183611cf6565b810190611e38565b6104d2565b503d6106a0565b6040513d85823e3d90fd5b9250505060029061056e565b945050506020833d602011610708575b816106f260209383611cf6565b8101031261070457858993515f610443565b5f80fd5b3d91506106e5565b6040513d86823e3d90fd5b91505060049061056e565b90507f8ca9a95e41b5eece253c93f5b31eed1253aed6b145d8a6e14d913fdf8e732293831480156107fc575b156107f35750858060405160208101907f1ff5affe0000000000000000000000000000000000000000000000000000000082526107bf81610534888a8d6024850160409194939273ffffffffffffffffffffffffffffffffffffffff606083019616825260208201520152565b5190827f00000000000000000000000000000000000000000000000000000000000000005af16107ed611e50565b5061056e565b6003915061056e565b507f9065ad15d9673159e4597c86084aff8052550cec93c5a6e44b3f1dba4c8731b38314610752565b602485847f56bc34a1000000000000000000000000000000000000000000000000000000008252600452fd5b8280fd5b6004837f8beb9d16000000000000000000000000000000000000000000000000000000008152fd5b7f0d16cbdd00000000000000000000000000000000000000000000000000000000845260045260245250604490fd5b7f2f3111fa00000000000000000000000000000000000000000000000000000000845233600452602452604483fd5b9091506020813d602011610928575b816108f760209383611cf6565b81010312610924575173ffffffffffffffffffffffffffffffffffffffff8116810361092457905f61021a565b8380fd5b3d91506108ea565b505b80fd5b503461093257807ffffffffffffffffffffffffffffffffffffffffffffffffffffffffffffffffc3601126109325760206040517f8ca9a95e41b5eece253c93f5b31eed1253aed6b145d8a6e14d913fdf8e7322938152f35b503461093257807ffffffffffffffffffffffffffffffffffffffffffffffffffffffffffffffffc36011261093257602060405160128152f35b503461093257807ffffffffffffffffffffffffffffffffffffffffffffffffffffffffffffffffc36011261093257602060405173ffffffffffffffffffffffffffffffffffffffff7f0000000000000000000000000000000000000000000000000000000000000000168152f35b503461093257807ffffffffffffffffffffffffffffffffffffffffffffffffffffffffffffffffc3601126109325760206040517f9065ad15d9673159e4597c86084aff8052550cec93c5a6e44b3f1dba4c8731b38152f35b50346109325760207ffffffffffffffffffffffffffffffffffffffffffffffffffffffffffffffffc36011261093257610ac8611c6d565b81549073ffffffffffffffffffffffffffffffffffffffff8216803303610b7c575073ffffffffffffffffffffffffffffffffffffffff16908115610b54577fffffffffffffffffffffffff000000000000000000000000000000000000000016811782557f4ffd725fc4a22075e9ec71c59edf9c38cdeb588a91b24fc5b61388c5be41282b8280a280f35b6004837fd92e233d000000000000000000000000000000000000000000000000000000008152fd5b7fa43d6ada00000000000000000000000000000000000000000000000000000000845233600452602452604483fd5b5060607ffffffffffffffffffffffffffffffffffffffffffffffffffffffffffffffffc36011261093257610bde611c6d565b906024359160443567ffffffffffffffff811161085157610c03903690600401611d9e565b5034610d9f57819273ffffffffffffffffffffffffffffffffffffffff7f000000000000000000000000000000000000000000000000000000000000000016917f0000000000000000000000000000000000000000000000000000000000000000604051907f095ea7b300000000000000000000000000000000000000000000000000000000825260208280610cc08785600484016020909392919373ffffffffffffffffffffffffffffffffffffffff60408201951681520152565b038189895af1918215610d945773ffffffffffffffffffffffffffffffffffffffff92610d77575b5016803b15610d735773ffffffffffffffffffffffffffffffffffffffff9385606492819560405197889687957fad58bdd1000000000000000000000000000000000000000000000000000000008752600487015216602485015260448401525af18015610d6857610d575750f35b81610d6191611cf6565b6109325780f35b6040513d84823e3d90fd5b8480fd5b610d8f9060203d6020116106b7576106aa8183611cf6565b610ce8565b6040513d88823e3d90fd5b6004827f26a33a76000000000000000000000000000000000000000000000000000000008152fd5b503461093257807ffffffffffffffffffffffffffffffffffffffffffffffffffffffffffffffffc3601126109325760206040517f00000000000000000000000000000000000000000000000000000000000000008152f35b503461093257807ffffffffffffffffffffffffffffffffffffffffffffffffffffffffffffffffc36011261093257600160025411610f6f576002805573ffffffffffffffffffffffffffffffffffffffff815416803303610f40575047908115610f18578080808085335af1610e95611e50565b5015610ed6576020826040518181527ff36f4d6622e16a536bbb049064af779cdd483a0b388d347d3752a65f1058bf5b833392a26001600255604051908152f35b608491604051917fcd3f165900000000000000000000000000000000000000000000000000000000835260048301523060248301523360448301526064820152fd5b807f7c946ed70000000000000000000000000000000000000000000000000000000060049252fd5b7fa43d6ada00000000000000000000000000000000000000000000000000000000825233600452602452604490fd5b807f8beb9d160000000000000000000000000000000000000000000000000000000060049252fd5b503461093257807ffffffffffffffffffffffffffffffffffffffffffffffffffffffffffffffffc36011261093257602060405173ffffffffffffffffffffffffffffffffffffffff7f0000000000000000000000000000000000000000000000000000000000000000168152f35b503461093257807ffffffffffffffffffffffffffffffffffffffffffffffffffffffffffffffffc3601126109325773ffffffffffffffffffffffffffffffffffffffff6020915416604051908152f35b503461093257807ffffffffffffffffffffffffffffffffffffffffffffffffffffffffffffffffc3601126109325773ffffffffffffffffffffffffffffffffffffffff815416803303610f40575060026001557fc6ee830f87420db01ff278ee3130b9b56a4e37f9b7d3423cad2cdbab0f88a8188180a180f35b5034610704576110e136611c90565b91600160025411611853576002805560026001541461182b5761110683838387611de4565b805f52600460205260ff60405f205416600581101590816117fe5780156117a5577f1bcc0f4c3fad314e585165815f94ecca9b96690a26d6417d7876448a9a867a6986036115cc5773ffffffffffffffffffffffffffffffffffffffff7f000000000000000000000000000000000000000000000000000000000000000016916040517f70a08231000000000000000000000000000000000000000000000000000000008152306004820152602081602481875afa90811561155f578a9161159a575b5086811061156a57506040517f095ea7b30000000000000000000000000000000000000000000000000000000081527f000000000000000000000000000000000000000000000000000000000000000073ffffffffffffffffffffffffffffffffffffffff166004820152602481018790526020816044818d885af1801561155f57611540575b50611513578791906002036113ad575073ffffffffffffffffffffffffffffffffffffffff7f000000000000000000000000000000000000000000000000000000000000000016803b15610930576040517f5dce049300000000000000000000000000000000000000000000000000000000815273ffffffffffffffffffffffffffffffffffffffff8516600482015260248101869052604481018790529082908290606490829084905af18015610d6857611394575b50507f4d3c486e056cfb79101ca2f7e2e656f03944aae15d67bc0c48d8904b502df6d3936105c7915b87526004602052604087207fffffffffffffffffffffffffffffffffffffffffffffffffffffffffffffff0081541690556040519384938460409194939273ffffffffffffffffffffffffffffffffffffffff606083019616825260208201520152565b8161139e91611cf6565b6113a957855f611307565b8580fd5b6040517f095ea7b30000000000000000000000000000000000000000000000000000000081527f000000000000000000000000000000000000000000000000000000000000000073ffffffffffffffffffffffffffffffffffffffff811660048301526024820187905290916020908390604490829087905af19182156106be5773ffffffffffffffffffffffffffffffffffffffff926114f6575b5016803b15610930576040517fa393aa3e00000000000000000000000000000000000000000000000000000000815273ffffffffffffffffffffffffffffffffffffffff85166004820152602481018690529082908290604490829084905af18015610d68576114e1575b50507f4d3c486e056cfb79101ca2f7e2e656f03944aae15d67bc0c48d8904b502df6d3936105c791611330565b816114eb91611cf6565b6113a957855f6114b4565b61150e9060203d6020116106b7576106aa8183611cf6565b611449565b6024887f4e487b710000000000000000000000000000000000000000000000000000000081526021600452fd5b6115589060203d6020116106b7576106aa8183611cf6565b505f611250565b6040513d8c823e3d90fd5b89876044927fcf479181000000000000000000000000000000000000000000000000000000008352600452602452fd5b90506020813d6020116115c4575b816115b560209383611cf6565b8101031261070457515f6111c9565b3d91506115a8565b90507f8ca9a95e41b5eece253c93f5b31eed1253aed6b145d8a6e14d913fdf8e732293859297969514801561177c575b1561171e575073ffffffffffffffffffffffffffffffffffffffff7f000000000000000000000000000000000000000000000000000000000000000016803b15610704576040517f1ff5affe00000000000000000000000000000000000000000000000000000000815273ffffffffffffffffffffffffffffffffffffffff841660048201526024810185905260448101839052905f908290606490829084905af18015611713576116d7575b506105c7907f4d3c486e056cfb79101ca2f7e2e656f03944aae15d67bc0c48d8904b502df6d3949596611330565b7f4d3c486e056cfb79101ca2f7e2e656f03944aae15d67bc0c48d8904b502df6d3949550906117095f6105c793611cf6565b5f959450906116a9565b6040513d5f823e3d90fd5b919273ffffffffffffffffffffffffffffffffffffffff60a49594604051957f0426d85b0000000000000000000000000000000000000000000000000000000087526004870152166024850152604484015260648301526084820152fd5b507f9065ad15d9673159e4597c86084aff8052550cec93c5a6e44b3f1dba4c8731b382146115fc565b60848487898873ffffffffffffffffffffffffffffffffffffffff604051947f609c8c89000000000000000000000000000000000000000000000000000000008652166004850152602484015260448301526064820152fd5b7f4e487b71000000000000000000000000000000000000000000000000000000005f52602160045260245ffd5b7f9e87fac8000000000000000000000000000000000000000000000000000000005f5260045ffd5b7f8beb9d16000000000000000000000000000000000000000000000000000000005f5260045ffd5b34610704575f7ffffffffffffffffffffffffffffffffffffffffffffffffffffffffffffffffc360112610704576020600154604051908152f35b34610704575f7ffffffffffffffffffffffffffffffffffffffffffffffffffffffffffffffffc360112610704576020604051677fffffffffffffdb8152f35b34610704575f7ffffffffffffffffffffffffffffffffffffffffffffffffffffffffffffffffc3601126107045773ffffffffffffffffffffffffffffffffffffffff5f541680330361196d57600180557f6c531cb182a3041f0f3684410b49258f219bb252550393814a55e29f680afd345f80a1005b7fa43d6ada000000000000000000000000000000000000000000000000000000005f523360045260245260445ffd5b34610704575f7ffffffffffffffffffffffffffffffffffffffffffffffffffffffffffffffffc36011261070457602060405173ffffffffffffffffffffffffffffffffffffffff7f0000000000000000000000000000000000000000000000000000000000000000168152f35b34610704575f7ffffffffffffffffffffffffffffffffffffffffffffffffffffffffffffffffc36011261070457602060405173ffffffffffffffffffffffffffffffffffffffff7f0000000000000000000000000000000000000000000000000000000000000000168152f35b34610704575f7ffffffffffffffffffffffffffffffffffffffffffffffffffffffffffffffffc36011261070457602060405173ffffffffffffffffffffffffffffffffffffffff7f0000000000000000000000000000000000000000000000000000000000000000168152f35b346107045760207ffffffffffffffffffffffffffffffffffffffffffffffffffffffffffffffffc360112610704576004355f526004602052602060ff60405f205416611b366040518092611ce9565bf35b34610704576020611b54611b4b36611c90565b92919091611de4565b604051908152f35b34610704575f7ffffffffffffffffffffffffffffffffffffffffffffffffffffffffffffffffc3601126107045760206040517f1bcc0f4c3fad314e585165815f94ecca9b96690a26d6417d7876448a9a867a698152f35b346107045760207ffffffffffffffffffffffffffffffffffffffffffffffffffffffffffffffffc360112610704576004355f526003602052602060ff60405f2054166040519015158152f35b34610704575f7ffffffffffffffffffffffffffffffffffffffffffffffffffffffffffffffffc3601126107045760209073ffffffffffffffffffffffffffffffffffffffff7f0000000000000000000000000000000000000000000000000000000000000000168152f35b6004359073ffffffffffffffffffffffffffffffffffffffff8216820361070457565b7ffffffffffffffffffffffffffffffffffffffffffffffffffffffffffffffffc6080910112610704576004359060243573ffffffffffffffffffffffffffffffffffffffff8116810361070457906044359060643590565b9060058210156117fe5752565b90601f7fffffffffffffffffffffffffffffffffffffffffffffffffffffffffffffffe0910116810190811067ffffffffffffffff821117611d3757604052565b7f4e487b71000000000000000000000000000000000000000000000000000000005f52604160045260245ffd5b67ffffffffffffffff8111611d3757601f017fffffffffffffffffffffffffffffffffffffffffffffffffffffffffffffffe01660200190565b81601f8201121561070457803590611db582611d64565b92611dc36040519485611cf6565b8284526020838301011161070457815f926020809301838601378301015290565b92909173ffffffffffffffffffffffffffffffffffffffff6040519360208501958652166040840152606083015260808201524660a08201523060c082015260c08152611e3260e082611cf6565b51902090565b90816020910312610704575180151581036107045790565b3d15611e7a573d90611e6182611d64565b91611e6f6040519384611cf6565b82523d5f602084013e565b60609056fea2646970667358221220f5d75e7047076def2ab2a496edd9d8b2b8b62024d39aad716f7d4f79a8cbdfef64736f6c634300081e0033","linkReferences":{}},"methodIdentifiers":{"MAX_CHAIN_ID()":"5bc105c0","STAKE()":"125fdbbc","UNSTAKE()":"dc8df387","UNSTAKE_RETIRED()":"a740c1bf","changeOwner(address)":"a6f9dae1","collector()":"913e77ad","drain()":"9890220b","getBridgingDecimals()":"a8b2ae02","getQueuedHash(bytes32,address,uint256,bytes32)":"163388b2","l1DepositProcessor()":"256359a8","l1SourceChainId()":"9b7bb847","l2MessageRelayer()":"1bad5957","l2TokenRelayer()":"a7be1b50","olas()":"0031d115","owner()":"8da5cb5b","pause()":"8456cb59","paused()":"5c975abb","processedHashes(bytes32)":"07d9c534","queuedHashes(bytes32)":"1b2e7f0a","receiveMessage(bytes)":"f953cec7","redeem(bytes32,address,uint256,bytes32)":"67ef6cb9","relayToL1(address,uint256,bytes)":"9e949b50","stakingManager()":"22828cc2","unpause()":"3f4ba83a"},"id":27}