{"abi":[{"type":"constructor","inputs":[{"name":"_olas","type":"address","internalType":"address"},{"name":"_ve","type":"address","internalType":"address"}],"stateMutability":"nonpayable"},{"type":"function","name":"MAX_LOCK_TIME","inputs":[],"outputs":[{"name":"","type":"uint256","internalType":"uint256"}],"stateMutability":"view"},{"type":"function","name":"PROXY_SLOT","inputs":[],"outputs":[{"name":"","type":"bytes32","internalType":"bytes32"}],"stateMutability":"view"},{"type":"function","name":"castVote","inputs":[{"name":"proposalId","type":"uint256","internalType":"uint256"},{"name":"support","type":"uint8","internalType":"uint8"}],"outputs":[{"name":"","type":"uint256","internalType":"uint256"}],"stateMutability":"nonpayable"},{"type":"function","name":"changeGovernor","inputs":[{"name":"newOlasGovernor","type":"address","internalType":"address"}],"outputs":[],"stateMutability":"nonpayable"},{"type":"function","name":"changeImplementation","inputs":[{"name":"newImplementation","type":"address","internalType":"address"}],"outputs":[],"stateMutability":"nonpayable"},{"type":"function","name":"changeLockTimeIncrease","inputs":[{"name":"newLockTimeIncrease","type":"uint256","internalType":"uint256"}],"outputs":[],"stateMutability":"nonpayable"},{"type":"function","name":"changeOwner","inputs":[{"name":"newOwner","type":"address","internalType":"address"}],"outputs":[],"stateMutability":"nonpayable"},{"type":"function","name":"increaseLock","inputs":[{"name":"olasAmount","type":"uint256","internalType":"uint256"}],"outputs":[{"name":"unlockTimeIncreased","type":"bool","internalType":"bool"}],"stateMutability":"nonpayable"},{"type":"function","name":"initialize","inputs":[],"outputs":[],"stateMutability":"nonpayable"},{"type":"function","name":"lockTimeIncrease","inputs":[],"outputs":[{"name":"","type":"uint256","internalType":"uint256"}],"stateMutability":"view"},{"type":"function","name":"olas","inputs":[],"outputs":[{"name":"","type":"address","internalType":"address"}],"stateMutability":"view"},{"type":"function","name":"olasGovernor","inputs":[],"outputs":[{"name":"","type":"address","internalType":"address"}],"stateMutability":"view"},{"type":"function","name":"owner","inputs":[],"outputs":[{"name":"","type":"address","internalType":"address"}],"stateMutability":"view"},{"type":"function","name":"propose","inputs":[{"name":"targets","type":"address[]","internalType":"address[]"},{"name":"values","type":"uint256[]","internalType":"uint256[]"},{"name":"calldatas","type":"bytes[]","internalType":"bytes[]"},{"name":"description","type":"string","internalType":"string"}],"outputs":[{"name":"","type":"uint256","internalType":"uint256"}],"stateMutability":"nonpayable"},{"type":"function","name":"setGovernorAndCreateFirstLock","inputs":[{"name":"_olasGovernor","type":"address","internalType":"address"}],"outputs":[],"stateMutability":"nonpayable"},{"type":"function","name":"ve","inputs":[],"outputs":[{"name":"","type":"address","internalType":"address"}],"stateMutability":"view"},{"type":"function","name":"withdraw","inputs":[{"name":"to","type":"address","internalType":"address"}],"outputs":[],"stateMutability":"nonpayable"},{"type":"event","name":"ImplementationUpdated","inputs":[{"name":"implementation","type":"address","indexed":true,"internalType":"address"}],"anonymous":false},{"type":"event","name":"LockTimeIncreaseUpdated","inputs":[{"name":"lockTimeIncrease","type":"uint256","indexed":false,"internalType":"uint256"}],"anonymous":false},{"type":"event","name":"OlasGovernorUpdated","inputs":[{"name":"olasGovernor","type":"address","indexed":true,"internalType":"address"}],"anonymous":false},{"type":"event","name":"OwnerUpdated","inputs":[{"name":"owner","type":"address","indexed":true,"internalType":"address"}],"anonymous":false},{"type":"event","name":"Withdraw","inputs":[{"name":"to","type":"address","indexed":true,"internalType":"address"},{"name":"amount","type":"uint256","indexed":false,"internalType":"uint256"}],"anonymous":false},{"type":"error","name":"AlreadyInitialized","inputs":[]},{"type":"error","name":"OwnerOnly","inputs":[{"name":"sender","type":"address","internalType":"address"},{"name":"owner","type":"address","internalType":"address"}]},{"type":"error","name":"ReentrancyGuard","inputs":[]},{"type":"error","name":"ZeroAddress","inputs":[]},{"type":"error","name":"ZeroValue","inputs":[]}],"bytecode":{"object":"0x60c0346100d957601f6119c338819003918201601f19168301916001600160401b038311848410176100dd5780849260409485528339810103126100d957610052602061004b836100f1565b92016100f1565b6001600160a01b0382161580156100c8575b6100b95760805260a0526040516118bd908161010682396080518181816104f601528181610ee80152818161122e0152611367015260a05181818161047b01528181610f7c015281816112d101526116ef0152f35b63d92e233d60e01b5f5260045ffd5b506001600160a01b03811615610064565b5f80fd5b634e487b7160e01b5f52604160045260245ffd5b51906001600160a01b03821682036100d95756fe6080806040526004361015610012575f80fd5b5f905f3560e01c90816231d115146116a75750806317a68dd8146115935780631b4ee445146115425780631c5a0914146112525780631f850716146111e35780632f2d5681146111a757806333f9d8da1461112257806351cff8d914610e465780635678138814610cec5780637d5e81e2146107f35780638129fc1c1461074e5780638da5cb5b146106fd5780639222a101146103a7578063a6f9dae11461028c578063aa3d10df14610233578063e4c0aaf4146101175763fa78668f146100d8575f80fd5b3461011457807ffffffffffffffffffffffffffffffffffffffffffffffffffffffffffffffffc360112610114576020604051630784ce008152f35b80fd5b50346101145760207ffffffffffffffffffffffffffffffffffffffffffffffffffffffffffffffffc3601126101145761014f611713565b73ffffffffffffffffffffffffffffffffffffffff825416803303610204575073ffffffffffffffffffffffffffffffffffffffff1680156101dc57807fffffffffffffffffffffffff000000000000000000000000000000000000000060015416176001557f8c711d87bd923147b7864cc9a3108db249df0e3625bc38464b7195694c996f638280a280f35b6004827fd92e233d000000000000000000000000000000000000000000000000000000008152fd5b7fa43d6ada00000000000000000000000000000000000000000000000000000000835233600452602452604482fd5b503461011457807ffffffffffffffffffffffffffffffffffffffffffffffffffffffffffffffffc3601126101145760206040517f360894a13ba1a3210667c828492db98dca3e2076cc3735a920a3ca505d382bbc8152f35b50346101145760207ffffffffffffffffffffffffffffffffffffffffffffffffffffffffffffffffc360112610114576102c4611713565b81549073ffffffffffffffffffffffffffffffffffffffff8216803303610378575073ffffffffffffffffffffffffffffffffffffffff16908115610350577fffffffffffffffffffffffff000000000000000000000000000000000000000016811782557f4ffd725fc4a22075e9ec71c59edf9c38cdeb588a91b24fc5b61388c5be41282b8280a280f35b6004837fd92e233d000000000000000000000000000000000000000000000000000000008152fd5b7fa43d6ada00000000000000000000000000000000000000000000000000000000845233600452602452604483fd5b50346101145760207ffffffffffffffffffffffffffffffffffffffffffffffffffffffffffffffffc360112610114576103df611713565b60ff825c166106d55760017fffffffffffffffffffffffffffffffffffffffffffffffffffffffffffffff00835c1617825d73ffffffffffffffffffffffffffffffffffffffff825416803303610204575073ffffffffffffffffffffffffffffffffffffffff1680156101dc576040517f70a082310000000000000000000000000000000000000000000000000000000081523060048201527f000000000000000000000000000000000000000000000000000000000000000073ffffffffffffffffffffffffffffffffffffffff16602082602481845afa91821561066a57849261069d575b508115610675576040517f095ea7b30000000000000000000000000000000000000000000000000000000081527f000000000000000000000000000000000000000000000000000000000000000073ffffffffffffffffffffffffffffffffffffffff81166004830152602482018490528593926020908390604490829088905af191821561066a5773ffffffffffffffffffffffffffffffffffffffff9261063d575b501690813b156106395782916044839260405194859384927fb52c05fe0000000000000000000000000000000000000000000000000000000084526004840152630784ce0060248401525af1801561062e57610615575b5050807fffffffffffffffffffffffff000000000000000000000000000000000000000060015416176001557f8c711d87bd923147b7864cc9a3108db249df0e3625bc38464b7195694c996f638280a280f35b8161061f91611736565b61062a57815f6105c2565b5080fd5b6040513d84823e3d90fd5b8280fd5b61065e9060203d602011610663575b6106568183611736565b81019061182c565b61056b565b503d61064c565b6040513d86823e3d90fd5b6004847f7c946ed7000000000000000000000000000000000000000000000000000000008152fd5b9091506020813d6020116106cd575b816106b960209383611736565b810103126106c95751905f6104c7565b5f80fd5b3d91506106ac565b6004827f8beb9d16000000000000000000000000000000000000000000000000000000008152fd5b503461011457807ffffffffffffffffffffffffffffffffffffffffffffffffffffffffffffffffc3601126101145773ffffffffffffffffffffffffffffffffffffffff6020915416604051908152f35b503461011457807ffffffffffffffffffffffffffffffffffffffffffffffffffffffffffffffffc36011261011457805473ffffffffffffffffffffffffffffffffffffffff81166107cb57630784ce006002557fffffffffffffffffffffffff0000000000000000000000000000000000000000163317815580f35b6004827f0dc149f0000000000000000000000000000000000000000000000000000000008152fd5b50346101145760807ffffffffffffffffffffffffffffffffffffffffffffffffffffffffffffffffc360112610114576004359067ffffffffffffffff8211610114573660238301121561011457816004013561084f816117a4565b9261085d6040519485611736565b81845260208401906024829360051b82010190368211610ca757602401915b818310610cbb575050506024359067ffffffffffffffff82116106395736602383011215610639578160040135906108b3826117a4565b926108c16040519485611736565b828452602084016024819460051b83010191368311610c5a57602401905b828210610cab575050506044359167ffffffffffffffff8311610ca75736602384011215610ca757826004013592610916846117a4565b906109246040519283611736565b84825260208201906024829660051b82010190368211610ca35760248101925b828410610c5e575050505060643567ffffffffffffffff8111610c5a5736602382011215610c5a576109809036906024816004013591016117f6565b9260ff875c16610c325760017fffffffffffffffffffffffffffffffffffffffffffffffffffffffffffffff00885c1617875d73ffffffffffffffffffffffffffffffffffffffff875416803303610c035750919287938796979273ffffffffffffffffffffffffffffffffffffffff6001541694604051998a977f7d5e81e20000000000000000000000000000000000000000000000000000000089526084890190608060048b01525180915260a489019290875b818110610bd1575050506020907ffffffffffffffffffffffffffffffffffffffffffffffffffffffffffffffffc8984030160248a01525191828152019290855b818110610bb5575050507ffffffffffffffffffffffffffffffffffffffffffffffffffffffffffffffffc86830301604487015251808252602082019160208260051b820101979285915b838310610b625750505050509083610b078682947ffffffffffffffffffffffffffffffffffffffffffffffffffffffffffffffffc8460209a03016064850152611844565b03925af1908115610b565790610b23575b602090604051908152f35b506020813d602011610b4e575b81610b3d60209383611736565b810103126106c95760209051610b18565b3d9150610b30565b604051903d90823e3d90fd5b929550929650929496602080610ba2837fffffffffffffffffffffffffffffffffffffffffffffffffffffffffffffffe086600196030187528a51611844565b9801930193018996979593899592610ac2565b825185528b98508a965060209485019490920191600101610a77565b825173ffffffffffffffffffffffffffffffffffffffff1685528d9a508c985060209485019490920191600101610a36565b7fa43d6ada00000000000000000000000000000000000000000000000000000000885233600452602452604487fd5b6004877f8beb9d16000000000000000000000000000000000000000000000000000000008152fd5b8680fd5b833567ffffffffffffffff8111610c9f57820136604382011215610c9f57602091610c94839236906044602482013591016117f6565b815201930192610944565b8a80fd5b8880fd5b8480fd5b81358152602091820191016108df565b823573ffffffffffffffffffffffffffffffffffffffff81168103610ce85781526020928301920161087c565b8580fd5b50346101145760407ffffffffffffffffffffffffffffffffffffffffffffffffffffffffffffffffc360112610114576024359060ff82168092036101145760ff815c16610e1e5760017fffffffffffffffffffffffffffffffffffffffffffffffffffffffffffffff00825c1617815d73ffffffffffffffffffffffffffffffffffffffff815416803303610dee575060208192604473ffffffffffffffffffffffffffffffffffffffff600154169160405195869384927f56781388000000000000000000000000000000000000000000000000000000008452600435600485015260248401525af1908115610b565790610b2357602090604051908152f35b604492507fa43d6ada00000000000000000000000000000000000000000000000000000000825233600452602452fd5b807f8beb9d160000000000000000000000000000000000000000000000000000000060049252fd5b50346101145760207ffffffffffffffffffffffffffffffffffffffffffffffffffffffffffffffffc36011261011457610e7e611713565b60ff825c166106d55760017fffffffffffffffffffffffffffffffffffffffffffffffffffffffffffffff00835c1617825d73ffffffffffffffffffffffffffffffffffffffff82541680330361020457508173ffffffffffffffffffffffffffffffffffffffff7f000000000000000000000000000000000000000000000000000000000000000016803b1561062a578180916004604051809481937f3ccfd60b0000000000000000000000000000000000000000000000000000000083525af1801561062e5761110d575b50506040517f70a08231000000000000000000000000000000000000000000000000000000008152306004820152907f000000000000000000000000000000000000000000000000000000000000000073ffffffffffffffffffffffffffffffffffffffff16602083602481845afa92831561066a5784936110d9575b5082611015575b50602073ffffffffffffffffffffffffffffffffffffffff7f884edad9ce6fa2440d8a54cc123490eb96d2768479d49ff9c7366125a9424364926040519485521692a280f35b6040517fa9059cbb00000000000000000000000000000000000000000000000000000000815273ffffffffffffffffffffffffffffffffffffffff8316600482015260248101849052906020908290604490829088905af1801561066a577f884edad9ce6fa2440d8a54cc123490eb96d2768479d49ff9c7366125a94243649260209273ffffffffffffffffffffffffffffffffffffffff926110bc575b50925050610fcf565b6110d290843d8611610663576106568183611736565b505f6110b3565b9092506020813d602011611105575b816110f560209383611736565b810103126106c95751915f610fc8565b3d91506110e8565b8161111791611736565b61062a57815f610f4b565b50346101145760207ffffffffffffffffffffffffffffffffffffffffffffffffffffffffffffffffc3601126101145760043573ffffffffffffffffffffffffffffffffffffffff82541680330361020457506020817f8d657177b0ea98b7f0f05ab1e9905c10fa502f5e1241b6cceca7b3bd3cc5053e92600255604051908152a180f35b503461011457807ffffffffffffffffffffffffffffffffffffffffffffffffffffffffffffffffc360112610114576020600254604051908152f35b503461011457807ffffffffffffffffffffffffffffffffffffffffffffffffffffffffffffffffc36011261011457602060405173ffffffffffffffffffffffffffffffffffffffff7f0000000000000000000000000000000000000000000000000000000000000000168152f35b50346106c95760207ffffffffffffffffffffffffffffffffffffffffffffffffffffffffffffffffc3601126106c957600435905f9060ff5f5c1661151a5760017fffffffffffffffffffffffffffffffffffffffffffffffffffffffffffffff005f5c16175f5d73ffffffffffffffffffffffffffffffffffffffff7f0000000000000000000000000000000000000000000000000000000000000000166040517f23b872dd0000000000000000000000000000000000000000000000000000000081523360048201523060248201528460448201526020816064815f865af180156114d5576114fd575b506040517f095ea7b30000000000000000000000000000000000000000000000000000000081527f000000000000000000000000000000000000000000000000000000000000000073ffffffffffffffffffffffffffffffffffffffff811660048301526024820186905291602090829060449082905f905af180156114d5576114e0575b5073ffffffffffffffffffffffffffffffffffffffff811693843b156106c9575f946024869260405197889384927f15456eba00000000000000000000000000000000000000000000000000000000845260048401525af19384156114d5576020946114c0575b5060025480611441575b5050506040519015158152f35b82935090829182604051878101927f7c616fe6000000000000000000000000000000000000000000000000000000008452602482015260248152611486604482611736565b51925af1903d156114ba573d9061149c826117bc565b916114aa6040519384611736565b8252833d92013e5b5f8080611434565b506114b2565b6114cd9192505f90611736565b5f905f61142a565b6040513d5f823e3d90fd5b6114f89060203d602011610663576106568183611736565b6113c3565b6115159060203d602011610663576106568183611736565b61133e565b7f8beb9d16000000000000000000000000000000000000000000000000000000005f5260045ffd5b346106c9575f7ffffffffffffffffffffffffffffffffffffffffffffffffffffffffffffffffc3601126106c957602073ffffffffffffffffffffffffffffffffffffffff60015416604051908152f35b346106c95760207ffffffffffffffffffffffffffffffffffffffffffffffffffffffffffffffffc3601126106c9576115ca611713565b73ffffffffffffffffffffffffffffffffffffffff5f5416803303611678575073ffffffffffffffffffffffffffffffffffffffff8116908115611650577f360894a13ba1a3210667c828492db98dca3e2076cc3735a920a3ca505d382bbc557f310ba5f1d2ed074b51e2eccd052a47ae9ab7c6b800d1fca3db3999d6a592ca035f80a2005b7fd92e233d000000000000000000000000000000000000000000000000000000005f5260045ffd5b7fa43d6ada000000000000000000000000000000000000000000000000000000005f523360045260245260445ffd5b346106c9575f7ffffffffffffffffffffffffffffffffffffffffffffffffffffffffffffffffc3601126106c95760209073ffffffffffffffffffffffffffffffffffffffff7f0000000000000000000000000000000000000000000000000000000000000000168152f35b6004359073ffffffffffffffffffffffffffffffffffffffff821682036106c957565b90601f7fffffffffffffffffffffffffffffffffffffffffffffffffffffffffffffffe0910116810190811067ffffffffffffffff82111761177757604052565b7f4e487b71000000000000000000000000000000000000000000000000000000005f52604160045260245ffd5b67ffffffffffffffff81116117775760051b60200190565b67ffffffffffffffff811161177757601f017fffffffffffffffffffffffffffffffffffffffffffffffffffffffffffffffe01660200190565b929192611802826117bc565b916118106040519384611736565b8294818452818301116106c9578281602093845f960137010152565b908160209103126106c9575180151581036106c95790565b907fffffffffffffffffffffffffffffffffffffffffffffffffffffffffffffffe0601f602080948051918291828752018686015e5f858286010152011601019056fea264697066735822122045719e4b39d7ac9cbef53375d94b49be761f008e2c104be9b216fe2961f1778064736f6c634300081e0033","linkReferences":{}},"methodIdentifiers":{"MAX_LOCK_TIME()":"fa78668f","PROXY_SLOT()":"aa3d10df","castVote(uint256,uint8)":"56781388","changeGovernor(address)":"e4c0aaf4","changeImplementation(address)":"17a68dd8","changeLockTimeIncrease(uint256)":"33f9d8da","changeOwner(address)":"a6f9dae1","increaseLock(uint256)":"1c5a0914","initialize()":"8129fc1c","lockTimeIncrease()":"2f2d5681","olas()":"0031d115","olasGovernor()":"1b4ee445","owner()":"8da5cb5b","propose(address[],uint256[],bytes[],string)":"7d5e81e2","setGovernorAndCreateFirstLock(address)":"9222a101","ve()":"1f850716","withdraw(address)":"51cff8d9"},"id":11}