{"abi":[{"type":"constructor","inputs":[{"name":"_livenessRatio","type":"uint256","internalType":"uint256"}],"stateMutability":"nonpayable"},{"type":"function","name":"getMultisigNonces","inputs":[{"name":"multisig","type":"address","internalType":"address"}],"outputs":[{"name":"nonces","type":"uint256[]","internalType":"uint256[]"}],"stateMutability":"view"},{"type":"function","name":"isRatioPass","inputs":[{"name":"curNonces","type":"uint256[]","internalType":"uint256[]"},{"name":"lastNonces","type":"uint256[]","internalType":"uint256[]"},{"name":"ts","type":"uint256","internalType":"uint256"}],"outputs":[{"name":"ratioPass","type":"bool","internalType":"bool"}],"stateMutability":"view"},{"type":"function","name":"livenessRatio","inputs":[],"outputs":[{"name":"","type":"uint256","internalType":"uint256"}],"stateMutability":"view"},{"type":"error","name":"ZeroValue","inputs":[]}],"bytecode":{"object":"0x60a034607257601f61065438819003918201601f19168301916001600160401b038311848410176076578084926020946040528339810103126072575180156063576080526040516105c9908161008b82396080518181816102d301526103d60152f35b637c946ed760e01b5f5260045ffd5b5f80fd5b634e487b7160e01b5f52604160045260245ffdfe60806040526004361015610011575f80fd5b5f3560e01c8063184023a5146102f6578063592cf3fb1461029e5763d564c4bf1461003a575f80fd5b346101d95760207ffffffffffffffffffffffffffffffffffffffffffffffffffffffffffffffffc3601126101d95760043573ffffffffffffffffffffffffffffffffffffffff81168091036101d95760409081516100998382610476565b6001815260045f60208301937fffffffffffffffffffffffffffffffffffffffffffffffffffffffffffffffe086013686378551928380927fa0e67e2b0000000000000000000000000000000000000000000000000000000082525afa9081156101e5575f916101ef575b50602073ffffffffffffffffffffffffffffffffffffffff610127600493610559565b51168551928380927f24d5fba00000000000000000000000000000000000000000000000000000000082525afa9081156101e5575f916101af575b5061016f82949392610559565b52815192839260208401916020855251809252830191905f5b818110610196575050500390f35b8251845285945060209384019390920191600101610188565b90506020813d6020116101dd575b816101ca60209383610476565b810103126101d957515f610162565b5f80fd5b3d91506101bd565b84513d5f823e3d90fd5b90503d805f833e6102008183610476565b8101906020818303126101d95780519067ffffffffffffffff82116101d957019080601f830112156101d957815190610238826104e4565b9261024587519485610476565b82845260208085019360051b8201019182116101d957602001915b818310610271575050506020610104565b825173ffffffffffffffffffffffffffffffffffffffff811681036101d957815260209283019201610260565b346101d9575f7ffffffffffffffffffffffffffffffffffffffffffffffffffffffffffffffffc3601126101d95760206040517f00000000000000000000000000000000000000000000000000000000000000008152f35b346101d95760607ffffffffffffffffffffffffffffffffffffffffffffffffffffffffffffffffc3601126101d95760043567ffffffffffffffff81116101d9576103459036906004016104fc565b60243567ffffffffffffffff81116101d9576103659036906004016104fc565b90604435915f9183159081158061045b575b610389575b6020846040519015158152f35b6103a09192935061039990610559565b5192610559565b51918281039281841161042e57670de0b6b3a76400008402938404670de0b6b3a7640000149114171561042e57610401576020917f00000000000000000000000000000000000000000000000000000000000000009104101582808061037c565b7f4e487b71000000000000000000000000000000000000000000000000000000005f52601260045260245ffd5b7f4e487b71000000000000000000000000000000000000000000000000000000005f52601160045260245ffd5b5061046581610559565b5161046f84610559565b5110610377565b90601f7fffffffffffffffffffffffffffffffffffffffffffffffffffffffffffffffe0910116810190811067ffffffffffffffff8211176104b757604052565b7f4e487b71000000000000000000000000000000000000000000000000000000005f52604160045260245ffd5b67ffffffffffffffff81116104b75760051b60200190565b9080601f830112156101d9578135610513816104e4565b926105216040519485610476565b81845260208085019260051b8201019283116101d957602001905b8282106105495750505090565b813581526020918201910161053c565b8051156105665760200190565b7f4e487b71000000000000000000000000000000000000000000000000000000005f52603260045260245ffdfea2646970667358221220fc577a5610439feec8d0719d32fb1cc3533c487e6fbb63245a94d76ec615f87c64736f6c634300081e0033","linkReferences":{}},"methodIdentifiers":{"getMultisigNonces(address)":"d564c4bf","isRatioPass(uint256[],uint256[],uint256)":"184023a5","livenessRatio()":"592cf3fb"},"id":21}