{"abi":[{"type":"constructor","inputs":[{"name":"implementation","type":"address","internalType":"address"},{"name":"proxyData","type":"bytes","internalType":"bytes"}],"stateMutability":"nonpayable"},{"type":"fallback","stateMutability":"payable"},{"type":"function","name":"PROXY_SLOT","inputs":[],"outputs":[{"name":"","type":"bytes32","internalType":"bytes32"}],"stateMutability":"view"},{"type":"function","name":"getImplementation","inputs":[],"outputs":[{"name":"implementation","type":"address","internalType":"address"}],"stateMutability":"view"},{"type":"error","name":"InitializationFailed","inputs":[]},{"type":"error","name":"ZeroImplementationAddress","inputs":[]},{"type":"error","name":"ZeroProxyData","inputs":[]}],"bytecode":{"object":"0x60806040523461012e576102ed8038038061001981610132565b92833981019060408183031261012e5780516001600160a01b0381169182820361012e576020810151906001600160401b03821161012e57019183601f8401121561012e57825161007161006c8261016b565b610132565b9381855260208501956020838301011161012e57815f926020809301885e850101521561011f57815115610110575f928392827f360894a13ba1a3210667c828492db98dca3e2076cc3735a920a3ca505d382bbc5551915af43d1561010b573d6100dd61006c8261016b565b9081525f60203d92013e5b156100fc5760405161016690816101878239f35b630337323560e31b5f5260045ffd5b6100e8565b6376e27ff360e11b5f5260045ffd5b63d02c623d60e01b5f5260045ffd5b5f80fd5b6040519190601f01601f191682016001600160401b0381118382101761015757604052565b634e487b7160e01b5f52604160045260245ffd5b6001600160401b03811161015757601f01601f19166020019056fe6080604052600436106100f2575f3560e01c8063aa3d10df1461009a5763aaf10f42036100f25734610096575f7ffffffffffffffffffffffffffffffffffffffffffffffffffffffffffffffffc3601126100965760207f360894a13ba1a3210667c828492db98dca3e2076cc3735a920a3ca505d382bbc5473ffffffffffffffffffffffffffffffffffffffff60405191168152f35b5f80fd5b34610096575f7ffffffffffffffffffffffffffffffffffffffffffffffffffffffffffffffffc360112610096577f360894a13ba1a3210667c828492db98dca3e2076cc3735a920a3ca505d382bbc60805260206080f35b5f807f360894a13ba1a3210667c828492db98dca3e2076cc3735a920a3ca505d382bbc54368280378136915af43d5f803e1561012c573d5ff35b3d5ffdfea26469706673582212207f9cd4396cc1ca8859f9a2162bed7466391148754ab67bc1292ca6b5340bc80664736f6c634300081e0033","linkReferences":{}},"methodIdentifiers":{"PROXY_SLOT()":"aa3d10df","getImplementation()":"aaf10f42"},"id":3}