{"abi":[{"type":"constructor","inputs":[{"name":"_olas","type":"address","internalType":"address"},{"name":"_serviceManager","type":"address","internalType":"address"},{"name":"_stakingFactory","type":"address","internalType":"address"},{"name":"_safeModuleInitializer","type":"address","internalType":"address"},{"name":"_safeL2","type":"address","internalType":"address"},{"name":"_beacon","type":"address","internalType":"address"},{"name":"_collector","type":"address","internalType":"address"},{"name":"_agentId","type":"uint256","internalType":"uint256"},{"name":"_configHash","type":"bytes32","internalType":"bytes32"}],"stateMutability":"nonpayable"},{"type":"receive","stateMutability":"payable"},{"type":"function","name":"NUM_AGENT_INSTANCES","inputs":[],"outputs":[{"name":"","type":"uint256","internalType":"uint256"}],"stateMutability":"view"},{"type":"function","name":"PROXY_SLOT","inputs":[],"outputs":[{"name":"","type":"bytes32","internalType":"bytes32"}],"stateMutability":"view"},{"type":"function","name":"THRESHOLD","inputs":[],"outputs":[{"name":"","type":"uint256","internalType":"uint256"}],"stateMutability":"view"},{"type":"function","name":"VERSION","inputs":[],"outputs":[{"name":"","type":"string","internalType":"string"}],"stateMutability":"view"},{"type":"function","name":"agentId","inputs":[],"outputs":[{"name":"","type":"uint256","internalType":"uint256"}],"stateMutability":"view"},{"type":"function","name":"beacon","inputs":[],"outputs":[{"name":"","type":"address","internalType":"address"}],"stateMutability":"view"},{"type":"function","name":"changeImplementation","inputs":[{"name":"newImplementation","type":"address","internalType":"address"}],"outputs":[],"stateMutability":"nonpayable"},{"type":"function","name":"changeOwner","inputs":[{"name":"newOwner","type":"address","internalType":"address"}],"outputs":[],"stateMutability":"nonpayable"},{"type":"function","name":"changeStakingProcessorL2","inputs":[{"name":"newStakingProcessorL2","type":"address","internalType":"address"}],"outputs":[],"stateMutability":"nonpayable"},{"type":"function","name":"claim","inputs":[{"name":"stakingProxy","type":"address","internalType":"address"},{"name":"serviceId","type":"uint256","internalType":"uint256"}],"outputs":[{"name":"reward","type":"uint256","internalType":"uint256"}],"stateMutability":"nonpayable"},{"type":"function","name":"collector","inputs":[],"outputs":[{"name":"","type":"address","internalType":"address"}],"stateMutability":"view"},{"type":"function","name":"configHash","inputs":[],"outputs":[{"name":"","type":"bytes32","internalType":"bytes32"}],"stateMutability":"view"},{"type":"function","name":"fallbackHandler","inputs":[],"outputs":[{"name":"","type":"address","internalType":"address"}],"stateMutability":"view"},{"type":"function","name":"getStakedServiceIds","inputs":[{"name":"stakingProxy","type":"address","internalType":"address"}],"outputs":[{"name":"serviceIds","type":"uint256[]","internalType":"uint256[]"}],"stateMutability":"view"},{"type":"function","name":"initialize","inputs":[{"name":"_safeMultisig","type":"address","internalType":"address"},{"name":"_safeSameAddressMultisig","type":"address","internalType":"address"},{"name":"_fallbackHandler","type":"address","internalType":"address"}],"outputs":[],"stateMutability":"nonpayable"},{"type":"function","name":"l2StakingProcessor","inputs":[],"outputs":[{"name":"","type":"address","internalType":"address"}],"stateMutability":"view"},{"type":"function","name":"mapLastStakedServiceIdxs","inputs":[{"name":"","type":"address","internalType":"address"}],"outputs":[{"name":"","type":"uint256","internalType":"uint256"}],"stateMutability":"view"},{"type":"function","name":"mapServiceIdActivityModules","inputs":[{"name":"","type":"uint256","internalType":"uint256"}],"outputs":[{"name":"","type":"address","internalType":"address"}],"stateMutability":"view"},{"type":"function","name":"mapStakedServiceIds","inputs":[{"name":"","type":"address","internalType":"address"},{"name":"","type":"uint256","internalType":"uint256"}],"outputs":[{"name":"","type":"uint256","internalType":"uint256"}],"stateMutability":"view"},{"type":"function","name":"mapStakingProxyBalances","inputs":[{"name":"","type":"address","internalType":"address"}],"outputs":[{"name":"","type":"uint256","internalType":"uint256"}],"stateMutability":"view"},{"type":"function","name":"olas","inputs":[],"outputs":[{"name":"","type":"address","internalType":"address"}],"stateMutability":"view"},{"type":"function","name":"onERC721Received","inputs":[{"name":"","type":"address","internalType":"address"},{"name":"","type":"address","internalType":"address"},{"name":"","type":"uint256","internalType":"uint256"},{"name":"","type":"bytes","internalType":"bytes"}],"outputs":[{"name":"","type":"bytes4","internalType":"bytes4"}],"stateMutability":"nonpayable"},{"type":"function","name":"owner","inputs":[],"outputs":[{"name":"","type":"address","internalType":"address"}],"stateMutability":"view"},{"type":"function","name":"safeL2","inputs":[],"outputs":[{"name":"","type":"address","internalType":"address"}],"stateMutability":"view"},{"type":"function","name":"safeModuleInitializer","inputs":[],"outputs":[{"name":"","type":"address","internalType":"address"}],"stateMutability":"view"},{"type":"function","name":"safeMultisig","inputs":[],"outputs":[{"name":"","type":"address","internalType":"address"}],"stateMutability":"view"},{"type":"function","name":"safeSameAddressMultisig","inputs":[],"outputs":[{"name":"","type":"address","internalType":"address"}],"stateMutability":"view"},{"type":"function","name":"serviceManager","inputs":[],"outputs":[{"name":"","type":"address","internalType":"address"}],"stateMutability":"view"},{"type":"function","name":"serviceRegistry","inputs":[],"outputs":[{"name":"","type":"address","internalType":"address"}],"stateMutability":"view"},{"type":"function","name":"serviceRegistryTokenUtility","inputs":[],"outputs":[{"name":"","type":"address","internalType":"address"}],"stateMutability":"view"},{"type":"function","name":"stake","inputs":[{"name":"stakingProxy","type":"address","internalType":"address"},{"name":"amount","type":"uint256","internalType":"uint256"},{"name":"operation","type":"bytes32","internalType":"bytes32"}],"outputs":[],"stateMutability":"nonpayable"},{"type":"function","name":"stakingFactory","inputs":[],"outputs":[{"name":"","type":"address","internalType":"address"}],"stateMutability":"view"},{"type":"function","name":"unstake","inputs":[{"name":"stakingProxy","type":"address","internalType":"address"},{"name":"amount","type":"uint256","internalType":"uint256"},{"name":"operation","type":"bytes32","internalType":"bytes32"}],"outputs":[],"stateMutability":"nonpayable"},{"type":"event","name":"Claimed","inputs":[{"name":"stakingProxy","type":"address","indexed":true,"internalType":"address"},{"name":"serviceId","type":"uint256","indexed":true,"internalType":"uint256"},{"name":"activityModule","type":"address","indexed":true,"internalType":"address"},{"name":"reward","type":"uint256","indexed":false,"internalType":"uint256"}],"anonymous":false},{"type":"event","name":"CreatedAndDeployed","inputs":[{"name":"serviceId","type":"uint256","indexed":true,"internalType":"uint256"},{"name":"multisig","type":"address","indexed":true,"internalType":"address"},{"name":"activityModule","type":"address","indexed":true,"internalType":"address"}],"anonymous":false},{"type":"event","name":"ImplementationUpdated","inputs":[{"name":"implementation","type":"address","indexed":true,"internalType":"address"}],"anonymous":false},{"type":"event","name":"NativeTokenReceived","inputs":[{"name":"amount","type":"uint256","indexed":false,"internalType":"uint256"}],"anonymous":false},{"type":"event","name":"OwnerUpdated","inputs":[{"name":"owner","type":"address","indexed":true,"internalType":"address"}],"anonymous":false},{"type":"event","name":"ReDeployed","inputs":[{"name":"serviceId","type":"uint256","indexed":true,"internalType":"uint256"},{"name":"multisig","type":"address","indexed":true,"internalType":"address"},{"name":"activityModule","type":"address","indexed":true,"internalType":"address"}],"anonymous":false},{"type":"event","name":"Staked","inputs":[{"name":"stakingProxy","type":"address","indexed":true,"internalType":"address"},{"name":"serviceId","type":"uint256","indexed":true,"internalType":"uint256"},{"name":"activityModule","type":"address","indexed":false,"internalType":"address"}],"anonymous":false},{"type":"event","name":"StakingBalanceUpdated","inputs":[{"name":"operation","type":"bytes32","indexed":true,"internalType":"bytes32"},{"name":"stakingProxy","type":"address","indexed":true,"internalType":"address"},{"name":"numStakes","type":"uint256","indexed":false,"internalType":"uint256"},{"name":"balance","type":"uint256","indexed":false,"internalType":"uint256"}],"anonymous":false},{"type":"event","name":"StakingProcessorL2Updated","inputs":[{"name":"l2StakingProcessor","type":"address","indexed":true,"internalType":"address"}],"anonymous":false},{"type":"event","name":"Unstaked","inputs":[{"name":"stakingProxy","type":"address","indexed":true,"internalType":"address"},{"name":"serviceId","type":"uint256","indexed":true,"internalType":"uint256"},{"name":"activityModule","type":"address","indexed":false,"internalType":"address"}],"anonymous":false},{"type":"error","name":"AlreadyInitialized","inputs":[]},{"type":"error","name":"Overflow","inputs":[{"name":"provided","type":"uint256","internalType":"uint256"},{"name":"max","type":"uint256","internalType":"uint256"}]},{"type":"error","name":"OwnerOnly","inputs":[{"name":"sender","type":"address","internalType":"address"},{"name":"owner","type":"address","internalType":"address"}]},{"type":"error","name":"ReentrancyGuard","inputs":[]},{"type":"error","name":"UnauthorizedAccount","inputs":[{"name":"account","type":"address","internalType":"address"}]},{"type":"error","name":"ZeroAddress","inputs":[]},{"type":"error","name":"ZeroValue","inputs":[]}],"bytecode":{"object":"0x6101e080604052346102a45761012081613b3580380380916100218285610381565b8339810103126102a457610034816103b8565b90610041602082016103b8565b61004d604083016103b8565b610059606084016103b8565b610065608085016103b8565b61007160a086016103b8565b9161007e60c087016103b8565b9361010060e088015197015197600160065560018060a01b038116158015610370575b801561035f575b801561034e575b801561033d575b801561032c575b801561031b575b61030c5787158015610304575b6102f5575f9860209860805260a05260e0528560c05261014052610160526101c0526101a052610180526004604051809481936365e7929560e11b835260018060a01b03165af19081156102b0575f916102bb575b506101005260c051604051632871405160e01b815290602090829060049082905f906001600160a01b03165af19081156102b0575f91610272575b506101205260405161376890816103cd82396080518181816103fe015281816114ae0152611841015260a0518181816104ba0152611985015260c0518181816113bc01528181611a2d01528181611b0101528181611b8501528181611d7e015281816123340152612836015260e0518181816110250152818161120a0152818161195e015281816125910152612e1e0152610100518181816105d401528181611372015261321b0152610120518181816111b20152612414015261014051816123a4015261016051818181611c8b01526122c4015261018051818181610c020152818161252b01526126ce01526101a0518181816118be015261225401526101c051818181610f4c0152611c4b0152f35b90506020813d6020116102a8575b8161028d60209383610381565b810103126102a45761029e906103b8565b5f610161565b5f80fd5b3d9150610280565b6040513d5f823e3d90fd5b90506020813d6020116102ed575b816102d660209383610381565b810103126102a4576102e7906103b8565b5f610126565b3d91506102c9565b637c946ed760e01b5f5260045ffd5b5088156100d1565b63d92e233d60e01b5f5260045ffd5b506001600160a01b038616156100c4565b506001600160a01b038516156100bd565b506001600160a01b038416156100b6565b506001600160a01b038316156100af565b506001600160a01b038216156100a8565b506001600160a01b038716156100a1565b601f909101601f19168101906001600160401b038211908210176103a457604052565b634e487b7160e01b5f52604160045260245ffd5b51906001600160a01b03821682036102a45756fe60e0806040526004361015610046575b50361561001a575f80fd5b7f347c40822e6eef789530725ec7aa62355b81752377bc28795820ab63d9bc2bf96020604051348152a1005b5f60c0525f3560e01c90816231d11514612dd657508063150b7a0214612d2f57806317a68dd814612c1b5780631ff5affe1461243857806328714051146123c857806329134768146123585780633998fdd3146122e85780633bfed5a31461227857806359659e90146122085780635dce049314610f705780636b0f1ce814610f005780636eb61b5814610d34578063705f2e6214610ccd578063757530bc14610c7a578063785ffb37146105305780638da5cb5b14610c26578063913e77ad14610bb6578063a2b0330b14610b32578063a6f9dae114610a30578063aa3d10df146109d6578063aad3ec9614610821578063be0c7b2c146107ba578063c0c53b8b146105f8578063cbcf252a14610588578063ce53047214610535578063d67f743d14610530578063df1f7743146104dd578063e1f1176d14610483578063e267166014610421578063e84f43b7146103c7578063e92c8a5b1461029a578063eed2f252146102475763ffa1ad74146101c0575f61000f565b346102415760c0517ffffffffffffffffffffffffffffffffffffffffffffffffffffffffffffffffc3601126102415761023d6040516101ff81612f58565b600581527f302e312e300000000000000000000000000000000000000000000000000000006020820152604051918291602083526020830190612fe2565b0390f35b60c05180fd5b346102415760c0517ffffffffffffffffffffffffffffffffffffffffffffffffffffffffffffffffc36011261024157602073ffffffffffffffffffffffffffffffffffffffff60035416604051908152f35b346102415760207ffffffffffffffffffffffffffffffffffffffffffffffffffffffffffffffffc360112610241576102d1612e42565b73ffffffffffffffffffffffffffffffffffffffff60c0515416908133036103935773ffffffffffffffffffffffffffffffffffffffff16801561036757807fffffffffffffffffffffffff000000000000000000000000000000000000000060045416176004557f6dc85643e7c909c4ee2c1b8b9c259c1a93239258b78c76e358f8ebab7d4e0ffe60c05160c051a260c05180f35b7fd92e233d0000000000000000000000000000000000000000000000000000000060c05152600460c051fd5b507fa43d6ada0000000000000000000000000000000000000000000000000000000060c0515233600452602452604460c051fd5b346102415760c0517ffffffffffffffffffffffffffffffffffffffffffffffffffffffffffffffffc3601126102415760206040517f00000000000000000000000000000000000000000000000000000000000000008152f35b346102415760207ffffffffffffffffffffffffffffffffffffffffffffffffffffffffffffffffc3601126102415760043560c051526009602052602073ffffffffffffffffffffffffffffffffffffffff604060c051205416604051908152f35b346102415760c0517ffffffffffffffffffffffffffffffffffffffffffffffffffffffffffffffffc3601126102415760206040517f00000000000000000000000000000000000000000000000000000000000000008152f35b346102415760c0517ffffffffffffffffffffffffffffffffffffffffffffffffffffffffffffffffc36011261024157602073ffffffffffffffffffffffffffffffffffffffff60015416604051908152f35b612edd565b346102415760c0517ffffffffffffffffffffffffffffffffffffffffffffffffffffffffffffffffc36011261024157602073ffffffffffffffffffffffffffffffffffffffff60025416604051908152f35b346102415760c0517ffffffffffffffffffffffffffffffffffffffffffffffffffffffffffffffffc36011261024157602060405173ffffffffffffffffffffffffffffffffffffffff7f0000000000000000000000000000000000000000000000000000000000000000168152f35b346102415760607ffffffffffffffffffffffffffffffffffffffffffffffffffffffffffffffffc3601126102415761062f612e42565b610637612e65565b60443573ffffffffffffffffffffffffffffffffffffffff811691908290036102415760c051549273ffffffffffffffffffffffffffffffffffffffff841661078e5773ffffffffffffffffffffffffffffffffffffffff169081158015610770575b8015610768575b6103675773ffffffffffffffffffffffffffffffffffffffff917fffffffffffffffffffffffff00000000000000000000000000000000000000006001541617600155167fffffffffffffffffffffffff000000000000000000000000000000000000000060025416176002557fffffffffffffffffffffffff000000000000000000000000000000000000000060035416176003557fffffffffffffffffffffffff00000000000000000000000000000000000000003391161760c0515560c05160c051f35b5082156106a1565b5073ffffffffffffffffffffffffffffffffffffffff81161561069a565b7f0dc149f00000000000000000000000000000000000000000000000000000000060c05152600460c051fd5b346102415760207ffffffffffffffffffffffffffffffffffffffffffffffffffffffffffffffffc3601126102415773ffffffffffffffffffffffffffffffffffffffff610806612e42565b1660c05152600a6020526020604060c0512054604051908152f35b346102415760407ffffffffffffffffffffffffffffffffffffffffffffffffffffffffffffffffc36011261024157610858612e42565b602435906001600654116109aa5760026006558160c05152600960205273ffffffffffffffffffffffffffffffffffffffff604060c0512054169081330361097a5773ffffffffffffffffffffffffffffffffffffffff1690604051927f379607f500000000000000000000000000000000000000000000000000000000845280600485015260208460248160c051875af192831561096d5760c05193610934575b602094507f8dab6d35466ca3cba614bc5b262979b277949786977e81107f375f7e39f7734a85604051868152a46001600655604051908152f35b92506020843d602011610965575b8161094f60209383612fa1565b810103126109615760209351926108fa565b5f80fd5b3d9150610942565b6040513d60c051823e3d90fd5b7f32b2baa30000000000000000000000000000000000000000000000000000000060c0515233600452602460c051fd5b7f8beb9d160000000000000000000000000000000000000000000000000000000060c05152600460c051fd5b346102415760c0517ffffffffffffffffffffffffffffffffffffffffffffffffffffffffffffffffc3601126102415760206040517f360894a13ba1a3210667c828492db98dca3e2076cc3735a920a3ca505d382bbc8152f35b346102415760207ffffffffffffffffffffffffffffffffffffffffffffffffffffffffffffffffc36011261024157610a67612e42565b60c051549073ffffffffffffffffffffffffffffffffffffffff8216803303610aff575073ffffffffffffffffffffffffffffffffffffffff16908115610367577fffffffffffffffffffffffff00000000000000000000000000000000000000008291161760c051557f4ffd725fc4a22075e9ec71c59edf9c38cdeb588a91b24fc5b61388c5be41282b60c05160c051a260c05180f35b7fa43d6ada0000000000000000000000000000000000000000000000000000000060c0515233600452602452604460c051fd5b346102415760407ffffffffffffffffffffffffffffffffffffffffffffffffffffffffffffffffc36011261024157610b69612e42565b73ffffffffffffffffffffffffffffffffffffffff602435911660c051526008602052604060c05120805482101561024157602091610ba791612f16565b90549060031b1c604051908152f35b346102415760c0517ffffffffffffffffffffffffffffffffffffffffffffffffffffffffffffffffc36011261024157602060405173ffffffffffffffffffffffffffffffffffffffff7f0000000000000000000000000000000000000000000000000000000000000000168152f35b346102415760c0517ffffffffffffffffffffffffffffffffffffffffffffffffffffffffffffffffc36011261024157602073ffffffffffffffffffffffffffffffffffffffff60c0515416604051908152f35b346102415760c0517ffffffffffffffffffffffffffffffffffffffffffffffffffffffffffffffffc36011261024157602073ffffffffffffffffffffffffffffffffffffffff60045416604051908152f35b346102415760207ffffffffffffffffffffffffffffffffffffffffffffffffffffffffffffffffc3601126102415773ffffffffffffffffffffffffffffffffffffffff610d19612e42565b1660c0515260076020526020604060c0512054604051908152f35b346102415760207ffffffffffffffffffffffffffffffffffffffffffffffffffffffffffffffffc36011261024157610d6b612e42565b60c0515073ffffffffffffffffffffffffffffffffffffffff606091168060c05152600a602052604060c05120549081610de8575b505060405180916020820160208352815180915260206040840192019060c0515b818110610dcf575050500390f35b8251845285945060209384019390920191600101610dc1565b90915060c051526008602052604060c051206040518082602082945493848152019060c05152602060c051209260c0515b818110610ee7575050610e2e92500382612fa1565b610e37826130bc565b91610e456040519384612fa1565b8083527fffffffffffffffffffffffffffffffffffffffffffffffffffffffffffffffe0610e72826130bc565b013660208501378260c0515b828110610e8c575050610da0565b6001810190818111610eb657610ea4600192866130e1565b51610eaf82856130e1565b5201610e7e565b7f4e487b710000000000000000000000000000000000000000000000000000000060c051526011600452602460c051fd5b8454835260019485019486945060209093019201610e19565b346102415760c0517ffffffffffffffffffffffffffffffffffffffffffffffffffffffffffffffffc36011261024157602060405173ffffffffffffffffffffffffffffffffffffffff7f0000000000000000000000000000000000000000000000000000000000000000168152f35b3461024157610f7e36612e88565b608052906001600654116109aa57600260065573ffffffffffffffffffffffffffffffffffffffff6004541680330361097a576040517f23b872dd00000000000000000000000000000000000000000000000000000000815273ffffffffffffffffffffffffffffffffffffffff9091166004820152306024820152604481018390526020818060648101038160c05173ffffffffffffffffffffffffffffffffffffffff7f0000000000000000000000000000000000000000000000000000000000000000165af1801561096d576121d1575b5073ffffffffffffffffffffffffffffffffffffffff811660c051526007602052604060c0512054604051907fe77cdcc900000000000000000000000000000000000000000000000000000000825260208260048173ffffffffffffffffffffffffffffffffffffffff87165afa91821561096d5760c0519261219d575b506110da82613025565b938101908110610eb6576110fe81946110f3818461305b565b60a05260a05161303b565b9060a051611175575b8473ffffffffffffffffffffffffffffffffffffffff8581811660c05152600760205282604060c05120556040519260a0518452602084015216907f6b184a2e1bb031993b833150a1d8edfad20ae113b1728dc4ee8365072d4317c3604060805192a3600160065560c05180f35b6040517f095ea7b300000000000000000000000000000000000000000000000000000000815273ffffffffffffffffffffffffffffffffffffffff7f00000000000000000000000000000000000000000000000000000000000000001660048201526024810183905293945091929091906020818060448101038160c05173ffffffffffffffffffffffffffffffffffffffff7f0000000000000000000000000000000000000000000000000000000000000000165af1801561096d57612166575b5073ffffffffffffffffffffffffffffffffffffffff841660c05152600a602052604060c05120549273ffffffffffffffffffffffffffffffffffffffff851660c051526008602052604060c05120549081156120ed575b9060c051915b60a05183106112dd57505050906112d49173ffffffffffffffffffffffffffffffffffffffff9384861660c05152600a602052604060c051205561304e565b91908380611107565b9091946112e990613065565b94828610156117a85773ffffffffffffffffffffffffffffffffffffffff871660c05152600860205261132186604060c05120612f16565b90549060031b1c906040517f4236aff800000000000000000000000000000000000000000000000000000000815282600482015260e08160248173ffffffffffffffffffffffffffffffffffffffff7f0000000000000000000000000000000000000000000000000000000000000000165afa90811561096d5760c05191611721575b5073ffffffffffffffffffffffffffffffffffffffff7f000000000000000000000000000000000000000000000000000000000000000016926040517f4d5a58270000000000000000000000000000000000000000000000000000000081528160048201526020816024816001895af1801561096d576116eb575b506040938451946114308187612fa1565b6001865261150c60207fffffffffffffffffffffffffffffffffffffffffffffffffffffffffffffffe083018036838b01378560c051526009825273ffffffffffffffffffffffffffffffffffffffff8460c0512054166114908a6130d4565b5283519061149e8583612fa1565b60018252368383013763ffffffff7f0000000000000000000000000000000000000000000000000000000000000000166114d7826130d4565b528351809381927fd03ca40a0000000000000000000000000000000000000000000000000000000083528b8960048501613160565b03816001875af180156116df576116a0575b5060206115af928251907fffffffffffffffffffffffffffffffffffffffff0000000000000000000000008760601b168383015260148252611561603483612fa1565b73ffffffffffffffffffffffffffffffffffffffff6002541684518096819482937f0d0d57a80000000000000000000000000000000000000000000000000000000084528a600485016131cf565b039160c051905af190811561169557508b9190611636575b5073ffffffffffffffffffffffffffffffffffffffff611600866115fb839486856115f360019c6130d4565b511691613201565b6130d4565b51169216907f04512cc161e7cfec065a1d4e87e1aeeb214f02087edf7ed655727adf890e150360c05160c051a45b019190611295565b90506020813d821161168d575b8161165060209383612fa1565b810103126102415773ffffffffffffffffffffffffffffffffffffffff6116006001966115fb8e61168185966130f5565b509450509650506115c7565b3d9150611643565b513d60c051823e3d90fd5b6020813d82116116d7575b816116b860209383612fa1565b81010312610241576115af926116cf602092613092565b50925061151e565b3d91506116ab565b82513d60c051823e3d90fd5b6020813d8211611719575b8161170360209383612fa1565b810103126102415761171490613092565b61141f565b3d91506116f6565b905060e0813d82116117a0575b8161173b60e09383612fa1565b810103126102415780516bffffffffffffffffffffffff8116036102415760c0611767602083016130f5565b9161177460608201613116565b5061178160808201613116565b5061178e60a08201613116565b50015160ff81160361024157896113a4565b3d915061172e565b60409081516117b78382612fa1565b600181527fffffffffffffffffffffffffffffffffffffffffffffffffffffffffffffffe083019060c0515b8281106120c7575083516117f681612f58565b600181526bffffffffffffffffffffffff86166020820152611817826130d4565b52611821816130d4565b5083519361182f8186612fa1565b600185528236602087013763ffffffff7f00000000000000000000000000000000000000000000000000000000000000001661186a866130d4565b528051926118788285612fa1565b6001845236602085013780518061033181011067ffffffffffffffff61033183011117611f4457610331613402823973ffffffffffffffffffffffffffffffffffffffff7f000000000000000000000000000000000000000000000000000000000000000016610331820152602081610331810103019060c051f09485156120035773ffffffffffffffffffffffffffffffffffffffff861661191a856130d4565b528151927fe42cdd7c00000000000000000000000000000000000000000000000000000000845230600485015273ffffffffffffffffffffffffffffffffffffffff7f00000000000000000000000000000000000000000000000000000000000000001660248501527f0000000000000000000000000000000000000000000000000000000000000000604485015260c06064850152836119be60c4820184613127565b7ffffffffffffffffffffffffffffffffffffffffffffffffffffffffffffffffc8282030160848301526020808451928381520193019060c051905b8681831061208f575050505080602092600160a4830152038160c05173ffffffffffffffffffffffffffffffffffffffff7f0000000000000000000000000000000000000000000000000000000000000000165af19283156116df5760c0519361205c575b5073ffffffffffffffffffffffffffffffffffffffff611a7e856130d4565b51168360c0515260096020528260c05120907fffffffffffffffffffffffff000000000000000000000000000000000000000082541617905581517f4d5a5827000000000000000000000000000000000000000000000000000000008152836004820152602081602481600173ffffffffffffffffffffffffffffffffffffffff7f0000000000000000000000000000000000000000000000000000000000000000165af180156120505761200f575b50602090611b6a94835195869283927fd03ca40a0000000000000000000000000000000000000000000000000000000084528760048501613160565b0381600173ffffffffffffffffffffffffffffffffffffffff7f0000000000000000000000000000000000000000000000000000000000000000165af1801561200357611fc9575b611d62925060055460207fffffffffffffffffffffffffffffffffffffffff000000000000000000000000611d1560b08551848101904282523360601b8882015286605482015260548152611c08607482612fa1565b5190208651858101907ffe51f64300000000000000000000000000000000000000000000000000000000825273ffffffffffffffffffffffffffffffffffffffff7f000000000000000000000000000000000000000000000000000000000000000016602482015260248152611c7f604482612fa1565b600354928951968794817f000000000000000000000000000000000000000000000000000000000000000060601b168a87015260601b16603485015260c051604885015260c051605c85015260c051607085015260908401525180918484015e810160c0518382015203017fffffffffffffffffffffffffffffffffffffffffffffffffffffffffffffffe08101835282612fa1565b73ffffffffffffffffffffffffffffffffffffffff60015416845196879283927f0d0d57a800000000000000000000000000000000000000000000000000000000845288600485016131cf565b038160c05173ffffffffffffffffffffffffffffffffffffffff7f0000000000000000000000000000000000000000000000000000000000000000165af19384156116df5760c05194611f8e575b50600181018111610eb65760010160055573ffffffffffffffffffffffffffffffffffffffff85163b156102415780517f1794bb3c00000000000000000000000000000000000000000000000000000000815260c05173ffffffffffffffffffffffffffffffffffffffff80861660048401528d16602483015260448201849052818060648101038160c05173ffffffffffffffffffffffffffffffffffffffff8b165af180156116df57611f75575b50611e8273ffffffffffffffffffffffffffffffffffffffff8616838d613201565b73ffffffffffffffffffffffffffffffffffffffff8b1660c05152600860205260c05120805468010000000000000000811015611f4457600195611ee18273ffffffffffffffffffffffffffffffffffffffff94898695018155612f16565b81549060031b907fffffffffffffffffffffffffffffffffffffffffffffffffffffffffffffffff87831b921b1916179055169216907fb265474cabe86712cb61b42bcc2c6781e304a2ee7f52fa468cc21082ac47da7c60c05160c051a461162e565b7f4e487b710000000000000000000000000000000000000000000000000000000060c051526041600452602460c051fd5b60c051611f8191612fa1565b60c051610241578b611e60565b9093506020813d8211611fc1575b81611fa960209383612fa1565b8101031261024157611fba906130f5565b928c611db0565b3d9150611f9c565b6020833d8211611ffb575b81611fe160209383612fa1565b8101031261024157611ff5611d6293613092565b50611bb2565b3d9150611fd4565b50513d60c051823e3d90fd5b906020823d8211612048575b8161202860209383612fa1565b8101031261024157611b6a9461203f602093613092565b50945090611b2e565b3d915061201b565b83513d60c051823e3d90fd5b9092506020813d8211612087575b8161207760209383612fa1565b810103126109615751918c611a5f565b3d915061206a565b600192945083956bffffffffffffffffffffffff60208094965163ffffffff81511684520151168382015201940192018692916119fa565b60209085516120d581612f58565b60c051815260c05183820152828285010152016117e3565b73ffffffffffffffffffffffffffffffffffffffff861660c051526008602052604060c05120805468010000000000000000811015611f445761213591600182018155612f16565b7fffffffffffffffffffffffffffffffffffffffffffffffffffffffffffffffff82549160031b1b1916905561128f565b6020813d602011612195575b8161217f60209383612fa1565b810103126102415761219090613092565b611237565b3d9150612172565b9091506020813d6020116121c9575b816121b960209383612fa1565b81010312610961575190846110d0565b3d91506121ac565b6020813d602011612200575b816121ea60209383612fa1565b81010312610241576121fb90613092565b611052565b3d91506121dd565b346102415760c0517ffffffffffffffffffffffffffffffffffffffffffffffffffffffffffffffffc36011261024157602060405173ffffffffffffffffffffffffffffffffffffffff7f0000000000000000000000000000000000000000000000000000000000000000168152f35b346102415760c0517ffffffffffffffffffffffffffffffffffffffffffffffffffffffffffffffffc36011261024157602060405173ffffffffffffffffffffffffffffffffffffffff7f0000000000000000000000000000000000000000000000000000000000000000168152f35b346102415760c0517ffffffffffffffffffffffffffffffffffffffffffffffffffffffffffffffffc36011261024157602060405173ffffffffffffffffffffffffffffffffffffffff7f0000000000000000000000000000000000000000000000000000000000000000168152f35b346102415760c0517ffffffffffffffffffffffffffffffffffffffffffffffffffffffffffffffffc36011261024157602060405173ffffffffffffffffffffffffffffffffffffffff7f0000000000000000000000000000000000000000000000000000000000000000168152f35b346102415760c0517ffffffffffffffffffffffffffffffffffffffffffffffffffffffffffffffffc36011261024157602060405173ffffffffffffffffffffffffffffffffffffffff7f0000000000000000000000000000000000000000000000000000000000000000168152f35b346109615761244636612e88565b908092600160065411612bf357600260065573ffffffffffffffffffffffffffffffffffffffff600454163303612bc75773ffffffffffffffffffffffffffffffffffffffff165f8181526007602052604081205490928082106126945750837f6b184a2e1bb031993b833150a1d8edfad20ae113b1728dc4ee8365072d4317c360406124d488869561304e565b955b8151908152866020820152a360c051526007602052604060c051205581612503575b600160065560c05180f35b6040517f095ea7b30000000000000000000000000000000000000000000000000000000081527f000000000000000000000000000000000000000000000000000000000000000073ffffffffffffffffffffffffffffffffffffffff81166004830152602482018490526020828060448101038160c05173ffffffffffffffffffffffffffffffffffffffff7f0000000000000000000000000000000000000000000000000000000000000000165af1801561096d57612647575b73ffffffffffffffffffffffffffffffffffffffff91501690813b1561024157604051927f0d231945000000000000000000000000000000000000000000000000000000008452600484015260248301528160448160c0519360c051905af1801561096d5761262e575b806124f8565b60c05161263a91612fa1565b60c0516102415780612628565b6020823d60201161268c575b8161266060209383612fa1565b810103126102415761268673ffffffffffffffffffffffffffffffffffffffff92613092565b506125be565b3d9150612653565b9094825f52600860205260405f2054155f146127935750846126b59161304e565b5f9273ffffffffffffffffffffffffffffffffffffffff7f00000000000000000000000000000000000000000000000000000000000000001691823b15610961575f926064849260405195869384927ffc6f112500000000000000000000000000000000000000000000000000000000845289600485015260248401528a60448401525af191821561278857604086927f6b184a2e1bb031993b833150a1d8edfad20ae113b1728dc4ee8365072d4317c3928695612774575b506124d6565b5f61277e91612fa1565b5f60c0528961276e565b6040513d5f823e3d90fd5b94909250604051907fe77cdcc9000000000000000000000000000000000000000000000000000000008252602082600481865afa918215612788575f92612b91575b506127e26127e892613025565b9361304e565b916127f3818461305b565b928115612b6457818106612b425750505f915b815f52600a60205260405f2054808211612b1357829185915f73ffffffffffffffffffffffffffffffffffffffff7f0000000000000000000000000000000000000000000000000000000000000000165b8382106128965750507f6b184a2e1bb031993b833150a1d8edfad20ae113b1728dc4ee8365072d4317c391604091855f52600a602052825f20556124d6565b92949093505f5260086020526128af8160405f20612f16565b90549060031b1c926040517f2e17de780000000000000000000000000000000000000000000000000000000081528460048201526020816024815f8b5af1801561278857612ae5575b506040517f7a828b280000000000000000000000000000000000000000000000000000000081528460048201526040816024815f885af1801561278857612ac8575b506040517f27de9e320000000000000000000000000000000000000000000000000000000081528460048201526040816024815f885af1801561278857612a9b575b50835f52600960205273ffffffffffffffffffffffffffffffffffffffff60405f205416936040517f9890220b0000000000000000000000000000000000000000000000000000000081526020816004815f8a5af1801561278857612a6d575b508215612a4057867fe85b7860587d17eba1b921a125cf25732cd9e64d1516f196df3c9c8fb8d513f360207fffffffffffffffffffffffffffffffffffffffffffffffffffffffffffffffff6001960197604051908152a301918692859492612857565b7f4e487b71000000000000000000000000000000000000000000000000000000005f52601160045260245ffd5b6020813d8211612a93575b81612a8560209383612fa1565b8101031261096157516129dc565b3d9150612a78565b612abb9060403d8111612ac1575b612ab38183612fa1565b81019061309f565b5061297c565b503d612aa9565b612adf9060403d8111612ac157612ab38183612fa1565b5061293a565b6020813d8211612b0b575b81612afd60209383612fa1565b8101031261096157516128f8565b3d9150612af0565b907f7ae59685000000000000000000000000000000000000000000000000000000005f5260045260245260445ffd5b612b59612b52612b5e9395613065565b948561303b565b61304e565b91612806565b7f4e487b71000000000000000000000000000000000000000000000000000000005f52601260045260245ffd5b91506020823d602011612bbf575b81612bac60209383612fa1565b81010312610961579051906127e26127d5565b3d9150612b9f565b7f32b2baa3000000000000000000000000000000000000000000000000000000005f523360045260245ffd5b7f8beb9d16000000000000000000000000000000000000000000000000000000005f5260045ffd5b346109615760207ffffffffffffffffffffffffffffffffffffffffffffffffffffffffffffffffc36011261096157612c52612e42565b73ffffffffffffffffffffffffffffffffffffffff5f5416803303612d00575073ffffffffffffffffffffffffffffffffffffffff8116908115612cd8577f360894a13ba1a3210667c828492db98dca3e2076cc3735a920a3ca505d382bbc557f310ba5f1d2ed074b51e2eccd052a47ae9ab7c6b800d1fca3db3999d6a592ca035f80a2005b7fd92e233d000000000000000000000000000000000000000000000000000000005f5260045ffd5b7fa43d6ada000000000000000000000000000000000000000000000000000000005f523360045260245260445ffd5b346109615760807ffffffffffffffffffffffffffffffffffffffffffffffffffffffffffffffffc36011261096157612d66612e42565b50612d6f612e65565b5060643567ffffffffffffffff8111610961573660238201121561096157806004013567ffffffffffffffff811161096157369101602401116109615760206040517f150b7a02000000000000000000000000000000000000000000000000000000008152f35b34610961575f7ffffffffffffffffffffffffffffffffffffffffffffffffffffffffffffffffc3601126109615760209073ffffffffffffffffffffffffffffffffffffffff7f0000000000000000000000000000000000000000000000000000000000000000168152f35b6004359073ffffffffffffffffffffffffffffffffffffffff8216820361096157565b6024359073ffffffffffffffffffffffffffffffffffffffff8216820361096157565b7ffffffffffffffffffffffffffffffffffffffffffffffffffffffffffffffffc60609101126109615760043573ffffffffffffffffffffffffffffffffffffffff8116810361096157906024359060443590565b34610961575f7ffffffffffffffffffffffffffffffffffffffffffffffffffffffffffffffffc36011261096157602060405160018152f35b8054821015612f2b575f5260205f2001905f90565b7f4e487b71000000000000000000000000000000000000000000000000000000005f52603260045260245ffd5b6040810190811067ffffffffffffffff821117612f7457604052565b7f4e487b71000000000000000000000000000000000000000000000000000000005f52604160045260245ffd5b90601f7fffffffffffffffffffffffffffffffffffffffffffffffffffffffffffffffe0910116810190811067ffffffffffffffff821117612f7457604052565b907fffffffffffffffffffffffffffffffffffffffffffffffffffffffffffffffe0601f602080948051918291828752018686015e5f8582860101520116010190565b908160011b9180830460021490151715612a4057565b81810292918115918404141715612a4057565b91908203918211612a4057565b8115612b64570490565b7fffffffffffffffffffffffffffffffffffffffffffffffffffffffffffffffff8114612a405760010190565b5190811515820361096157565b91908260409103126109615760206130b683613092565b92015190565b67ffffffffffffffff8111612f745760051b60200190565b805115612f2b5760200190565b8051821015612f2b5760209160051b010190565b519073ffffffffffffffffffffffffffffffffffffffff8216820361096157565b519063ffffffff8216820361096157565b90602080835192838152019201905f5b8181106131445750505090565b825163ffffffff16845260209384019390920191600101613137565b939290936060810194815260606020820152825180955260206080820193015f955b8087106131a157505061319e9394506040818403910152613127565b90565b909360208060019273ffffffffffffffffffffffffffffffffffffffff885116815201950196019590613182565b73ffffffffffffffffffffffffffffffffffffffff61319e949360609383521660208201528160408201520190612fe2565b91909173ffffffffffffffffffffffffffffffffffffffff7f00000000000000000000000000000000000000000000000000000000000000001690813b15610961576040517f095ea7b300000000000000000000000000000000000000000000000000000000815273ffffffffffffffffffffffffffffffffffffffff82166004820152602481018590525f9283908290604490829084905af18015612788576133d8575b5073ffffffffffffffffffffffffffffffffffffffff1691823b156133c9576040517fa694fc3a000000000000000000000000000000000000000000000000000000008152846004820152828160248183885af180156133cd579083916133b4575b505073ffffffffffffffffffffffffffffffffffffffff1690813b156133a6576040517fa72c1e7e000000000000000000000000000000000000000000000000000000008152818160048183875af180156133a957613391575b505060207f9f9e4044c5742cca66ca090b21552bac14645e68bad7a92364a9d9ff18111a1c91604051908152a3565b61339c828092612fa1565b6133a65780613362565b80fd5b6040513d84823e3d90fd5b816133be91612fa1565b6133c957815f613308565b5080fd5b6040513d85823e3d90fd5b6133e59192505f90612fa1565b5f9073ffffffffffffffffffffffffffffffffffffffff6132a656fe608034609057601f61033138819003918201601f19168301916001600160401b03831184841017609457808492602094604052833981010312609057516001600160a01b038116808203609057156081577fa3f0ad74e5423aebfd80d3ef4346578335a9a72aeaee59ff6cb3582b35133d505560405161028890816100a98239f35b63d92e233d60e01b5f5260045ffd5b5f80fd5b634e487b7160e01b5f52604160045260245ffdfe60806040526004361061022e575f3560e01c80632d6b3a6b146100805763aaf10f420361022e573461007c575f7ffffffffffffffffffffffffffffffffffffffffffffffffffffffffffffffffc36011261007c57602061005e61011b565b73ffffffffffffffffffffffffffffffffffffffff60405191168152f35b5f80fd5b3461007c575f7ffffffffffffffffffffffffffffffffffffffffffffffffffffffffffffffffc36011261007c5773ffffffffffffffffffffffffffffffffffffffff7fa3f0ad74e5423aebfd80d3ef4346578335a9a72aeaee59ff6cb3582b35133d50541660805260206080f35b9081602091031261007c575173ffffffffffffffffffffffffffffffffffffffff8116810361007c5790565b6004602073ffffffffffffffffffffffffffffffffffffffff7fa3f0ad74e5423aebfd80d3ef4346578335a9a72aeaee59ff6cb3582b35133d505416604051928380927f5c60da1b0000000000000000000000000000000000000000000000000000000082525afa908115610223575f91610194575090565b602091503d821161021b575b7fffffffffffffffffffffffffffffffffffffffffffffffffffffffffffffffe0601f83011681019181831067ffffffffffffffff8411176101ee576101eb926040528101906100ef565b90565b7f4e487b71000000000000000000000000000000000000000000000000000000005f52604160045260245ffd5b3d91506101a0565b6040513d5f823e3d90fd5b5f8061023861011b565b368280378136915af43d5f803e1561024e573d5ff35b3d5ffdfea264697066735822122074aabd5e1f2112a42916d87b99264284e771f0b90dab97272dc7d1210c96040f64736f6c634300081e0033a2646970667358221220bdd75cabf203f3f248321be051923fbcb698d3b36d7510012595b176098aabb864736f6c634300081e0033","linkReferences":{}},"methodIdentifiers":{"NUM_AGENT_INSTANCES()":"d67f743d","PROXY_SLOT()":"aa3d10df","THRESHOLD()":"785ffb37","VERSION()":"ffa1ad74","agentId()":"e84f43b7","beacon()":"59659e90","changeImplementation(address)":"17a68dd8","changeOwner(address)":"a6f9dae1","changeStakingProcessorL2(address)":"e92c8a5b","claim(address,uint256)":"aad3ec96","collector()":"913e77ad","configHash()":"e1f1176d","fallbackHandler()":"eed2f252","getStakedServiceIds(address)":"6eb61b58","initialize(address,address,address)":"c0c53b8b","l2StakingProcessor()":"757530bc","mapLastStakedServiceIdxs(address)":"be0c7b2c","mapServiceIdActivityModules(uint256)":"e2671660","mapStakedServiceIds(address,uint256)":"a2b0330b","mapStakingProxyBalances(address)":"705f2e62","olas()":"0031d115","onERC721Received(address,address,uint256,bytes)":"150b7a02","owner()":"8da5cb5b","safeL2()":"6b0f1ce8","safeModuleInitializer()":"3bfed5a3","safeMultisig()":"df1f7743","safeSameAddressMultisig()":"ce530472","serviceManager()":"3998fdd3","serviceRegistry()":"cbcf252a","serviceRegistryTokenUtility()":"28714051","stake(address,uint256,bytes32)":"5dce0493","stakingFactory()":"29134768","unstake(address,uint256,bytes32)":"1ff5affe"},"id":23}