{"abi":[{"type":"function","name":"VERSION","inputs":[],"outputs":[{"name":"","type":"string","internalType":"string"}],"stateMutability":"view"},{"type":"function","name":"activityChecker","inputs":[],"outputs":[{"name":"","type":"address","internalType":"address"}],"stateMutability":"view"},{"type":"function","name":"availableRewards","inputs":[],"outputs":[{"name":"","type":"uint256","internalType":"uint256"}],"stateMutability":"view"},{"type":"function","name":"balance","inputs":[],"outputs":[{"name":"","type":"uint256","internalType":"uint256"}],"stateMutability":"view"},{"type":"function","name":"calculateStakingLastReward","inputs":[{"name":"serviceId","type":"uint256","internalType":"uint256"}],"outputs":[{"name":"reward","type":"uint256","internalType":"uint256"}],"stateMutability":"view"},{"type":"function","name":"calculateStakingReward","inputs":[{"name":"serviceId","type":"uint256","internalType":"uint256"}],"outputs":[{"name":"reward","type":"uint256","internalType":"uint256"}],"stateMutability":"view"},{"type":"function","name":"checkpoint","inputs":[],"outputs":[{"name":"","type":"uint256[]","internalType":"uint256[]"},{"name":"","type":"uint256[]","internalType":"uint256[]"},{"name":"","type":"uint256[]","internalType":"uint256[]"}],"stateMutability":"nonpayable"},{"type":"function","name":"claim","inputs":[{"name":"serviceId","type":"uint256","internalType":"uint256"}],"outputs":[{"name":"reward","type":"uint256","internalType":"uint256"}],"stateMutability":"nonpayable"},{"type":"function","name":"deposit","inputs":[{"name":"amount","type":"uint256","internalType":"uint256"}],"outputs":[],"stateMutability":"nonpayable"},{"type":"function","name":"emissionsAmount","inputs":[],"outputs":[{"name":"","type":"uint256","internalType":"uint256"}],"stateMutability":"view"},{"type":"function","name":"epochCounter","inputs":[],"outputs":[{"name":"","type":"uint256","internalType":"uint256"}],"stateMutability":"view"},{"type":"function","name":"getNextRewardCheckpointTimestamp","inputs":[],"outputs":[{"name":"tsNext","type":"uint256","internalType":"uint256"}],"stateMutability":"view"},{"type":"function","name":"getNumServiceIds","inputs":[],"outputs":[{"name":"","type":"uint256","internalType":"uint256"}],"stateMutability":"view"},{"type":"function","name":"getServiceIds","inputs":[],"outputs":[{"name":"","type":"uint256[]","internalType":"uint256[]"}],"stateMutability":"view"},{"type":"function","name":"getServiceInfo","inputs":[{"name":"serviceId","type":"uint256","internalType":"uint256"}],"outputs":[{"name":"sInfo","type":"tuple","internalType":"struct ServiceInfo","components":[{"name":"multisig","type":"address","internalType":"address"},{"name":"owner","type":"address","internalType":"address"},{"name":"nonces","type":"uint256[]","internalType":"uint256[]"},{"name":"tsStart","type":"uint256","internalType":"uint256"},{"name":"reward","type":"uint256","internalType":"uint256"}]}],"stateMutability":"view"},{"type":"function","name":"getStakingState","inputs":[{"name":"serviceId","type":"uint256","internalType":"uint256"}],"outputs":[{"name":"stakingState","type":"uint8","internalType":"enum StakingTokenLocked.StakingState"}],"stateMutability":"view"},{"type":"function","name":"initialize","inputs":[{"name":"_stakingParams","type":"tuple","internalType":"struct StakingTokenLocked.StakingParams","components":[{"name":"maxNumServices","type":"uint256","internalType":"uint256"},{"name":"rewardsPerSecond","type":"uint256","internalType":"uint256"},{"name":"minStakingDeposit","type":"uint256","internalType":"uint256"},{"name":"livenessPeriod","type":"uint256","internalType":"uint256"},{"name":"timeForEmissions","type":"uint256","internalType":"uint256"},{"name":"serviceRegistry","type":"address","internalType":"address"},{"name":"serviceRegistryTokenUtility","type":"address","internalType":"address"},{"name":"stakingToken","type":"address","internalType":"address"},{"name":"stakingManager","type":"address","internalType":"address"},{"name":"activityChecker","type":"address","internalType":"address"}]}],"outputs":[],"stateMutability":"nonpayable"},{"type":"function","name":"livenessPeriod","inputs":[],"outputs":[{"name":"","type":"uint256","internalType":"uint256"}],"stateMutability":"view"},{"type":"function","name":"mapServiceInfo","inputs":[{"name":"","type":"uint256","internalType":"uint256"}],"outputs":[{"name":"multisig","type":"address","internalType":"address"},{"name":"owner","type":"address","internalType":"address"},{"name":"tsStart","type":"uint256","internalType":"uint256"},{"name":"reward","type":"uint256","internalType":"uint256"}],"stateMutability":"view"},{"type":"function","name":"maxNumServices","inputs":[],"outputs":[{"name":"","type":"uint256","internalType":"uint256"}],"stateMutability":"view"},{"type":"function","name":"minStakingDeposit","inputs":[],"outputs":[{"name":"","type":"uint256","internalType":"uint256"}],"stateMutability":"view"},{"type":"function","name":"onERC721Received","inputs":[{"name":"","type":"address","internalType":"address"},{"name":"","type":"address","internalType":"address"},{"name":"","type":"uint256","internalType":"uint256"},{"name":"","type":"bytes","internalType":"bytes"}],"outputs":[{"name":"","type":"bytes4","internalType":"bytes4"}],"stateMutability":"nonpayable"},{"type":"function","name":"rewardsPerSecond","inputs":[],"outputs":[{"name":"","type":"uint256","internalType":"uint256"}],"stateMutability":"view"},{"type":"function","name":"serviceRegistry","inputs":[],"outputs":[{"name":"","type":"address","internalType":"address"}],"stateMutability":"view"},{"type":"function","name":"serviceRegistryTokenUtility","inputs":[],"outputs":[{"name":"","type":"address","internalType":"address"}],"stateMutability":"view"},{"type":"function","name":"setServiceIds","inputs":[{"name":"","type":"uint256","internalType":"uint256"}],"outputs":[{"name":"","type":"uint256","internalType":"uint256"}],"stateMutability":"view"},{"type":"function","name":"stake","inputs":[{"name":"serviceId","type":"uint256","internalType":"uint256"}],"outputs":[],"stateMutability":"nonpayable"},{"type":"function","name":"stakingManager","inputs":[],"outputs":[{"name":"","type":"address","internalType":"address"}],"stateMutability":"view"},{"type":"function","name":"stakingToken","inputs":[],"outputs":[{"name":"","type":"address","internalType":"address"}],"stateMutability":"view"},{"type":"function","name":"timeForEmissions","inputs":[],"outputs":[{"name":"","type":"uint256","internalType":"uint256"}],"stateMutability":"view"},{"type":"function","name":"tsCheckpoint","inputs":[],"outputs":[{"name":"","type":"uint256","internalType":"uint256"}],"stateMutability":"view"},{"type":"function","name":"unstake","inputs":[{"name":"serviceId","type":"uint256","internalType":"uint256"}],"outputs":[{"name":"reward","type":"uint256","internalType":"uint256"}],"stateMutability":"nonpayable"},{"type":"event","name":"Checkpoint","inputs":[{"name":"epoch","type":"uint256","indexed":true,"internalType":"uint256"},{"name":"availableRewards","type":"uint256","indexed":false,"internalType":"uint256"},{"name":"serviceIds","type":"uint256[]","indexed":false,"internalType":"uint256[]"},{"name":"rewards","type":"uint256[]","indexed":false,"internalType":"uint256[]"},{"name":"epochLength","type":"uint256","indexed":false,"internalType":"uint256"}],"anonymous":false},{"type":"event","name":"Deposit","inputs":[{"name":"sender","type":"address","indexed":true,"internalType":"address"},{"name":"amount","type":"uint256","indexed":false,"internalType":"uint256"},{"name":"balance","type":"uint256","indexed":false,"internalType":"uint256"},{"name":"availableRewards","type":"uint256","indexed":false,"internalType":"uint256"}],"anonymous":false},{"type":"event","name":"RewardClaimed","inputs":[{"name":"epoch","type":"uint256","indexed":false,"internalType":"uint256"},{"name":"serviceId","type":"uint256","indexed":true,"internalType":"uint256"},{"name":"owner","type":"address","indexed":true,"internalType":"address"},{"name":"multisig","type":"address","indexed":true,"internalType":"address"},{"name":"nonces","type":"uint256[]","indexed":false,"internalType":"uint256[]"},{"name":"reward","type":"uint256","indexed":false,"internalType":"uint256"}],"anonymous":false},{"type":"event","name":"ServiceStaked","inputs":[{"name":"epoch","type":"uint256","indexed":false,"internalType":"uint256"},{"name":"serviceId","type":"uint256","indexed":true,"internalType":"uint256"},{"name":"owner","type":"address","indexed":true,"internalType":"address"},{"name":"multisig","type":"address","indexed":true,"internalType":"address"},{"name":"nonces","type":"uint256[]","indexed":false,"internalType":"uint256[]"}],"anonymous":false},{"type":"event","name":"ServiceUnstaked","inputs":[{"name":"epoch","type":"uint256","indexed":false,"internalType":"uint256"},{"name":"serviceId","type":"uint256","indexed":true,"internalType":"uint256"},{"name":"owner","type":"address","indexed":true,"internalType":"address"},{"name":"multisig","type":"address","indexed":true,"internalType":"address"},{"name":"nonces","type":"uint256[]","indexed":false,"internalType":"uint256[]"},{"name":"reward","type":"uint256","indexed":false,"internalType":"uint256"},{"name":"availableRewards","type":"uint256","indexed":false,"internalType":"uint256"}],"anonymous":false},{"type":"event","name":"Withdraw","inputs":[{"name":"to","type":"address","indexed":true,"internalType":"address"},{"name":"amount","type":"uint256","indexed":false,"internalType":"uint256"}],"anonymous":false},{"type":"error","name":"AlreadyInitialized","inputs":[]},{"type":"error","name":"ContractOnly","inputs":[{"name":"activityChecker","type":"address","internalType":"address"}]},{"type":"error","name":"LowerThan","inputs":[{"name":"provided","type":"uint256","internalType":"uint256"},{"name":"expected","type":"uint256","internalType":"uint256"}]},{"type":"error","name":"MaxNumServicesReached","inputs":[{"name":"maxNumServices","type":"uint256","internalType":"uint256"}]},{"type":"error","name":"OwnerOnly","inputs":[{"name":"sender","type":"address","internalType":"address"},{"name":"owner","type":"address","internalType":"address"}]},{"type":"error","name":"ServiceNotFound","inputs":[{"name":"serviceId","type":"uint256","internalType":"uint256"}]},{"type":"error","name":"ServiceNotUnstaked","inputs":[{"name":"serviceId","type":"uint256","internalType":"uint256"}]},{"type":"error","name":"TokenTransferFailed","inputs":[{"name":"token","type":"address","internalType":"address"},{"name":"from","type":"address","internalType":"address"},{"name":"to","type":"address","internalType":"address"},{"name":"value","type":"uint256","internalType":"uint256"}]},{"type":"error","name":"UnauthorizedAccount","inputs":[{"name":"account","type":"address","internalType":"address"}]},{"type":"error","name":"WrongServiceState","inputs":[{"name":"state","type":"uint256","internalType":"uint256"},{"name":"serviceId","type":"uint256","internalType":"uint256"}]},{"type":"error","name":"WrongStakingToken","inputs":[{"name":"expected","type":"address","internalType":"address"},{"name":"provided","type":"address","internalType":"address"}]},{"type":"error","name":"ZeroAddress","inputs":[]},{"type":"error","name":"ZeroValue","inputs":[]}],"bytecode":{"object":"0x60808060405234601557612ed0908161001a8239f35b5f80fdfe60806040526004361015610011575f80fd5b5f3560e01c806314b19c5a14610214578063150b7a021461020f57806316a751721461020a5780631f7794081461020557806322828cc21461020057806328714051146101fb5780632e17de78146101f6578063379607f5146101f15780633e732997146101ec57806352c824f5146101e757806372f702f3146101e25780637fbe2833146101dd57806382a8ea58146101d857806383f9eb22146101d3578063879d9090146101ce5780638f9e0a62146101c957806395732361146101c4578063a694fc3a146101bf578063a74466ad146101ba578063afea860b146101b5578063b69ef8a8146101b0578063b6b55f25146101ab578063c2c4c5c1146101a6578063cbcf252a146101a1578063e0b09a061461019c578063e77cdcc914610197578063eacdaabc14610192578063eb338c961461018d578063f189e85a14610188578063f4dce71414610183578063fd0bba8c1461017e5763ffa1ad7414610179575f80fd5b611aee565b611a1e565b611991565b6118eb565b61187d565b6117f8565b6117bd565b611713565b611613565b6115a1565b61140f565b6113d4565b611399565b611303565b610cff565b610cc4565b610c73565b610c38565b610bf4565b610b0e565b610997565b610946565b61090b565b6108d0565b6107a6565b61048d565b61043c565b6103eb565b6103b0565b610376565b6102c5565b610227565b5f91031261022357565b5f80fd5b34610223575f7ffffffffffffffffffffffffffffffffffffffffffffffffffffffffffffffffc360112610223576020600a54604051908152f35b73ffffffffffffffffffffffffffffffffffffffff81160361022357565b60a4359061028d82610262565b565b60c4359061028d82610262565b60e4359061028d82610262565b610104359061028d82610262565b610124359061028d82610262565b346102235760807ffffffffffffffffffffffffffffffffffffffffffffffffffffffffffffffffc360112610223576102ff600435610262565b61030a602435610262565b60643567ffffffffffffffff8111610223573660238201121561022357806004013567ffffffffffffffff81116102235736910160240111610223576040517f150b7a0200000000000000000000000000000000000000000000000000000000815280602081015b0390f35b34610223575f7ffffffffffffffffffffffffffffffffffffffffffffffffffffffffffffffffc3601126102235760205f54604051908152f35b34610223575f7ffffffffffffffffffffffffffffffffffffffffffffffffffffffffffffffffc360112610223576020600454604051908152f35b34610223575f7ffffffffffffffffffffffffffffffffffffffffffffffffffffffffffffffffc36011261022357602073ffffffffffffffffffffffffffffffffffffffff60085416604051908152f35b34610223575f7ffffffffffffffffffffffffffffffffffffffffffffffffffffffffffffffffc36011261022357602073ffffffffffffffffffffffffffffffffffffffff60065416604051908152f35b346102235760207ffffffffffffffffffffffffffffffffffffffffffffffffffffffffffffffffc360112610223576004356104d1815f52600f60205260405f2090565b600181015473ffffffffffffffffffffffffffffffffffffffff163381900361076157506104fd6122a3565b5050906004810154905f5b8351811015610759578461051c8286611bad565b511461052a57600101610508565b9091925b51811461072b5761055f61054460028401611c12565b925473ffffffffffffffffffffffffffffffffffffffff1690565b9061057a610575865f52600f60205260405f2090565b611c66565b610585601054611cad565b90816106cc575b5050610596611ce7565b6105d46105bb6105bb60055473ffffffffffffffffffffffffffffffffffffffff1690565b73ffffffffffffffffffffffffffffffffffffffff1690565b93843b15610223576040517f23b872dd00000000000000000000000000000000000000000000000000000000815230600482015233602482015260448101829052945f908690606490829084905af19485156106c757610372956106ad575b508361069e575b7f6d789d063e079a4c156e77a20008529fc448dca2cd7e5e7a20abf969fffb922673ffffffffffffffffffffffffffffffffffffffff600a549361068b600c54886040519485941698339885611d89565b0390a46040519081529081906020820190565b6106a884836129a3565b61063a565b806106bb5f6106c1936116b2565b80610219565b5f610633565b611d7e565b6106ee6106e86106de61072494611860565b90549060031b1c90565b91611860565b9091907fffffffffffffffffffffffffffffffffffffffffffffffffffffffffffffffff83549160031b92831b921b1916179055565b5f8061058c565b7f6cf2027b000000000000000000000000000000000000000000000000000000005f52600484905260245b5ffd5b90919261052e565b7fa43d6ada000000000000000000000000000000000000000000000000000000005f523360045273ffffffffffffffffffffffffffffffffffffffff1660245260445ffd5b346102235760207ffffffffffffffffffffffffffffffffffffffffffffffffffffffffffffffffc360112610223576004356107ea815f52600f60205260405f2090565b600181015473ffffffffffffffffffffffffffffffffffffffff163381900361076157506108166122a3565b505050600481019182549182156108a8575f610372945561084b815473ffffffffffffffffffffffffffffffffffffffff1690565b9161085684846129a3565b7f31add0166dae59ea66bbc180e4fae85b72fc9b7b5fc7b0f7257e4721a840c96e73ffffffffffffffffffffffffffffffffffffffff600a549461068b87604051938493169760023398019084611db2565b7f7c946ed7000000000000000000000000000000000000000000000000000000005f5260045ffd5b34610223575f7ffffffffffffffffffffffffffffffffffffffffffffffffffffffffffffffffc360112610223576020600e54604051908152f35b34610223575f7ffffffffffffffffffffffffffffffffffffffffffffffffffffffffffffffffc360112610223576020600354604051908152f35b34610223575f7ffffffffffffffffffffffffffffffffffffffffffffffffffffffffffffffffc36011261022357602073ffffffffffffffffffffffffffffffffffffffff60075416604051908152f35b346102235760207ffffffffffffffffffffffffffffffffffffffffffffffffffffffffffffffffc36011261022357610372610a656080610a5f600435805f52600f60205260405f206004604051916109ef83611691565b73ffffffffffffffffffffffffffffffffffffffff815416835273ffffffffffffffffffffffffffffffffffffffff6001820154166020840152604051610a4481610a3d8160028601611bc1565b03826116b2565b60408401526003810154606084015201549384910152611e2b565b90611de2565b6040519081529081906020820190565b6020815260c081019173ffffffffffffffffffffffffffffffffffffffff815116602083015273ffffffffffffffffffffffffffffffffffffffff602082015116604083015260408101519260a060608401528351809152602060e084019401905f5b818110610af857505050608081606060a093015182850152015191015290565b8251865260209586019590920191600101610ad8565b346102235760207ffffffffffffffffffffffffffffffffffffffffffffffffffffffffffffffffc360112610223576004355f6080604051610b4f81611691565b8281528260208201526060604082015282606082015201525f52600f60205261037260405f20600460405191610b8483611691565b73ffffffffffffffffffffffffffffffffffffffff815416835273ffffffffffffffffffffffffffffffffffffffff6001820154166020840152604051610bd281610a3d8160028601611bc1565b6040840152600381015460608401520154608082015260405191829182610a75565b346102235760207ffffffffffffffffffffffffffffffffffffffffffffffffffffffffffffffffc360112610223576020610c30600435611e2b565b604051908152f35b34610223575f7ffffffffffffffffffffffffffffffffffffffffffffffffffffffffffffffffc360112610223576020600c54604051908152f35b34610223575f7ffffffffffffffffffffffffffffffffffffffffffffffffffffffffffffffffc36011261022357602073ffffffffffffffffffffffffffffffffffffffff60095416604051908152f35b34610223575f7ffffffffffffffffffffffffffffffffffffffffffffffffffffffffffffffffc360112610223576020600d54604051908152f35b346102235760207ffffffffffffffffffffffffffffffffffffffffffffffffffffffffffffffffc36011261022357600435610d536105bb60085473ffffffffffffffffffffffffffffffffffffffff1690565b33036112d757610d616122a3565b505050610d76815f52600f60205260405f2090565b90600382019081546112ac576010545f548091146112815750610db46105bb6105bb60055473ffffffffffffffffffffffffffffffffffffffff1690565b5f60405180927fef0e239b0000000000000000000000000000000000000000000000000000000082528180610df187600483019190602083019252565b03915afa9081156106c7575f9161125f575b5060c0810160048151610e1581612037565b610e1e81612037565b036112195750610e496105bb6105bb60065473ffffffffffffffffffffffffffffffffffffffff1690565b604080517f3cebfa4f0000000000000000000000000000000000000000000000000000000081526004810185905291829060249082905afa9081156106c7575f905f926111e7575b5060075473ffffffffffffffffffffffffffffffffffffffff1673ffffffffffffffffffffffffffffffffffffffff821673ffffffffffffffffffffffffffffffffffffffff8216036111a057505060025490816bffffffffffffffffffffffff82161061116457505060200191610f61610f20845173ffffffffffffffffffffffffffffffffffffffff1690565b859073ffffffffffffffffffffffffffffffffffffffff167fffffffffffffffffffffffff0000000000000000000000000000000000000000825416179055565b6001840180547fffffffffffffffffffffffff00000000000000000000000000000000000000001633179055429055610f9981612067565b5f80610fb9845173ffffffffffffffffffffffffffffffffffffffff1690565b6040517fd564c4bf000000000000000000000000000000000000000000000000000000006020820190815273ffffffffffffffffffffffffffffffffffffffff929092166024808301919091528152906110146044836116b2565b60095473ffffffffffffffffffffffffffffffffffffffff169151915afa61103a6120b5565b90156108a8576002936110598260208061106295518301019101612112565b9485910161218c565b6110876105bb6105bb60055473ffffffffffffffffffffffffffffffffffffffff1690565b803b15610223576040517f42842e0e00000000000000000000000000000000000000000000000000000000815233600482015230602482015260448101839052905f908290606490829084905af180156106c757611150575b507faa6b005b4958114a0c90492461c24af6525ae0178db7fbf44125ae9217c69ccb61114b73ffffffffffffffffffffffffffffffffffffffff61113b600a54955173ffffffffffffffffffffffffffffffffffffffff1690565b169460405191829133968361220f565b0390a4005b806106bb5f61115e936116b2565b5f6110e0565b7f491a2bb1000000000000000000000000000000000000000000000000000000005f526bffffffffffffffffffffffff1660045260245260445ffd5b7f5c01c068000000000000000000000000000000000000000000000000000000005f5273ffffffffffffffffffffffffffffffffffffffff9081166004521660245260445ffd5b905061120b915060403d604011611212575b61120381836116b2565b810190612041565b905f610e91565b503d6111f9565b82610756915161122881612037565b61123181612037565b7ff014fe74000000000000000000000000000000000000000000000000000000005f52600452602452604490565b61127b91503d805f833e61127381836116b2565b810190611f76565b5f610e03565b7ffd208615000000000000000000000000000000000000000000000000000000005f5260045260245ffd5b7fb4817ce7000000000000000000000000000000000000000000000000000000005f5260045260245ffd5b7f32b2baa3000000000000000000000000000000000000000000000000000000005f523360045260245ffd5b346102235760207ffffffffffffffffffffffffffffffffffffffffffffffffffffffffffffffffc360112610223576004355f52600f602052608060405f2073ffffffffffffffffffffffffffffffffffffffff8154169073ffffffffffffffffffffffffffffffffffffffff600182015416906004600382015491015491604051938452602084015260408301526060820152f35b34610223575f7ffffffffffffffffffffffffffffffffffffffffffffffffffffffffffffffffc360112610223576020601054604051908152f35b34610223575f7ffffffffffffffffffffffffffffffffffffffffffffffffffffffffffffffffc360112610223576020600b54604051908152f35b346102235760207ffffffffffffffffffffffffffffffffffffffffffffffffffffffffffffffffc36011261022357600435600b549080820180921161156957600c548181018091116115695782600b5580600c5573ffffffffffffffffffffffffffffffffffffffff6007541692604051937f23b872dd000000000000000000000000000000000000000000000000000000005f5233600452306024528360445260205f60648180855af13d15601f3d1160015f51141617165f6060528560405215611513575060408051938452602084019190915282015233907f36af321ec8d3c75236829c5317affd40ddb308863a1236d2d277a4025cccee1e90606090a2005b7fabae3d6d00000000000000000000000000000000000000000000000000000000855273ffffffffffffffffffffffffffffffffffffffff16600485015233602485015230604485015260648401839052608484fd5b611c26565b90602080835192838152019201905f5b81811061158b5750505090565b825184526020938401939092019160010161157e565b34610223575f7ffffffffffffffffffffffffffffffffffffffffffffffffffffffffffffffffc360112610223576115f76116056103726115e06122a3565b91939060405195869560608752606087019061156e565b90858203602087015261156e565b90838203604085015261156e565b34610223575f7ffffffffffffffffffffffffffffffffffffffffffffffffffffffffffffffffc36011261022357602073ffffffffffffffffffffffffffffffffffffffff60055416604051908152f35b7f4e487b71000000000000000000000000000000000000000000000000000000005f52604160045260245ffd5b60a0810190811067ffffffffffffffff8211176116ad57604052565b611664565b90601f7fffffffffffffffffffffffffffffffffffffffffffffffffffffffffffffffe0910116810190811067ffffffffffffffff8211176116ad57604052565b6040519061028d610140836116b2565b6040519061028d610100836116b2565b34610223576101407ffffffffffffffffffffffffffffffffffffffffffffffffffffffffffffffffc360112610223576117bb61174e6116f3565b6004358152602435602082015260443560408201526064356060820152608435608082015261177b610280565b60a082015261178861028f565b60c082015261179561029c565b60e08201526117a26102a9565b6101008201526117b06102b7565b610120820152612597565b005b34610223575f7ffffffffffffffffffffffffffffffffffffffffffffffffffffffffffffffffc360112610223576020600254604051908152f35b34610223575f7ffffffffffffffffffffffffffffffffffffffffffffffffffffffffffffffffc360112610223576020600154604051908152f35b7f4e487b71000000000000000000000000000000000000000000000000000000005f52603260045260245ffd5b6010548110156118785760105f5260205f2001905f90565b611833565b346102235760207ffffffffffffffffffffffffffffffffffffffffffffffffffffffffffffffffc360112610223576004356010548110156102235760209060105f527f1b6847dc741a1b0cd08d278845f9d819d87b734759afb55fe2de5cb82a9ae6720154604051908152f35b34610223575f7ffffffffffffffffffffffffffffffffffffffffffffffffffffffffffffffffc36011261022357604051601080548083525f91825260208301917f1b6847dc741a1b0cd08d278845f9d819d87b734759afb55fe2de5cb82a9ae67291905b81811061197b5761037285611967818703826116b2565b60405191829160208352602083019061156e565b8254845260209093019260019283019201611950565b34610223575f7ffffffffffffffffffffffffffffffffffffffffffffffffffffffffffffffffc36011261022357600e54600354810180911161156957602090604051908152f35b7f4e487b71000000000000000000000000000000000000000000000000000000005f52602160045260245ffd5b919060208301926002821015611a195752565b6119d9565b346102235760207ffffffffffffffffffffffffffffffffffffffffffffffffffffffffffffffffc360112610223576004355f905f52600f60205260405f20604051611a6981611691565b73ffffffffffffffffffffffffffffffffffffffff825416815273ffffffffffffffffffffffffffffffffffffffff6001830154166020820152604051611ab781610a3d8160028701611bc1565b6040820152608060046003840154938460608501520154910152611ae6575b6103729060405191829182611a06565b506001611ad6565b34610223575f7ffffffffffffffffffffffffffffffffffffffffffffffffffffffffffffffffc360112610223576040805190611b2b81836116b2565b6005825260208201917f302e332e3000000000000000000000000000000000000000000000000000000083527fffffffffffffffffffffffffffffffffffffffffffffffffffffffffffffffe0601f8351948593602085525180918160208701528686015e5f85828601015201168101030190f35b8051156118785760200190565b80518210156118785760209160051b010190565b90602082549182815201915f5260205f20905f5b818110611be25750505090565b8254845260209093019260019283019201611bd5565b6040519061028d82611c0b816010611bc1565b03836116b2565b9061028d611c0b9260405193848092611bc1565b7f4e487b71000000000000000000000000000000000000000000000000000000005f52601160045260245ffd5b8181029291811591840414171561156957565b5f81555f6001820155600281018054905f815581611c8f575b50506004815f6003819401550155565b5f5260205f20908101905b81811015611c7f575f8155600101611c9a565b907fffffffffffffffffffffffffffffffffffffffffffffffffffffffffffffffff820191821161156957565b9190820391821161156957565b6010548015611d51577fffffffffffffffffffffffffffffffffffffffffffffffffffffffffffffffff810190601054821015611878577fffffffffffffffffffffffffffffffffffffffffffffffffffffffffffffffff5f916010835260208320010155601055565b7f4e487b71000000000000000000000000000000000000000000000000000000005f52603160045260245ffd5b6040513d5f823e3d90fd5b90606092611da89196959496835260806020840152608083019061156e565b9460408201520152565b939291611dcf906040928652606060208701526060860190611bc1565b930152565b906001820180921161156957565b9190820180921161156957565b7f4e487b71000000000000000000000000000000000000000000000000000000005f52601260045260245ffd5b8115611e26570490565b611def565b905f91611e36612b55565b505093919294905f5b868110611e50575b50505050505050565b82611e5b8284611bad565b5114611e6957600101611e3f565b9395505050809294955083115f14611ea457611e8990611e8f9394611bad565b51611c53565b8115611e265704905b5f808080808080611e47565b915050611eb091611bad565b5190611e98565b51906bffffffffffffffffffffffff8216820361022357565b519061028d82610262565b519063ffffffff8216820361022357565b5190600682101561022357565b67ffffffffffffffff81116116ad5760051b60200190565b9080601f83011215610223578151611f2881611ef9565b92611f3660405194856116b2565b81845260208085019260051b82010192831161022357602001905b828210611f5e5750505090565b60208091611f6b84611edb565b815201910190611f51565b6020818303126102235780519067ffffffffffffffff821161022357016101008183031261022357611fa6611703565b91611fb082611eb7565b8352611fbe60208301611ed0565b602084015260408201516040840152611fd960608301611edb565b6060840152611fea60808301611edb565b6080840152611ffb60a08301611edb565b60a084015261200c60c08301611eec565b60c084015260e082015167ffffffffffffffff81116102235761202f9201611f11565b60e082015290565b60061115611a1957565b9190826040910312610223576120646020835161205d81610262565b9301611eb7565b90565b601054680100000000000000008110156116ad57600181016010556010548110156118785760105f527f1b6847dc741a1b0cd08d278845f9d819d87b734759afb55fe2de5cb82a9ae6720155565b3d1561210d573d9067ffffffffffffffff82116116ad5760405191612102601f82017fffffffffffffffffffffffffffffffffffffffffffffffffffffffffffffffe016602001846116b2565b82523d5f602084013e565b606090565b6020818303126102235780519067ffffffffffffffff821161022357019080601f8301121561022357815161214681611ef9565b9261215460405194856116b2565b81845260208085019260051b82010192831161022357602001905b82821061217c5750505090565b815181526020918201910161216f565b81519167ffffffffffffffff83116116ad576801000000000000000083116116ad5781548383558084106121e9575b50602001905f5260205f205f5b8381106121d55750505050565b6001906020845194019381840155016121c8565b825f528360205f2091820191015b81811061220457506121bb565b5f81556001016121f7565b60409061206493928152816020820152019061156e565b9061223082611ef9565b61223d60405191826116b2565b8281527fffffffffffffffffffffffffffffffffffffffffffffffffffffffffffffffe061226b8294611ef9565b0190602036910137565b949392612295606093611dcf93885260806020890152608088019061156e565b90868203604088015261156e565b6122ab612b55565b91869193979594969184956060998a99826123a5575b505050505082516122e8575b505051156122da57929190565b506122e3611bf8565b929190565b949193909592600a545f5b865181101561233957806123338a600261232d61231d856123166001988f611bad565b5194611bad565b51925f52600f60205260405f2090565b0161218c565b016122f3565b5091949295849750937f48b735a18ed32318d316214e41387be29c52e29df4598f2b8e40fa843be3f940919461239b612374600e5442611cda565b61237d42600e55565b61238e61238987611dd4565b600a55565b8960405194859485612275565b0390a25f806122cd565b916123b791949b508095939a50612226565b996123c185612226565b998083111561251757508a5f9560015b8c82821061248757505050506123fd916123f184611e896123f694611ba0565b611e1c565b8094611de2565b9061241161240a84611ba0565b5193611ba0565b5161241b8b611ba0565b52818111612468575b5050600461244861245192846124398b611ba0565b525f52600f60205260405f2090565b01918254611de2565b90555f5b61245e81600c55565b5f808080806122c1565b61247f6124519394610a5f60049461244894611cda565b939250612424565b81929398829182888a61249a838b611bad565b51906124a591611c53565b906124af91611e1c565b946124bb868095611de2565b9c8c6124c78382611bad565b51966124d291611bad565b51916124dd91611bad565b526124e791611bad565b526124fa905f52600f60205260405f2090565b6004019081549061250a91611de2565b9055600101908c916123d1565b93919492505f5b83811061253857505050509061253391611cda565b612455565b8061254560019285611bad565b518d61255c836125558189611bad565b5192611bad565b528c61256c836125558188611bad565b5261258f600461244861257f8588611bad565b51935f52600f60205260405f2090565b90550161251e565b73ffffffffffffffffffffffffffffffffffffffff6125cb60055473ffffffffffffffffffffffffffffffffffffffff1690565b1661297b57805115801561296f575b8015612963575b8015612957575b6108a85760408101805160028110612927575060a08201916126216105bb845173ffffffffffffffffffffffffffffffffffffffff1690565b1580156128fb575b6128d357610120810190612651825173ffffffffffffffffffffffffffffffffffffffff1690565b803b15612892575061288993612884936128776128366126b5956126b56127f5610100886127106126cf61287c9b519a8b5f5561269c60208501519b6126968d600155565b51600255565b6126a96060850151600355565b608084019d8e51600455565b5173ffffffffffffffffffffffffffffffffffffffff1690565b73ffffffffffffffffffffffffffffffffffffffff167fffffffffffffffffffffffff00000000000000000000000000000000000000006005541617600555565b61277561273460c083015173ffffffffffffffffffffffffffffffffffffffff1690565b73ffffffffffffffffffffffffffffffffffffffff167fffffffffffffffffffffffff00000000000000000000000000000000000000006006541617600655565b6127da61279960e083015173ffffffffffffffffffffffffffffffffffffffff1690565b73ffffffffffffffffffffffffffffffffffffffff167fffffffffffffffffffffffff00000000000000000000000000000000000000006007541617600755565b015173ffffffffffffffffffffffffffffffffffffffff1690565b73ffffffffffffffffffffffffffffffffffffffff167fffffffffffffffffffffffff00000000000000000000000000000000000000006008541617600855565b73ffffffffffffffffffffffffffffffffffffffff167fffffffffffffffffffffffff00000000000000000000000000000000000000006009541617600955565b611c53565b905190611c53565b600d55565b61028d42600e55565b7f601c0c21000000000000000000000000000000000000000000000000000000005f5273ffffffffffffffffffffffffffffffffffffffff1660045260245ffd5b7fd92e233d000000000000000000000000000000000000000000000000000000005f5260045ffd5b506129216105bb61012083015173ffffffffffffffffffffffffffffffffffffffff1690565b15612629565b7f491a2bb1000000000000000000000000000000000000000000000000000000005f52600452600260245260445ffd5b506080810151156125e8565b506060810151156125e1565b506020810151156125da565b7f0dc149f0000000000000000000000000000000000000000000000000000000005f5260045ffd5b600b5482810390811161156957600b5573ffffffffffffffffffffffffffffffffffffffff60075416604051907fa9059cbb000000000000000000000000000000000000000000000000000000005f52826004528360245260205f60448180855af13d15601f3d1160015f51141617165f6060528260405215612a6757505060405191825273ffffffffffffffffffffffffffffffffffffffff16907f884edad9ce6fa2440d8a54cc123490eb96d2768479d49ff9c7366125a942436490602090a2565b7fabae3d6d00000000000000000000000000000000000000000000000000000000825273ffffffffffffffffffffffffffffffffffffffff908116600483015230602483015291909116604482015260648101829052608490fd5b90612acc82611ef9565b612ad960405191826116b2565b8281527fffffffffffffffffffffffffffffffffffffffffffffffffffffffffffffffe0612b078294611ef9565b01905f5b828110612b1757505050565b806060602080938501015201612b0b565b7fffffffffffffffffffffffffffffffffffffffffffffffffffffffffffffffff81146115695760010190565b5f5f6060808182600e5496600c54976010549081151580612cbb575b80612cb2575b612b7f575050565b93509350935050612b8f82612226565b90612b9983612226565b93612ba384612226565b93612bad81612ac2565b925f5b828110612bbc57505050565b612bc86106de82611860565b612bd28288611bad565b52612bef612be08288611bad565b515f52600f60205260405f2090565b612c3c612c0a846003840154868111612caa575b5042611cda565b82612c366002612c2f84965473ffffffffffffffffffffffffffffffffffffffff1690565b9201611c12565b90612d11565b612c468489611bad565b52612c55575b50600101612bb0565b612c876001929b9a612c6b612ca3938554611c53565b612c758d8c611bad565b52612c808c8b611bad565b5190611de2565b99612c928c89611bad565b51612c9d828c611bad565b52612b28565b9990612c4c565b90505f612c03565b50891515612b77565b50612cc68142611cda565b6003541115612b71565b939291611dcf90612ceb60409360608852606088019061156e565b90868203602088015261156e565b90816020910312610223575180151581036102235790565b6040517fd564c4bf000000000000000000000000000000000000000000000000000000006020820190815273ffffffffffffffffffffffffffffffffffffffff9290921660248083019190915281525f946060949093909286908190612d786044866116b2565b60095473ffffffffffffffffffffffffffffffffffffffff16945190855afa612d9f6120b5565b9080612e8f575b80612e83575b612db7575b50505050565b5f93955090612e10612e3c612dd784602080899897518301019101612112565b9760405192839160208301957f184023a50000000000000000000000000000000000000000000000000000000087528b60248501612cd0565b037fffffffffffffffffffffffffffffffffffffffffffffffffffffffffffffffe081018352826116b2565b51915afa612e486120b5565b9080612e78575b612e5c575b808080612db1565b612e7191935060208082518301019101612cf9565b915f612e54565b506020815114612e4f565b508051601f1615612dac565b50603f815111612da656fea2646970667358221220d3afbf147f3aeaacd879e61e8d0f6a3552fdb65217363af1c81aeb22e28e2b8b64736f6c634300081e0033","linkReferences":{}},"methodIdentifiers":{"VERSION()":"ffa1ad74","activityChecker()":"8f9e0a62","availableRewards()":"879d9090","balance()":"b69ef8a8","calculateStakingLastReward(uint256)":"83f9eb22","calculateStakingReward(uint256)":"7fbe2833","checkpoint()":"c2c4c5c1","claim(uint256)":"379607f5","deposit(uint256)":"b6b55f25","emissionsAmount()":"95732361","epochCounter()":"14b19c5a","getNextRewardCheckpointTimestamp()":"f4dce714","getNumServiceIds()":"afea860b","getServiceIds()":"f189e85a","getServiceInfo(uint256)":"82a8ea58","getStakingState(uint256)":"fd0bba8c","initialize((uint256,uint256,uint256,uint256,uint256,address,address,address,address,address))":"e0b09a06","livenessPeriod()":"52c824f5","mapServiceInfo(uint256)":"a74466ad","maxNumServices()":"16a75172","minStakingDeposit()":"e77cdcc9","onERC721Received(address,address,uint256,bytes)":"150b7a02","rewardsPerSecond()":"eacdaabc","serviceRegistry()":"cbcf252a","serviceRegistryTokenUtility()":"28714051","setServiceIds(uint256)":"eb338c96","stake(uint256)":"a694fc3a","stakingManager()":"22828cc2","stakingToken()":"72f702f3","timeForEmissions()":"1f779408","tsCheckpoint()":"3e732997","unstake(uint256)":"2e17de78"},"id":24}