{"abi":[{"type":"constructor","inputs":[{"name":"_stakingFactory","type":"address","internalType":"address"}],"stateMutability":"nonpayable"},{"type":"function","name":"getStakingInfo","inputs":[{"name":"stakingProxy","type":"address","internalType":"address"}],"outputs":[{"name":"bytecodeHash","type":"bytes32","internalType":"bytes32"},{"name":"isEnabled","type":"bool","internalType":"bool"},{"name":"maxNumSlots","type":"uint256","internalType":"uint256"},{"name":"minStakingDeposit","type":"uint256","internalType":"uint256"},{"name":"availableRewards","type":"uint256","internalType":"uint256"}],"stateMutability":"view"},{"type":"function","name":"stakingFactory","inputs":[],"outputs":[{"name":"","type":"address","internalType":"address"}],"stateMutability":"view"},{"type":"error","name":"ZeroAddress","inputs":[]}],"bytecode":{"object":"0x60a034608057601f6104ac38819003918201601f19168301916001600160401b03831184841017608457808492602094604052833981010312608057516001600160a01b038116808203608057156071576080526040516104139081610099823960805181818160cb015261032a0152f35b63d92e233d60e01b5f5260045ffd5b5f80fd5b634e487b7160e01b5f52604160045260245ffdfe6080806040526004361015610012575f80fd5b5f3560e01c90816329134768146102e2575063aa4704f314610032575f80fd5b3461020b5760207ffffffffffffffffffffffffffffffffffffffffffffffffffffffffffffffffc36011261020b5760043573ffffffffffffffffffffffffffffffffffffffff811680910361020b576040517fe8dc705a00000000000000000000000000000000000000000000000000000000815281600482015260608160248173ffffffffffffffffffffffffffffffffffffffff7f0000000000000000000000000000000000000000000000000000000000000000165afa908115610217575f905f9261028b575b503f906040517f16a75172000000000000000000000000000000000000000000000000000000008152602081600481875afa908115610217575f91610259575b50604051907fe77cdcc9000000000000000000000000000000000000000000000000000000008252602082600481885afa918215610217575f92610222575b506020600495604051968780927f879d90900000000000000000000000000000000000000000000000000000000082525afa928315610217575f936101de575b60a0955060405194855215156020850152604084015260608301526080820152f35b92506020853d60201161020f575b816101f96020938361034e565b8101031261020b5760a09451926101bc565b5f80fd5b3d91506101ec565b6040513d5f823e3d90fd5b9491506020853d602011610251575b8161023e6020938361034e565b8101031261020b5793519093602061017c565b3d9150610231565b90506020813d602011610283575b816102746020938361034e565b8101031261020b57515f61013d565b3d9150610267565b9150506060813d6060116102da575b816102a76060938361034e565b8101031261020b5760406102ba826103bc565b916102c7602082016103bc565b50015190811515820361020b575f6100fd565b3d915061029a565b3461020b575f7ffffffffffffffffffffffffffffffffffffffffffffffffffffffffffffffffc36011261020b5760209073ffffffffffffffffffffffffffffffffffffffff7f0000000000000000000000000000000000000000000000000000000000000000168152f35b90601f7fffffffffffffffffffffffffffffffffffffffffffffffffffffffffffffffe0910116810190811067ffffffffffffffff82111761038f57604052565b7f4e487b71000000000000000000000000000000000000000000000000000000005f52604160045260245ffd5b519073ffffffffffffffffffffffffffffffffffffffff8216820361020b5756fea26469706673582212205b9f85b9c60e8cfe03d01ebea4b443c17db52d3bd13be728081c90c921e1cc8b64736f6c634300081e0033","linkReferences":{}},"methodIdentifiers":{"getStakingInfo(address)":"aa4704f3","stakingFactory()":"29134768"},"id":22}