{"abi":[{"type":"constructor","inputs":[{"name":"_olas","type":"address","internalType":"contract ERC20"}],"stateMutability":"nonpayable"},{"type":"function","name":"DOMAIN_SEPARATOR","inputs":[],"outputs":[{"name":"","type":"bytes32","internalType":"bytes32"}],"stateMutability":"view"},{"type":"function","name":"allowance","inputs":[{"name":"","type":"address","internalType":"address"},{"name":"","type":"address","internalType":"address"}],"outputs":[{"name":"","type":"uint256","internalType":"uint256"}],"stateMutability":"view"},{"type":"function","name":"approve","inputs":[{"name":"spender","type":"address","internalType":"address"},{"name":"amount","type":"uint256","internalType":"uint256"}],"outputs":[{"name":"","type":"bool","internalType":"bool"}],"stateMutability":"nonpayable"},{"type":"function","name":"asset","inputs":[],"outputs":[{"name":"","type":"address","internalType":"contract ERC20"}],"stateMutability":"view"},{"type":"function","name":"balanceOf","inputs":[{"name":"","type":"address","internalType":"address"}],"outputs":[{"name":"","type":"uint256","internalType":"uint256"}],"stateMutability":"view"},{"type":"function","name":"calculateCurrentBalances","inputs":[],"outputs":[{"name":"curStakedBalance","type":"uint256","internalType":"uint256"},{"name":"curVaultBalance","type":"uint256","internalType":"uint256"},{"name":"curReserveBalance","type":"uint256","internalType":"uint256"},{"name":"curTotalReserves","type":"uint256","internalType":"uint256"}],"stateMutability":"view"},{"type":"function","name":"convertToAssets","inputs":[{"name":"shares","type":"uint256","internalType":"uint256"}],"outputs":[{"name":"","type":"uint256","internalType":"uint256"}],"stateMutability":"view"},{"type":"function","name":"convertToShares","inputs":[{"name":"assets","type":"uint256","internalType":"uint256"}],"outputs":[{"name":"","type":"uint256","internalType":"uint256"}],"stateMutability":"view"},{"type":"function","name":"decimals","inputs":[],"outputs":[{"name":"","type":"uint8","internalType":"uint8"}],"stateMutability":"view"},{"type":"function","name":"deposit","inputs":[{"name":"assets","type":"uint256","internalType":"uint256"},{"name":"receiver","type":"address","internalType":"address"}],"outputs":[{"name":"shares","type":"uint256","internalType":"uint256"}],"stateMutability":"nonpayable"},{"type":"function","name":"depository","inputs":[],"outputs":[{"name":"","type":"address","internalType":"address"}],"stateMutability":"view"},{"type":"function","name":"distributor","inputs":[],"outputs":[{"name":"","type":"address","internalType":"address"}],"stateMutability":"view"},{"type":"function","name":"initialize","inputs":[{"name":"_treasury","type":"address","internalType":"address"},{"name":"_depository","type":"address","internalType":"address"},{"name":"_distributor","type":"address","internalType":"address"},{"name":"_unstakeRelayer","type":"address","internalType":"address"}],"outputs":[],"stateMutability":"nonpayable"},{"type":"function","name":"maxDeposit","inputs":[{"name":"","type":"address","internalType":"address"}],"outputs":[{"name":"","type":"uint256","internalType":"uint256"}],"stateMutability":"view"},{"type":"function","name":"maxMint","inputs":[{"name":"","type":"address","internalType":"address"}],"outputs":[{"name":"","type":"uint256","internalType":"uint256"}],"stateMutability":"pure"},{"type":"function","name":"maxRedeem","inputs":[{"name":"owner","type":"address","internalType":"address"}],"outputs":[{"name":"","type":"uint256","internalType":"uint256"}],"stateMutability":"view"},{"type":"function","name":"maxWithdraw","inputs":[{"name":"","type":"address","internalType":"address"}],"outputs":[{"name":"","type":"uint256","internalType":"uint256"}],"stateMutability":"pure"},{"type":"function","name":"mint","inputs":[{"name":"","type":"uint256","internalType":"uint256"},{"name":"","type":"address","internalType":"address"}],"outputs":[{"name":"","type":"uint256","internalType":"uint256"}],"stateMutability":"pure"},{"type":"function","name":"name","inputs":[],"outputs":[{"name":"","type":"string","internalType":"string"}],"stateMutability":"view"},{"type":"function","name":"nonces","inputs":[{"name":"","type":"address","internalType":"address"}],"outputs":[{"name":"","type":"uint256","internalType":"uint256"}],"stateMutability":"view"},{"type":"function","name":"permit","inputs":[{"name":"owner","type":"address","internalType":"address"},{"name":"spender","type":"address","internalType":"address"},{"name":"value","type":"uint256","internalType":"uint256"},{"name":"deadline","type":"uint256","internalType":"uint256"},{"name":"v","type":"uint8","internalType":"uint8"},{"name":"r","type":"bytes32","internalType":"bytes32"},{"name":"s","type":"bytes32","internalType":"bytes32"}],"outputs":[],"stateMutability":"nonpayable"},{"type":"function","name":"previewDeposit","inputs":[{"name":"assets","type":"uint256","internalType":"uint256"}],"outputs":[{"name":"","type":"uint256","internalType":"uint256"}],"stateMutability":"view"},{"type":"function","name":"previewMint","inputs":[{"name":"shares","type":"uint256","internalType":"uint256"}],"outputs":[{"name":"","type":"uint256","internalType":"uint256"}],"stateMutability":"view"},{"type":"function","name":"previewRedeem","inputs":[{"name":"shares","type":"uint256","internalType":"uint256"}],"outputs":[{"name":"","type":"uint256","internalType":"uint256"}],"stateMutability":"view"},{"type":"function","name":"previewWithdraw","inputs":[{"name":"assets","type":"uint256","internalType":"uint256"}],"outputs":[{"name":"","type":"uint256","internalType":"uint256"}],"stateMutability":"view"},{"type":"function","name":"redeem","inputs":[{"name":"shares","type":"uint256","internalType":"uint256"},{"name":"receiver","type":"address","internalType":"address"},{"name":"tokenOwner","type":"address","internalType":"address"}],"outputs":[{"name":"assets","type":"uint256","internalType":"uint256"}],"stateMutability":"nonpayable"},{"type":"function","name":"reserveBalance","inputs":[],"outputs":[{"name":"","type":"uint256","internalType":"uint256"}],"stateMutability":"view"},{"type":"function","name":"stakedBalance","inputs":[],"outputs":[{"name":"","type":"uint256","internalType":"uint256"}],"stateMutability":"view"},{"type":"function","name":"symbol","inputs":[],"outputs":[{"name":"","type":"string","internalType":"string"}],"stateMutability":"view"},{"type":"function","name":"syncStakeBalances","inputs":[{"name":"reserveAmount","type":"uint256","internalType":"uint256"},{"name":"stakeAmount","type":"uint256","internalType":"uint256"},{"name":"topUp","type":"uint256","internalType":"uint256"},{"name":"direction","type":"bool","internalType":"bool"}],"outputs":[],"stateMutability":"nonpayable"},{"type":"function","name":"topUpRetiredBalance","inputs":[{"name":"amount","type":"uint256","internalType":"uint256"}],"outputs":[],"stateMutability":"nonpayable"},{"type":"function","name":"topUpVaultBalance","inputs":[{"name":"amount","type":"uint256","internalType":"uint256"}],"outputs":[],"stateMutability":"nonpayable"},{"type":"function","name":"totalAssets","inputs":[],"outputs":[{"name":"","type":"uint256","internalType":"uint256"}],"stateMutability":"view"},{"type":"function","name":"totalReserves","inputs":[],"outputs":[{"name":"","type":"uint256","internalType":"uint256"}],"stateMutability":"view"},{"type":"function","name":"totalSupply","inputs":[],"outputs":[{"name":"","type":"uint256","internalType":"uint256"}],"stateMutability":"view"},{"type":"function","name":"transfer","inputs":[{"name":"to","type":"address","internalType":"address"},{"name":"amount","type":"uint256","internalType":"uint256"}],"outputs":[{"name":"","type":"bool","internalType":"bool"}],"stateMutability":"nonpayable"},{"type":"function","name":"transferFrom","inputs":[{"name":"from","type":"address","internalType":"address"},{"name":"to","type":"address","internalType":"address"},{"name":"amount","type":"uint256","internalType":"uint256"}],"outputs":[{"name":"","type":"bool","internalType":"bool"}],"stateMutability":"nonpayable"},{"type":"function","name":"treasury","inputs":[],"outputs":[{"name":"","type":"address","internalType":"address"}],"stateMutability":"view"},{"type":"function","name":"unstakeRelayer","inputs":[],"outputs":[{"name":"","type":"address","internalType":"address"}],"stateMutability":"view"},{"type":"function","name":"vaultBalance","inputs":[],"outputs":[{"name":"","type":"uint256","internalType":"uint256"}],"stateMutability":"view"},{"type":"function","name":"withdraw","inputs":[{"name":"","type":"uint256","internalType":"uint256"},{"name":"","type":"address","internalType":"address"},{"name":"","type":"address","internalType":"address"}],"outputs":[{"name":"","type":"uint256","internalType":"uint256"}],"stateMutability":"pure"},{"type":"event","name":"Approval","inputs":[{"name":"owner","type":"address","indexed":true,"internalType":"address"},{"name":"spender","type":"address","indexed":true,"internalType":"address"},{"name":"amount","type":"uint256","indexed":false,"internalType":"uint256"}],"anonymous":false},{"type":"event","name":"Deposit","inputs":[{"name":"caller","type":"address","indexed":true,"internalType":"address"},{"name":"owner","type":"address","indexed":true,"internalType":"address"},{"name":"assets","type":"uint256","indexed":false,"internalType":"uint256"},{"name":"shares","type":"uint256","indexed":false,"internalType":"uint256"}],"anonymous":false},{"type":"event","name":"Initialized","inputs":[{"name":"treasury","type":"address","indexed":true,"internalType":"address"},{"name":"depository","type":"address","indexed":true,"internalType":"address"},{"name":"dstributor","type":"address","indexed":true,"internalType":"address"},{"name":"unstakeRelayer","type":"address","indexed":false,"internalType":"address"}],"anonymous":false},{"type":"event","name":"TotalReservesUpdated","inputs":[{"name":"stakedBalance","type":"uint256","indexed":false,"internalType":"uint256"},{"name":"vaultBalance","type":"uint256","indexed":false,"internalType":"uint256"},{"name":"reserveBalance","type":"uint256","indexed":false,"internalType":"uint256"},{"name":"totalReserves","type":"uint256","indexed":false,"internalType":"uint256"}],"anonymous":false},{"type":"event","name":"Transfer","inputs":[{"name":"from","type":"address","indexed":true,"internalType":"address"},{"name":"to","type":"address","indexed":true,"internalType":"address"},{"name":"amount","type":"uint256","indexed":false,"internalType":"uint256"}],"anonymous":false},{"type":"event","name":"Withdraw","inputs":[{"name":"caller","type":"address","indexed":true,"internalType":"address"},{"name":"receiver","type":"address","indexed":true,"internalType":"address"},{"name":"owner","type":"address","indexed":true,"internalType":"address"},{"name":"assets","type":"uint256","indexed":false,"internalType":"uint256"},{"name":"shares","type":"uint256","indexed":false,"internalType":"uint256"}],"anonymous":false},{"type":"error","name":"AlreadyInitialized","inputs":[]},{"type":"error","name":"DepositoryOnly","inputs":[{"name":"sender","type":"address","internalType":"address"},{"name":"depository","type":"address","internalType":"address"}]},{"type":"error","name":"DistributorOnly","inputs":[{"name":"sender","type":"address","internalType":"address"},{"name":"distributor","type":"address","internalType":"address"}]},{"type":"error","name":"NotImplemented","inputs":[]},{"type":"error","name":"Overflow","inputs":[{"name":"provided","type":"uint256","internalType":"uint256"},{"name":"max","type":"uint256","internalType":"uint256"}]},{"type":"error","name":"TreasuryOnly","inputs":[{"name":"sender","type":"address","internalType":"address"},{"name":"treasury","type":"address","internalType":"address"}]},{"type":"error","name":"UnstakeRelayerOnly","inputs":[{"name":"sender","type":"address","internalType":"address"},{"name":"unstakeRelayer","type":"address","internalType":"address"}]},{"type":"error","name":"ZeroAddress","inputs":[]},{"type":"error","name":"ZeroValue","inputs":[]}],"bytecode":{"object":"0x61010080604052346104a05760208161287b803803809161002082856104b7565b8339810103126104a057516001600160a01b0381168082036104a0576040519161004b6040846104b7565b600b83526a5374616b6564204f4c415360a81b602084015260046020604051936100766040866104b7565b600685526573744f4c415360d01b8286015260405163313ce56760e01b815292839182905afa9081156104ac575f9161046c575b5083516001600160401b03811161039d576100c55f546104da565b601f811161041d575b50602094601f82116001146103bc579481929394955f926103b1575b50508160011b915f199060031b1c1916175f555b82516001600160401b03811161039d576101196001546104da565b601f811161033a575b506020601f82116001146102d757819293945f926102cc575b50508160011b915f199060031b1c1916176001555b6080524660a0526040515f905f549181610169846104da565b9182825260208201946001811690815f146102b05750600114610266575b610193925003826104b7565b51902060405160208101917f8b73c3c69bb8fe3d512ecc4cf759cc79239f7b179b0ffacaa9a75d522b39400f835260408201527fc89efdaa54c0f20c7adf612882df0950f5a951637e0307cdcb4c672f298b8bc660608201524660808201523060a082015260a0815261020760c0826104b7565b51902060c05260e05260405161234890816105138239608051816118e5015260a051816120f0015260c05181612116015260e0518181816105090152818161064601528181610e780152818161116e0152818161185201526119e50152f35b505f80805290915f51602061285b5f395f51905f525b81831061029457505090602061019392820101610187565b602091935080600191548385880101520191019091839261027c565b60ff191686525061019392151560051b82016020019050610187565b015190505f8061013b565b601f1982169060015f52805f20915f5b8181106103225750958360019596971061030a575b505050811b01600155610150565b01515f1960f88460031b161c191690555f80806102fc565b9192602060018192868b0151815501940192016102e7565b60015f527fb10e2d527612073b26eecdfd717e6a320cf44b4afac2b0732d9fcbe2b7fa0cf6601f830160051c81019160208410610393575b601f0160051c01905b8181106103885750610122565b5f815560010161037b565b9091508190610372565b634e487b7160e01b5f52604160045260245ffd5b015190505f806100ea565b601f198216955f8052805f20915f5b888110610405575083600195969798106103ed575b505050811b015f556100fe565b01515f1960f88460031b161c191690555f80806103e0565b919260206001819286850151815501940192016103cb565b5f80525f51602061285b5f395f51905f52601f830160051c81019160208410610462575b601f0160051c01905b81811061045757506100ce565b5f815560010161044a565b9091508190610441565b90506020813d6020116104a4575b81610487602093836104b7565b810103126104a0575160ff811681036104a0575f6100aa565b5f80fd5b3d915061047a565b6040513d5f823e3d90fd5b601f909101601f19168101906001600160401b0382119082101761039d57604052565b90600182811c92168015610508575b60208310146104f457565b634e487b7160e01b5f52602260045260245ffd5b91607f16916104e956fe6080806040526004361015610012575f80fd5b5f3560e01c90816301e1d11414611e555750806306fdde0314611d9557806307a2d13a14611d41578063095ea7b314611c9e5780630a28a47714611c485780630bf6cc0814611c0d57806318160ddd14611bd257806323b872dd14611aae5780632b5064cc14611909578063313ce567146118ae5780633644e5151461187657806338d52e0f14611808578063402d267d146117a65780634cdad506146117535780635b9f00161461171857806361d027b3146116c75780636e553f65146115a457806370a0823114610818578063741285fd146115495780637ecebe00146114e65780638f840ddd146114ab57806394bf804d1461144b57806395d89b4114611335578063a10954fe146112fa578063a9059cbb14611246578063b3b50c6f14611074578063b3d7f6b914611020578063b460af9414610fe7578063ba08765214610c6b578063bedd12a514610c1a578063bfe1092814610bc9578063c63d75b614610b6e578063c6e6f59214610b73578063ce96cb7714610b6e578063d505accf146108cc578063d69c649f1461087b578063d905777e14610818578063dd62ed3e1461078c578063ef8b30f714610728578063f105ab6e146104205763f8c8765e146101df575f80fd5b3461041c5760807ffffffffffffffffffffffffffffffffffffffffffffffffffffffffffffffffc36011261041c57610216611f94565b61021e611fb7565b906044359173ffffffffffffffffffffffffffffffffffffffff831680930361041c576064359173ffffffffffffffffffffffffffffffffffffffff831680930361041c57600a549073ffffffffffffffffffffffffffffffffffffffff82166103f45773ffffffffffffffffffffffffffffffffffffffff1691821580156103d6575b80156103ce575b80156103c6575b61039e5773ffffffffffffffffffffffffffffffffffffffff602091847fffffffffffffffffffffffff00000000000000000000000000000000000000007f3514319b7a526ad5f1f42edf0c1df25fa0ea2ae054779987fbe636f164515e2f951617600a551693847fffffffffffffffffffffffff0000000000000000000000000000000000000000600b541617600b55857fffffffffffffffffffffffff0000000000000000000000000000000000000000600c541617600c55807fffffffffffffffffffffffff0000000000000000000000000000000000000000600d541617600d55604051908152a4005b7fd92e233d000000000000000000000000000000000000000000000000000000005f5260045ffd5b5083156102b0565b5084156102a9565b5073ffffffffffffffffffffffffffffffffffffffff8116156102a2565b7f0dc149f0000000000000000000000000000000000000000000000000000000005f5260045ffd5b5f80fd5b3461041c5760807ffffffffffffffffffffffffffffffffffffffffffffffffffffffffffffffffc36011261041c57600435602435604435906064359283151580940361041c5773ffffffffffffffffffffffffffffffffffffffff600b54168033036106f95750600854908082036106ec575b5060065491806106d7575b506007549260016104b9836104b487876120c8565b6120c8565b9586600955145f146105d6576040517f23b872dd0000000000000000000000000000000000000000000000000000000081523360048201523060248201526044810191909152936020856064815f7f000000000000000000000000000000000000000000000000000000000000000073ffffffffffffffffffffffffffffffffffffffff165af19182156105cb577ff52037b5ff3e3351630e4f532596e24394b031b2f2560e72cca6f227462a8502956105979361059c575b505b604051948594859094939260609260808301968352602083015260408201520152565b0390a1005b6105bd9060203d6020116105c4575b6105b58183611ede565b8101906120d5565b5086610572565b503d6105ab565b6040513d5f823e3d90fd5b80610608575b507ff52037b5ff3e3351630e4f532596e24394b031b2f2560e72cca6f227462a85029361059791610574565b6040517fa9059cbb0000000000000000000000000000000000000000000000000000000081523360048201526024810191909152936020856044815f7f000000000000000000000000000000000000000000000000000000000000000073ffffffffffffffffffffffffffffffffffffffff165af19182156105cb577ff52037b5ff3e3351630e4f532596e24394b031b2f2560e72cca6f227462a850295610597936106b8575b509150936105dc565b6106d09060203d6020116105c4576105b58183611ede565b50866106af565b6106e191926120c8565b90816006558461049f565b8091509060085584610494565b7f2d21ff3a000000000000000000000000000000000000000000000000000000005f523360045260245260445ffd5b3461041c5760207ffffffffffffffffffffffffffffffffffffffffffffffffffffffffffffffffc36011261041c576020600435610764612285565b9250505060025480155f1461077e5750505b604051908152f35b610787926122a2565b610776565b3461041c5760407ffffffffffffffffffffffffffffffffffffffffffffffffffffffffffffffffc36011261041c576107c3611f94565b73ffffffffffffffffffffffffffffffffffffffff6107e0611fb7565b91165f52600460205273ffffffffffffffffffffffffffffffffffffffff60405f2091165f52602052602060405f2054604051908152f35b3461041c5760207ffffffffffffffffffffffffffffffffffffffffffffffffffffffffffffffffc36011261041c5773ffffffffffffffffffffffffffffffffffffffff610864611f94565b165f526003602052602060405f2054604051908152f35b3461041c575f7ffffffffffffffffffffffffffffffffffffffffffffffffffffffffffffffffc36011261041c57602073ffffffffffffffffffffffffffffffffffffffff600d5416604051908152f35b3461041c5760e07ffffffffffffffffffffffffffffffffffffffffffffffffffffffffffffffffc36011261041c57610903611f94565b61090b611fb7565b6044356064359260843560ff811680910361041c57428510610b105760805f9160209373ffffffffffffffffffffffffffffffffffffffff61094b6120ed565b91169687855260058652604085209889549960018b0190556040519073ffffffffffffffffffffffffffffffffffffffff888301937f6e71edae12b1b97f4d1f60370fef10105fa2faae0126114a169c64845d6126c985528b6040850152169a8b6060840152898784015260a083015260c082015260c081526109cf60e082611ede565b51902060405190868201927f190100000000000000000000000000000000000000000000000000000000000084526022830152604282015260428152610a16606282611ede565b519020906040519182528482015260a435604082015260c435606082015282805260015afa156105cb5773ffffffffffffffffffffffffffffffffffffffff5f511680151580610b07575b15610aa9577f8c5be1e5ebec7d5bd14f71427d1e84f3dd0314c0f7b2291e5b200ac8c7c3b925916020915f526004825260405f20855f5282528060405f2055604051908152a3005b60646040517f08c379a000000000000000000000000000000000000000000000000000000000815260206004820152600e60248201527f494e56414c49445f5349474e45520000000000000000000000000000000000006044820152fd5b50828114610a61565b60646040517f08c379a000000000000000000000000000000000000000000000000000000000815260206004820152601760248201527f5045524d49545f444541444c494e455f455850495245440000000000000000006044820152fd5b61204c565b3461041c5760207ffffffffffffffffffffffffffffffffffffffffffffffffffffffffffffffffc36011261041c57602060043560025480155f14610bbb5750604051908152f35b9061078791600954916122a2565b3461041c575f7ffffffffffffffffffffffffffffffffffffffffffffffffffffffffffffffffc36011261041c57602073ffffffffffffffffffffffffffffffffffffffff600c5416604051908152f35b3461041c575f7ffffffffffffffffffffffffffffffffffffffffffffffffffffffffffffffffc36011261041c57602073ffffffffffffffffffffffffffffffffffffffff600b5416604051908152f35b3461041c57610c7936611fda565b919073ffffffffffffffffffffffffffffffffffffffff600a5416803303610fb85750610ca4612285565b90949280949294918597879160025480155f14610fa857505085975b8815610f805773ffffffffffffffffffffffffffffffffffffffff610d33921697885f52600360205260405f20610cf889825461208e565b905587600254036002555f897fddf252ad1be2c89b69c2b068fc378daa952ba7f163c4a11628f55a4df523b3ef60206040518c8152a36120c8565b91878310610f2457508691828210610f0f575086610d509161208e565b8060085587600755610d66816104b48a866120c8565b918260095580610e07575b5060408051938452602084810199909952830152606082015273ffffffffffffffffffffffffffffffffffffffff91907ff52037b5ff3e3351630e4f532596e24394b031b2f2560e72cca6f227462a85029080608081015b0390a1604051928584528684015216907ffbde797d201c681b91056529119e0b02407c7bb96a4a2c75c01fc9667232c8db60403392a4604051908152f35b6040517fa9059cbb00000000000000000000000000000000000000000000000000000000815273ffffffffffffffffffffffffffffffffffffffff8616600482015260248101919091529197909392602083806044810103815f73ffffffffffffffffffffffffffffffffffffffff7f0000000000000000000000000000000000000000000000000000000000000000165af180156105cb5760209973ffffffffffffffffffffffffffffffffffffffff967ff52037b5ff3e3351630e4f532596e24394b031b2f2560e72cca6f227462a850295610dc993610ef2575b50939a509350509293610d71565b610f08908d3d8f116105c4576105b58183611ede565b508c610ee4565b610f1d92985087915061208e565b955f610d50565b9250509550610f33868661208e565b90808211610f515790610f459161208e565b806006555f955f610d50565b907f7ae59685000000000000000000000000000000000000000000000000000000005f5260045260245260445ffd5b7f7c946ed7000000000000000000000000000000000000000000000000000000005f5260045ffd5b610fb291886122a2565b97610cc0565b7fc4c0632a000000000000000000000000000000000000000000000000000000005f523360045260245260445ffd5b3461041c57610ff536611fda565b5050507fd6234725000000000000000000000000000000000000000000000000000000005f5260045ffd5b3461041c5760207ffffffffffffffffffffffffffffffffffffffffffffffffffffffffffffffffc36011261041c57602060043560025480155f146110685750604051908152f35b600954610787926122d6565b3461041c5760207ffffffffffffffffffffffffffffffffffffffffffffffffffffffffffffffffc36011261041c5760043573ffffffffffffffffffffffffffffffffffffffff600d5416908133036112165760065460095461115492918281811115611207576110ef92916110e99161208e565b906120c8565b806009555f905b816006556020611108846008546120c8565b60088190556040517f23b872dd00000000000000000000000000000000000000000000000000000000815233600482015230602482015260448101959095529394859081906064820190565b03815f73ffffffffffffffffffffffffffffffffffffffff7f0000000000000000000000000000000000000000000000000000000000000000165af19081156105cb577ff52037b5ff3e3351630e4f532596e24394b031b2f2560e72cca6f227462a850294610597926111ea575b5060075493604051948594859094939260609260808301968352602083015260408201520152565b6112029060203d6020116105c4576105b58183611ede565b6111c2565b6112109161208e565b906110f6565b507f9e5c77d6000000000000000000000000000000000000000000000000000000005f523360045260245260445ffd5b3461041c5760407ffffffffffffffffffffffffffffffffffffffffffffffffffffffffffffffffc36011261041c5761127d611f94565b73ffffffffffffffffffffffffffffffffffffffff60243591335f52600360205260405f206112ad84825461208e565b90551690815f52600360205260405f208181540190556040519081527fddf252ad1be2c89b69c2b068fc378daa952ba7f163c4a11628f55a4df523b3ef60203392a3602060405160018152f35b3461041c575f7ffffffffffffffffffffffffffffffffffffffffffffffffffffffffffffffffc36011261041c576020600854604051908152f35b3461041c575f7ffffffffffffffffffffffffffffffffffffffffffffffffffffffffffffffffc36011261041c576040515f60015461137381611e8d565b808452906001811690811561140957506001146113ab575b6113a78361139b81850382611ede565b60405191829182611f4c565b0390f35b60015f9081527fb10e2d527612073b26eecdfd717e6a320cf44b4afac2b0732d9fcbe2b7fa0cf6939250905b8082106113ef5750909150810160200161139b61138b565b9192600181602092548385880101520191019092916113d7565b7fffffffffffffffffffffffffffffffffffffffffffffffffffffffffffffff001660208086019190915291151560051b8401909101915061139b905061138b565b3461041c5760407ffffffffffffffffffffffffffffffffffffffffffffffffffffffffffffffffc36011261041c57611482611fb7565b507fd6234725000000000000000000000000000000000000000000000000000000005f5260045ffd5b3461041c575f7ffffffffffffffffffffffffffffffffffffffffffffffffffffffffffffffffc36011261041c576020600954604051908152f35b3461041c5760207ffffffffffffffffffffffffffffffffffffffffffffffffffffffffffffffffc36011261041c5773ffffffffffffffffffffffffffffffffffffffff611532611f94565b165f526005602052602060405f2054604051908152f35b3461041c575f7ffffffffffffffffffffffffffffffffffffffffffffffffffffffffffffffffc36011261041c576113a7611582612285565b6040805194855260208501939093529183015260608201529081906080820190565b3461041c5760407ffffffffffffffffffffffffffffffffffffffffffffffffffffffffffffffffc36011261041c576004356115de611fb7565b9073ffffffffffffffffffffffffffffffffffffffff600b54168033036106f957508015610f805760025490816116b45780915b8215610f805760209361163a8473ffffffffffffffffffffffffffffffffffffffff936120c8565b6002551690815f526003845260405f20838154019055815f7fddf252ad1be2c89b69c2b068fc378daa952ba7f163c4a11628f55a4df523b3ef86604051878152a360405190815282848201527fdcbc1c05240f31ff3ad067ef1ee35ce4997762752e3a095284754544f4c709d760403392a3604051908152f35b6116c160095483836122a2565b91611612565b3461041c575f7ffffffffffffffffffffffffffffffffffffffffffffffffffffffffffffffffc36011261041c57602073ffffffffffffffffffffffffffffffffffffffff600a5416604051908152f35b3461041c575f7ffffffffffffffffffffffffffffffffffffffffffffffffffffffffffffffffc36011261041c576020600654604051908152f35b3461041c5760207ffffffffffffffffffffffffffffffffffffffffffffffffffffffffffffffffc36011261041c57602060043561178f612285565b60025493509150508161077e575050604051908152f35b3461041c5760207ffffffffffffffffffffffffffffffffffffffffffffffffffffffffffffffffc36011261041c576117dd611f94565b5060206040517fffffffffffffffffffffffffffffffffffffffffffffffffffffffffffffffff8152f35b3461041c575f7ffffffffffffffffffffffffffffffffffffffffffffffffffffffffffffffffc36011261041c57602060405173ffffffffffffffffffffffffffffffffffffffff7f0000000000000000000000000000000000000000000000000000000000000000168152f35b3461041c575f7ffffffffffffffffffffffffffffffffffffffffffffffffffffffffffffffffc36011261041c5760206107766120ed565b3461041c575f7ffffffffffffffffffffffffffffffffffffffffffffffffffffffffffffffffc36011261041c57602060405160ff7f0000000000000000000000000000000000000000000000000000000000000000168152f35b3461041c5760207ffffffffffffffffffffffffffffffffffffffffffffffffffffffffffffffffc36011261041c5760043573ffffffffffffffffffffffffffffffffffffffff600c541690813303611a7e578061196c6119cb926007546120c8565b9081600755602061197f826009546120c8565b60098190556040517f23b872dd00000000000000000000000000000000000000000000000000000000815233600482015230602482015260448101939093529193849081906064820190565b03815f73ffffffffffffffffffffffffffffffffffffffff7f0000000000000000000000000000000000000000000000000000000000000000165af19283156105cb577ff52037b5ff3e3351630e4f532596e24394b031b2f2560e72cca6f227462a850293611a61575b506006546008546040805192835260208301949094529281019290925260608201528060808101610597565b611a799060203d6020116105c4576105b58183611ede565b611a35565b507f61e9bb65000000000000000000000000000000000000000000000000000000005f523360045260245260445ffd5b3461041c5760607ffffffffffffffffffffffffffffffffffffffffffffffffffffffffffffffffc36011261041c57611ae5611f94565b611aed611fb7565b7fddf252ad1be2c89b69c2b068fc378daa952ba7f163c4a11628f55a4df523b3ef602073ffffffffffffffffffffffffffffffffffffffff80604435951693845f526004835260405f208233165f52835260405f2054867fffffffffffffffffffffffffffffffffffffffffffffffffffffffffffffffff8203611bab575b5050845f526003835260405f20611b8487825461208e565b90551693845f526003825260405f20818154019055604051908152a3602060405160018152f35b611bb49161208e565b855f526004845260405f208333165f52845260405f20558686611b6c565b3461041c575f7ffffffffffffffffffffffffffffffffffffffffffffffffffffffffffffffffc36011261041c576020600254604051908152f35b3461041c575f7ffffffffffffffffffffffffffffffffffffffffffffffffffffffffffffffffc36011261041c576020600754604051908152f35b3461041c5760207ffffffffffffffffffffffffffffffffffffffffffffffffffffffffffffffffc36011261041c57602060043560025480155f14611c905750604051908152f35b9061078791600954916122d6565b3461041c5760407ffffffffffffffffffffffffffffffffffffffffffffffffffffffffffffffffc36011261041c57611cd5611f94565b73ffffffffffffffffffffffffffffffffffffffff60243591335f52600460205260405f208282165f526020528260405f205560405192835216907f8c5be1e5ebec7d5bd14f71427d1e84f3dd0314c0f7b2291e5b200ac8c7c3b92560203392a3602060405160018152f35b3461041c5760207ffffffffffffffffffffffffffffffffffffffffffffffffffffffffffffffffc36011261041c57602060043560025480155f14611d895750604051908152f35b600954610787926122a2565b3461041c575f7ffffffffffffffffffffffffffffffffffffffffffffffffffffffffffffffffc36011261041c576040515f5f54611dd281611e8d565b80845290600181169081156114095750600114611df9576113a78361139b81850382611ede565b5f8080527f290decd9548b62a8d60345a988386fc84ba6bc95484008f6362f93160ef3e563939250905b808210611e3b5750909150810160200161139b61138b565b919260018160209254838588010152019101909291611e23565b3461041c575f7ffffffffffffffffffffffffffffffffffffffffffffffffffffffffffffffffc36011261041c576020906009548152f35b90600182811c92168015611ed4575b6020831014611ea757565b7f4e487b71000000000000000000000000000000000000000000000000000000005f52602260045260245ffd5b91607f1691611e9c565b90601f7fffffffffffffffffffffffffffffffffffffffffffffffffffffffffffffffe0910116810190811067ffffffffffffffff821117611f1f57604052565b7f4e487b71000000000000000000000000000000000000000000000000000000005f52604160045260245ffd5b7fffffffffffffffffffffffffffffffffffffffffffffffffffffffffffffffe0601f602060409481855280519182918282880152018686015e5f8582860101520116010190565b6004359073ffffffffffffffffffffffffffffffffffffffff8216820361041c57565b6024359073ffffffffffffffffffffffffffffffffffffffff8216820361041c57565b7ffffffffffffffffffffffffffffffffffffffffffffffffffffffffffffffffc606091011261041c576004359060243573ffffffffffffffffffffffffffffffffffffffff8116810361041c579060443573ffffffffffffffffffffffffffffffffffffffff8116810361041c5790565b3461041c5760207ffffffffffffffffffffffffffffffffffffffffffffffffffffffffffffffffc36011261041c57612083611f94565b5060206040515f8152f35b9190820391821161209b57565b7f4e487b71000000000000000000000000000000000000000000000000000000005f52601160045260245ffd5b9190820180921161209b57565b9081602091031261041c5751801515810361041c5790565b467f000000000000000000000000000000000000000000000000000000000000000003612138577f000000000000000000000000000000000000000000000000000000000000000090565b6040515f905f54918161214a84611e8d565b9182825260208201946001811690815f1461224b57506001146121ee575b61217492500382611ede565b51902060405160208101917f8b73c3c69bb8fe3d512ecc4cf759cc79239f7b179b0ffacaa9a75d522b39400f835260408201527fc89efdaa54c0f20c7adf612882df0950f5a951637e0307cdcb4c672f298b8bc660608201524660808201523060a082015260a081526121e860c082611ede565b51902090565b505f80805290917f290decd9548b62a8d60345a988386fc84ba6bc95484008f6362f93160ef3e5635b81831061222f57505090602061217492820101612168565b6020919350806001915483858801015201910190918392612217565b7fffffffffffffffffffffffffffffffffffffffffffffffffffffffffffffff001686525061217492151560051b82016020019050612168565b60065490600754906008549061229f826104b485876120c8565b90565b817fffffffffffffffffffffffffffffffffffffffffffffffffffffffffffffffff04811182021583021561041c57020490565b817fffffffffffffffffffffffffffffffffffffffffffffffffffffffffffffffff04811182021583021561041c57029080820491061515019056fea2646970667358221220c8e29aa328b46dc17133c25b014adaae402032f3b95b3cf3fd9ba3e8f4ae898564736f6c634300081e0033290decd9548b62a8d60345a988386fc84ba6bc95484008f6362f93160ef3e563","linkReferences":{}},"methodIdentifiers":{"DOMAIN_SEPARATOR()":"3644e515","allowance(address,address)":"dd62ed3e","approve(address,uint256)":"095ea7b3","asset()":"38d52e0f","balanceOf(address)":"70a08231","calculateCurrentBalances()":"741285fd","convertToAssets(uint256)":"07a2d13a","convertToShares(uint256)":"c6e6f592","decimals()":"313ce567","deposit(uint256,address)":"6e553f65","depository()":"bedd12a5","distributor()":"bfe10928","initialize(address,address,address,address)":"f8c8765e","maxDeposit(address)":"402d267d","maxMint(address)":"c63d75b6","maxRedeem(address)":"d905777e","maxWithdraw(address)":"ce96cb77","mint(uint256,address)":"94bf804d","name()":"06fdde03","nonces(address)":"7ecebe00","permit(address,address,uint256,uint256,uint8,bytes32,bytes32)":"d505accf","previewDeposit(uint256)":"ef8b30f7","previewMint(uint256)":"b3d7f6b9","previewRedeem(uint256)":"4cdad506","previewWithdraw(uint256)":"0a28a477","redeem(uint256,address,address)":"ba087652","reserveBalance()":"a10954fe","stakedBalance()":"5b9f0016","symbol()":"95d89b41","syncStakeBalances(uint256,uint256,uint256,bool)":"f105ab6e","topUpRetiredBalance(uint256)":"b3b50c6f","topUpVaultBalance(uint256)":"2b5064cc","totalAssets()":"01e1d114","totalReserves()":"8f840ddd","totalSupply()":"18160ddd","transfer(address,uint256)":"a9059cbb","transferFrom(address,address,uint256)":"23b872dd","treasury()":"61d027b3","unstakeRelayer()":"d69c649f","vaultBalance()":"0bf6cc08","withdraw(uint256,address,address)":"b460af94"},"id":18}