{"abi":[{"type":"constructor","inputs":[{"name":"_olas","type":"address","internalType":"address"},{"name":"_st","type":"address","internalType":"address"}],"stateMutability":"nonpayable"},{"type":"function","name":"PROXY_SLOT","inputs":[],"outputs":[{"name":"","type":"bytes32","internalType":"bytes32"}],"stateMutability":"view"},{"type":"function","name":"VERSION","inputs":[],"outputs":[{"name":"","type":"string","internalType":"string"}],"stateMutability":"view"},{"type":"function","name":"changeImplementation","inputs":[{"name":"newImplementation","type":"address","internalType":"address"}],"outputs":[],"stateMutability":"nonpayable"},{"type":"function","name":"changeOwner","inputs":[{"name":"newOwner","type":"address","internalType":"address"}],"outputs":[],"stateMutability":"nonpayable"},{"type":"function","name":"initialize","inputs":[],"outputs":[],"stateMutability":"nonpayable"},{"type":"function","name":"olas","inputs":[],"outputs":[{"name":"","type":"address","internalType":"address"}],"stateMutability":"view"},{"type":"function","name":"owner","inputs":[],"outputs":[{"name":"","type":"address","internalType":"address"}],"stateMutability":"view"},{"type":"function","name":"relay","inputs":[],"outputs":[],"stateMutability":"nonpayable"},{"type":"function","name":"st","inputs":[],"outputs":[{"name":"","type":"address","internalType":"address"}],"stateMutability":"view"},{"type":"event","name":"ImplementationUpdated","inputs":[{"name":"implementation","type":"address","indexed":true,"internalType":"address"}],"anonymous":false},{"type":"event","name":"OwnerUpdated","inputs":[{"name":"owner","type":"address","indexed":true,"internalType":"address"}],"anonymous":false},{"type":"event","name":"UnstakeRelayed","inputs":[{"name":"account","type":"address","indexed":true,"internalType":"address"},{"name":"st","type":"address","indexed":true,"internalType":"address"},{"name":"olasAmount","type":"uint256","indexed":false,"internalType":"uint256"}],"anonymous":false},{"type":"error","name":"AlreadyInitialized","inputs":[]},{"type":"error","name":"OwnerOnly","inputs":[{"name":"sender","type":"address","internalType":"address"},{"name":"owner","type":"address","internalType":"address"}]},{"type":"error","name":"ReentrancyGuard","inputs":[]},{"type":"error","name":"ZeroAddress","inputs":[]}],"bytecode":{"object":"0x60c03461008857601f61095438819003918201601f19168301916001600160401b0383118484101761008c57808492604094855283398101031261008857610052602061004b836100a0565b92016100a0565b9060805260a05260405161089f90816100b582396080518181816101e901526107d7015260a05181818161029a01526106ac0152f35b5f80fd5b634e487b7160e01b5f52604160045260245ffd5b51906001600160a01b03821682036100885756fe6080806040526004361015610012575f80fd5b5f905f3560e01c90816231d1151461078f5750806317a68dd8146106d057806373f0cc2d146106625780638129fc1c146105c75780638da5cb5b14610577578063a6f9dae11461045c578063aa3d10df14610404578063b59589d1146101715763ffa1ad7414610080575f80fd5b3461016e57807ffffffffffffffffffffffffffffffffffffffffffffffffffffffffffffffffc36011261016e576040516040810181811067ffffffffffffffff82111761014157906040918252600581527fffffffffffffffffffffffffffffffffffffffffffffffffffffffffffffffe0601f602083017f302e312e3000000000000000000000000000000000000000000000000000000081528451958694602086525180928160208801528787015e85828601015201168101030190f35b6024837f4e487b710000000000000000000000000000000000000000000000000000000081526041600452fd5b80fd5b503461036f575f7ffffffffffffffffffffffffffffffffffffffffffffffffffffffffffffffffc36011261036f5760ff5f5c166103dc5760017fffffffffffffffffffffffffffffffffffffffffffffffffffffffffffffff005f5c16175f5d73ffffffffffffffffffffffffffffffffffffffff7f0000000000000000000000000000000000000000000000000000000000000000166040517f70a08231000000000000000000000000000000000000000000000000000000008152306004820152602081602481855afa908115610364575f916103aa575b5080610256578280f35b6040517f095ea7b30000000000000000000000000000000000000000000000000000000081526020816044815f73ffffffffffffffffffffffffffffffffffffffff7f000000000000000000000000000000000000000000000000000000000000000016978860048401528760248401525af1801561036457610373575b50813b1561036f576040517fb3b50c6f0000000000000000000000000000000000000000000000000000000081528160048201525f8160248183875af180156103645761034f575b506040519081527f9c4780cee391f8583e6395e68a21103bee901ab29d33edf53582d5721cd78b2a60203392a35f808280f35b61035c9193505f906107fb565b5f915f61031c565b6040513d5f823e3d90fd5b5f80fd5b6020813d6020116103a2575b8161038c602093836107fb565b8101031261036f575180151581146102d4575f80fd5b3d915061037f565b90506020813d6020116103d4575b816103c5602093836107fb565b8101031261036f57515f61024c565b3d91506103b8565b7f8beb9d16000000000000000000000000000000000000000000000000000000005f5260045ffd5b3461036f575f7ffffffffffffffffffffffffffffffffffffffffffffffffffffffffffffffffc36011261036f5760206040517f360894a13ba1a3210667c828492db98dca3e2076cc3735a920a3ca505d382bbc8152f35b3461036f5760207ffffffffffffffffffffffffffffffffffffffffffffffffffffffffffffffffc36011261036f5760043573ffffffffffffffffffffffffffffffffffffffff811680910361036f575f5473ffffffffffffffffffffffffffffffffffffffff811680330361054857508115610520577fffffffffffffffffffffffff0000000000000000000000000000000000000000829116175f557f4ffd725fc4a22075e9ec71c59edf9c38cdeb588a91b24fc5b61388c5be41282b5f80a2005b7fd92e233d000000000000000000000000000000000000000000000000000000005f5260045ffd5b7fa43d6ada000000000000000000000000000000000000000000000000000000005f523360045260245260445ffd5b3461036f575f7ffffffffffffffffffffffffffffffffffffffffffffffffffffffffffffffffc36011261036f57602073ffffffffffffffffffffffffffffffffffffffff5f5416604051908152f35b3461036f575f7ffffffffffffffffffffffffffffffffffffffffffffffffffffffffffffffffc36011261036f575f5473ffffffffffffffffffffffffffffffffffffffff811661063a577fffffffffffffffffffffffff00000000000000000000000000000000000000001633175f55005b7f0dc149f0000000000000000000000000000000000000000000000000000000005f5260045ffd5b3461036f575f7ffffffffffffffffffffffffffffffffffffffffffffffffffffffffffffffffc36011261036f57602060405173ffffffffffffffffffffffffffffffffffffffff7f0000000000000000000000000000000000000000000000000000000000000000168152f35b3461036f5760207ffffffffffffffffffffffffffffffffffffffffffffffffffffffffffffffffc36011261036f5760043573ffffffffffffffffffffffffffffffffffffffff81169081810361036f5773ffffffffffffffffffffffffffffffffffffffff5f541680330361054857508115610520577f360894a13ba1a3210667c828492db98dca3e2076cc3735a920a3ca505d382bbc557f310ba5f1d2ed074b51e2eccd052a47ae9ab7c6b800d1fca3db3999d6a592ca035f80a2005b3461036f575f7ffffffffffffffffffffffffffffffffffffffffffffffffffffffffffffffffc36011261036f5760209073ffffffffffffffffffffffffffffffffffffffff7f0000000000000000000000000000000000000000000000000000000000000000168152f35b90601f7fffffffffffffffffffffffffffffffffffffffffffffffffffffffffffffffe0910116810190811067ffffffffffffffff82111761083c57604052565b7f4e487b71000000000000000000000000000000000000000000000000000000005f52604160045260245ffdfea26469706673582212205839b7a8abda8278f2ee89330efab42cdb4b8521c6df7626b97c3ec7ea36757764736f6c634300081e0033","linkReferences":{}},"methodIdentifiers":{"PROXY_SLOT()":"aa3d10df","VERSION()":"ffa1ad74","changeImplementation(address)":"17a68dd8","changeOwner(address)":"a6f9dae1","initialize()":"8129fc1c","olas()":"0031d115","owner()":"8da5cb5b","relay()":"b59589d1","st()":"73f0cc2d"},"id":13}